{
  "contractName": "BitcoinRate",
  "abi": [
    {
      "constant": true,
      "inputs": [],
      "name": "getBalance",
      "outputs": [
        {
          "name": "",
          "type": "uint256"
        }
      ],
      "payable": false,
      "stateMutability": "view",
      "type": "function"
    },
    {
      "constant": false,
      "inputs": [
        {
          "name": "myid",
          "type": "bytes32"
        },
        {
          "name": "result",
          "type": "string"
        }
      ],
      "name": "__callback",
      "outputs": [],
      "payable": false,
      "stateMutability": "nonpayable",
      "type": "function"
    },
    {
      "constant": false,
      "inputs": [
        {
          "name": "myid",
          "type": "bytes32"
        },
        {
          "name": "result",
          "type": "string"
        },
        {
          "name": "proof",
          "type": "bytes"
        }
      ],
      "name": "__callback",
      "outputs": [],
      "payable": false,
      "stateMutability": "nonpayable",
      "type": "function"
    },
    {
      "constant": false,
      "inputs": [
        {
          "name": "result1",
          "type": "string"
        },
        {
          "name": "result2",
          "type": "string"
        }
      ],
      "name": "biggest",
      "outputs": [
        {
          "name": "biggest",
          "type": "bool"
        }
      ],
      "payable": false,
      "stateMutability": "nonpayable",
      "type": "function"
    },
    {
      "constant": false,
      "inputs": [
        {
          "name": "email",
          "type": "string"
        }
      ],
      "name": "registerNewSubscriber",
      "outputs": [],
      "payable": false,
      "stateMutability": "nonpayable",
      "type": "function"
    },
    {
      "constant": false,
      "inputs": [],
      "name": "close",
      "outputs": [],
      "payable": false,
      "stateMutability": "nonpayable",
      "type": "function"
    },
    {
      "constant": false,
      "inputs": [],
      "name": "updatePrice",
      "outputs": [],
      "payable": true,
      "stateMutability": "payable",
      "type": "function"
    },
    {
      "constant": false,
      "inputs": [],
      "name": "getAllSubscribers",
      "outputs": [],
      "payable": false,
      "stateMutability": "nonpayable",
      "type": "function"
    },
    {
      "constant": false,
      "inputs": [],
      "name": "contribute",
      "outputs": [],
      "payable": true,
      "stateMutability": "payable",
      "type": "function"
    },
    {
      "constant": true,
      "inputs": [],
      "name": "getBTC",
      "outputs": [
        {
          "name": "",
          "type": "string"
        }
      ],
      "payable": false,
      "stateMutability": "view",
      "type": "function"
    },
    {
      "constant": false,
      "inputs": [
        {
          "name": "newOwner",
          "type": "address"
        }
      ],
      "name": "transferOwnership",
      "outputs": [],
      "payable": false,
      "stateMutability": "nonpayable",
      "type": "function"
    },
    {
      "inputs": [],
      "payable": false,
      "stateMutability": "nonpayable",
      "type": "constructor"
    },
    {
      "payable": true,
      "stateMutability": "payable",
      "type": "fallback"
    },
    {
      "anonymous": false,
      "inputs": [
        {
          "indexed": false,
          "name": "price",
          "type": "string"
        }
      ],
      "name": "newBitcoinPrice",
      "type": "event"
    },
    {
      "anonymous": false,
      "inputs": [
        {
          "indexed": false,
          "name": "msg",
          "type": "string"
        }
      ],
      "name": "newOraclizeQuery",
      "type": "event"
    },
    {
      "anonymous": false,
      "inputs": [
        {
          "indexed": false,
          "name": "msg",
          "type": "string"
        },
        {
          "indexed": false,
          "name": "email",
          "type": "string"
        }
      ],
      "name": "newBTCPrice",
      "type": "event"
    }
  ],
  "bytecode": "0x60606040526020604051908101604052806000815250600790805190602001906200002c92919062000a30565b5034156200003957600080fd5b336000806101000a81548173ffffffffffffffffffffffffffffffffffffffff021916908373ffffffffffffffffffffffffffffffffffffffff160217905550620000e060017f01000000000000000000000000000000000000000000000000000000000000000260107f01000000000000000000000000000000000000000000000000000000000000000217620000e664010000000002620021c3176401000000009004565b62000adf565b6000600160009054906101000a900473ffffffffffffffffffffffffffffffffffffffff1673ffffffffffffffffffffffffffffffffffffffff1614806200016e575060006200016c600160009054906101000a900473ffffffffffffffffffffffffffffffffffffffff16620004716401000000000262001bad176401000000009004565b145b1562000196576200019460006200047c6401000000000262001bb8176401000000009004565b505b600160009054906101000a900473ffffffffffffffffffffffffffffffffffffffff1673ffffffffffffffffffffffffffffffffffffffff166338cc48316000604051602001526040518163ffffffff167c0100000000000000000000000000000000000000000000000000000000028152600401602060405180830381600087803b15156200022557600080fd5b6102c65a03f115156200023757600080fd5b5050506040518051905073ffffffffffffffffffffffffffffffffffffffff16600260009054906101000a900473ffffffffffffffffffffffffffffffffffffffff1673ffffffffffffffffffffffffffffffffffffffff161415156200038457600160009054906101000a900473ffffffffffffffffffffffffffffffffffffffff1673ffffffffffffffffffffffffffffffffffffffff166338cc48316000604051602001526040518163ffffffff167c0100000000000000000000000000000000000000000000000000000000028152600401602060405180830381600087803b15156200032757600080fd5b6102c65a03f115156200033957600080fd5b50505060405180519050600260006101000a81548173ffffffffffffffffffffffffffffffffffffffff021916908373ffffffffffffffffffffffffffffffffffffffff1602179055505b600260009054906101000a900473ffffffffffffffffffffffffffffffffffffffff1673ffffffffffffffffffffffffffffffffffffffff1663688dcfd7826040518263ffffffff167c010000000000000000000000000000000000000000000000000000000002815260040180827effffffffffffffffffffffffffffffffffffffffffffffffffffffffffffff19167effffffffffffffffffffffffffffffffffffffffffffffffffffffffffffff19168152602001915050600060405180830381600087803b15156200045957600080fd5b6102c65a03f115156200046b57600080fd5b50505050565b6000813b9050919050565b600080620004b2731d3b2638a7cc9f2cb3d298a3da7a90b67e5506ed620004716401000000000262001bad176401000000009004565b11156200056c57731d3b2638a7cc9f2cb3d298a3da7a90b67e5506ed600160006101000a81548173ffffffffffffffffffffffffffffffffffffffff021916908373ffffffffffffffffffffffffffffffffffffffff160217905550620005626040805190810160405280600b81526020017f6574685f6d61696e6e657400000000000000000000000000000000000000000081525062000a146401000000000262002050176401000000009004565b6001905062000a0f565b6000620005a173c03a2615d5efaf5f49f60b7bb6583eaec212fdf1620004716401000000000262001bad176401000000009004565b11156200065b5773c03a2615d5efaf5f49f60b7bb6583eaec212fdf1600160006101000a81548173ffffffffffffffffffffffffffffffffffffffff021916908373ffffffffffffffffffffffffffffffffffffffff160217905550620006516040805190810160405280600c81526020017f6574685f726f707374656e33000000000000000000000000000000000000000081525062000a146401000000000262002050176401000000009004565b6001905062000a0f565b60006200069073b7a07bcf2ba2f2703b24c0691b5278999c59ac7e620004716401000000000262001bad176401000000009004565b11156200074a5773b7a07bcf2ba2f2703b24c0691b5278999c59ac7e600160006101000a81548173ffffffffffffffffffffffffffffffffffffffff021916908373ffffffffffffffffffffffffffffffffffffffff160217905550620007406040805190810160405280600981526020017f6574685f6b6f76616e000000000000000000000000000000000000000000000081525062000a146401000000000262002050176401000000009004565b6001905062000a0f565b60006200077f73146500cfd35b22e4a392fe0adc06de1a1368ed48620004716401000000000262001bad176401000000009004565b1115620008395773146500cfd35b22e4a392fe0adc06de1a1368ed48600160006101000a81548173ffffffffffffffffffffffffffffffffffffffff021916908373ffffffffffffffffffffffffffffffffffffffff1602179055506200082f6040805190810160405280600b81526020017f6574685f72696e6b65627900000000000000000000000000000000000000000081525062000a146401000000000262002050176401000000009004565b6001905062000a0f565b60006200086e736f485c8bf6fc43ea212e93bbf8ce046c7f1cb475620004716401000000000262001bad176401000000009004565b1115620008d457736f485c8bf6fc43ea212e93bbf8ce046c7f1cb475600160006101000a81548173ffffffffffffffffffffffffffffffffffffffff021916908373ffffffffffffffffffffffffffffffffffffffff1602179055506001905062000a0f565b6000620009097320e12a1f859b3feae5fb2a0a32c18f5a65555bbf620004716401000000000262001bad176401000000009004565b11156200096f577320e12a1f859b3feae5fb2a0a32c18f5a65555bbf600160006101000a81548173ffffffffffffffffffffffffffffffffffffffff021916908373ffffffffffffffffffffffffffffffffffffffff1602179055506001905062000a0f565b6000620009a47351efaf4c8b3c9afbd5ab9f4bbc82784ab6ef8faa620004716401000000000262001bad176401000000009004565b111562000a0a577351efaf4c8b3c9afbd5ab9f4bbc82784ab6ef8faa600160006101000a81548173ffffffffffffffffffffffffffffffffffffffff021916908373ffffffffffffffffffffffffffffffffffffffff1602179055506001905062000a0f565b600090505b919050565b806003908051906020019062000a2c92919062000a30565b5050565b828054600181600116156101000203166002900490600052602060002090601f016020900481019282601f1062000a7357805160ff191683800117855562000aa4565b8280016001018555821562000aa4579182015b8281111562000aa357825182559160200191906001019062000a86565b5b50905062000ab3919062000ab7565b5090565b62000adc91905b8082111562000ad857600081600090555060010162000abe565b5090565b90565b6125458062000aef6000396000f3006060604052600436106100af576000357c0100000000000000000000000000000000000000000000000000000000900463ffffffff16806312065fe01461011957806327dc297e1461014257806338bbfa50146101ac5780634359b02d1461025957806343a489c51461031157806343d726d61461036e578063673a7e2814610383578063ac6d0fa41461038d578063d7bb99ba146103a2578063e62854c7146103ac578063f2fde38b1461043a575b7f46cb989ef9cef13e930e3b7f286225a086e716a90d63e0b7da85d310a9db0c9a60405180806020018281038252600b8152602001807f6e65772062616c616e636500000000000000000000000000000000000000000081525060200191505060405180910390a1005b341561012457600080fd5b61012c610473565b6040518082815260200191505060405180910390f35b341561014d57600080fd5b6101aa60048080356000191690602001909190803590602001908201803590602001908080601f01602080910402602001604051908101604052809392919081815260200183838082843782019150505050505091905050610492565b005b34156101b757600080fd5b61025760048080356000191690602001909190803590602001908201803590602001908080601f0160208091040260200160405190810160405280939291908181526020018383808284378201915050505050509190803590602001908201803590602001908080601f01602080910402602001604051908101604052809392919081815260200183838082843782019150505050505091905050610867565b005b341561026457600080fd5b6102f7600480803590602001908201803590602001908080601f0160208091040260200160405190810160405280939291908181526020018383808284378201915050505050509190803590602001908201803590602001908080601f0160208091040260200160405190810160405280939291908181526020018383808284378201915050505050509190505061086c565b604051808215151515815260200191505060405180910390f35b341561031c57600080fd5b61036c600480803590602001908201803590602001908080601f01602080910402602001604051908101604052809392919081815260200183838082843782019150505050505091905050610878565b005b341561037957600080fd5b6103816108b7565b005b61038b61094c565b005b341561039857600080fd5b6103a0610bee565b005b6103aa610e11565b005b34156103b757600080fd5b6103bf610e7b565b6040518080602001828103825283818151815260200191508051906020019080838360005b838110156103ff5780820151818401526020810190506103e4565b50505050905090810190601f16801561042c5780820380516001836020036101000a031916815260200191505b509250505060405180910390f35b341561044557600080fd5b610471600480803573ffffffffffffffffffffffffffffffffffffffff16906020019091905050610f23565b005b60003073ffffffffffffffffffffffffffffffffffffffff1631905090565b7f46cb989ef9cef13e930e3b7f286225a086e716a90d63e0b7da85d310a9db0c9a816040518080602001828103825283818151815260200191508051906020019080838360005b838110156104f45780820151818401526020810190506104d9565b50505050905090810190601f1680156105215780820380516001836020036101000a031916815260200191505b509250505060405180910390a17f3b7a53cf23b0b81bba2993c806b81e5e956f85245c247c7a3207e40dddc8d0a1816040518080602001828103825283818151815260200191508051906020019080838360005b83811015610590578082015181840152602081019050610575565b50505050905090810190601f1680156105bd5780820380516001836020036101000a031916815260200191505b509250505060405180910390a160096000836000191660001916815260200190815260200160002060009054906101000a900460ff1615156105fe57600080fd5b610606610fc1565b73ffffffffffffffffffffffffffffffffffffffff163373ffffffffffffffffffffffffffffffffffffffff1614151561063f57600080fd5b7f46cb989ef9cef13e930e3b7f286225a086e716a90d63e0b7da85d310a9db0c9a816040518080602001828103825283818151815260200191508051906020019080838360005b838110156106a1578082015181840152602081019050610686565b50505050905090810190601f1680156106ce5780820380516001836020036101000a031916815260200191505b509250505060405180910390a161077f8160078054600181600116156101000203166002900480601f0160208091040260200160405190810160405280929190818152602001828054600181600116156101000203166002900480156107755780601f1061074a57610100808354040283529160200191610775565b820191906000526020600020905b81548152906001019060200180831161075857829003601f168201915b505050505061086c565b1561083857806007908051906020019061079a92919061206a565b507f3b7a53cf23b0b81bba2993c806b81e5e956f85245c247c7a3207e40dddc8d0a1816040518080602001828103825283818151815260200191508051906020019080838360005b838110156107fd5780820151818401526020810190506107e2565b50505050905090810190601f16801561082a5780820380516001836020036101000a031916815260200191505b509250505060405180910390a15b60096000836000191660001916815260200190815260200160002060006101000a81549060ff02191690555050565b505050565b60006001905092915050565b6006805480600101828161088c91906120ea565b9160005260206000209001600083909190915090805190602001906108b292919061206a565b505050565b6000809054906101000a900473ffffffffffffffffffffffffffffffffffffffff1673ffffffffffffffffffffffffffffffffffffffff163373ffffffffffffffffffffffffffffffffffffffff1614151561091257600080fd5b6000809054906101000a900473ffffffffffffffffffffffffffffffffffffffff1673ffffffffffffffffffffffffffffffffffffffff16ff5b60003073ffffffffffffffffffffffffffffffffffffffff16316109a46040805190810160405280600381526020017f55524c00000000000000000000000000000000000000000000000000000000008152506112db565b1115610a63577f46cb989ef9cef13e930e3b7f286225a086e716a90d63e0b7da85d310a9db0c9a60405180806020018281038252604b8152602001807f4f7261636c697a6520717565727920776173204e4f542073656e742c20706c6581526020017f6173652061646420736f6d652045544820746f20636f76657220666f7220746881526020017f652071756572792066656500000000000000000000000000000000000000000081525060600191505060405180910390a1610beb565b7f46cb989ef9cef13e930e3b7f286225a086e716a90d63e0b7da85d310a9db0c9a6040518080602001828103825260358152602001807f4f7261636c697a65207175657279207761732073656e742c207374616e64696e81526020017f6720627920666f722074686520616e737765722e2e000000000000000000000081525060400191505060405180910390a1610bb4603c6040805190810160405280600381526020017f55524c0000000000000000000000000000000000000000000000000000000000815250608060405190810160405280604481526020017f6a736f6e2868747470733a2f2f6170692e636f696e6465736b2e636f6d2f763181526020017f2f6270692f63757272656e7470726963652e6a736f6e292e6270692e5553442e81526020017f7261746500000000000000000000000000000000000000000000000000000000815250611667565b9050600160096000836000191660001916815260200190815260200160002060006101000a81548160ff0219169083151502179055505b50565b60007f61f8ea2c0e35e810234d792f84ed01782bd6c9f176d5a89c98abc91a96476540604051808060200180602001838103835260058152602001807f7465737431000000000000000000000000000000000000000000000000000000815250602001838103825260058152602001807f74657374320000000000000000000000000000000000000000000000000000008152506020019250505060405180910390a1600090505b60068054905081111515610e0e577f61f8ea2c0e35e810234d792f84ed01782bd6c9f176d5a89c98abc91a96476540600682815481101515610cd457fe5b90600052602060002090016007604051808060200180602001838103835285818154600181600116156101000203166002900481526020019150805460018160011615610100020316600290048015610d6e5780601f10610d4357610100808354040283529160200191610d6e565b820191906000526020600020905b815481529060010190602001808311610d5157829003601f168201915b5050838103825284818154600181600116156101000203166002900481526020019150805460018160011615610100020316600290048015610df15780601f10610dc657610100808354040283529160200191610df1565b820191906000526020600020905b815481529060010190602001808311610dd457829003601f168201915b505094505050505060405180910390a18080600101915050610c96565b50565b7f46cb989ef9cef13e930e3b7f286225a086e716a90d63e0b7da85d310a9db0c9a60405180806020018281038252600b8152602001807f6e65772062616c616e636500000000000000000000000000000000000000000081525060200191505060405180910390a1565b610e83612116565b60078054600181600116156101000203166002900480601f016020809104026020016040519081016040528092919081815260200182805460018160011615610100020316600290048015610f195780601f10610eee57610100808354040283529160200191610f19565b820191906000526020600020905b815481529060010190602001808311610efc57829003601f168201915b5050505050905090565b6000809054906101000a900473ffffffffffffffffffffffffffffffffffffffff1673ffffffffffffffffffffffffffffffffffffffff163373ffffffffffffffffffffffffffffffffffffffff16141515610f7e57600080fd5b806000806101000a81548173ffffffffffffffffffffffffffffffffffffffff021916908373ffffffffffffffffffffffffffffffffffffffff16021790555050565b600080600160009054906101000a900473ffffffffffffffffffffffffffffffffffffffff1673ffffffffffffffffffffffffffffffffffffffff16148061103357506000611031600160009054906101000a900473ffffffffffffffffffffffffffffffffffffffff16611bad565b145b15611044576110426000611bb8565b505b600160009054906101000a900473ffffffffffffffffffffffffffffffffffffffff1673ffffffffffffffffffffffffffffffffffffffff166338cc48316000604051602001526040518163ffffffff167c0100000000000000000000000000000000000000000000000000000000028152600401602060405180830381600087803b15156110d257600080fd5b6102c65a03f115156110e357600080fd5b5050506040518051905073ffffffffffffffffffffffffffffffffffffffff16600260009054906101000a900473ffffffffffffffffffffffffffffffffffffffff1673ffffffffffffffffffffffffffffffffffffffff1614151561122d57600160009054906101000a900473ffffffffffffffffffffffffffffffffffffffff1673ffffffffffffffffffffffffffffffffffffffff166338cc48316000604051602001526040518163ffffffff167c0100000000000000000000000000000000000000000000000000000000028152600401602060405180830381600087803b15156111d157600080fd5b6102c65a03f115156111e257600080fd5b50505060405180519050600260006101000a81548173ffffffffffffffffffffffffffffffffffffffff021916908373ffffffffffffffffffffffffffffffffffffffff1602179055505b600260009054906101000a900473ffffffffffffffffffffffffffffffffffffffff1673ffffffffffffffffffffffffffffffffffffffff1663c281d19e6000604051602001526040518163ffffffff167c0100000000000000000000000000000000000000000000000000000000028152600401602060405180830381600087803b15156112bb57600080fd5b6102c65a03f115156112cc57600080fd5b50505060405180519050905090565b600080600160009054906101000a900473ffffffffffffffffffffffffffffffffffffffff1673ffffffffffffffffffffffffffffffffffffffff16148061134d5750600061134b600160009054906101000a900473ffffffffffffffffffffffffffffffffffffffff16611bad565b145b1561135e5761135c6000611bb8565b505b600160009054906101000a900473ffffffffffffffffffffffffffffffffffffffff1673ffffffffffffffffffffffffffffffffffffffff166338cc48316000604051602001526040518163ffffffff167c0100000000000000000000000000000000000000000000000000000000028152600401602060405180830381600087803b15156113ec57600080fd5b6102c65a03f115156113fd57600080fd5b5050506040518051905073ffffffffffffffffffffffffffffffffffffffff16600260009054906101000a900473ffffffffffffffffffffffffffffffffffffffff1673ffffffffffffffffffffffffffffffffffffffff1614151561154757600160009054906101000a900473ffffffffffffffffffffffffffffffffffffffff1673ffffffffffffffffffffffffffffffffffffffff166338cc48316000604051602001526040518163ffffffff167c0100000000000000000000000000000000000000000000000000000000028152600401602060405180830381600087803b15156114eb57600080fd5b6102c65a03f115156114fc57600080fd5b50505060405180519050600260006101000a81548173ffffffffffffffffffffffffffffffffffffffff021916908373ffffffffffffffffffffffffffffffffffffffff1602179055505b600260009054906101000a900473ffffffffffffffffffffffffffffffffffffffff1673ffffffffffffffffffffffffffffffffffffffff1663524f3889836000604051602001526040518263ffffffff167c01000000000000000000000000000000000000000000000000000000000281526004018080602001828103825283818151815260200191508051906020019080838360005b838110156115fa5780820151818401526020810190506115df565b50505050905090810190601f1680156116275780820380516001836020036101000a031916815260200191505b5092505050602060405180830381600087803b151561164557600080fd5b6102c65a03f1151561165657600080fd5b505050604051805190509050919050565b6000806000600160009054906101000a900473ffffffffffffffffffffffffffffffffffffffff1673ffffffffffffffffffffffffffffffffffffffff1614806116db575060006116d9600160009054906101000a900473ffffffffffffffffffffffffffffffffffffffff16611bad565b145b156116ec576116ea6000611bb8565b505b600160009054906101000a900473ffffffffffffffffffffffffffffffffffffffff1673ffffffffffffffffffffffffffffffffffffffff166338cc48316000604051602001526040518163ffffffff167c0100000000000000000000000000000000000000000000000000000000028152600401602060405180830381600087803b151561177a57600080fd5b6102c65a03f1151561178b57600080fd5b5050506040518051905073ffffffffffffffffffffffffffffffffffffffff16600260009054906101000a900473ffffffffffffffffffffffffffffffffffffffff1673ffffffffffffffffffffffffffffffffffffffff161415156118d557600160009054906101000a900473ffffffffffffffffffffffffffffffffffffffff1673ffffffffffffffffffffffffffffffffffffffff166338cc48316000604051602001526040518163ffffffff167c0100000000000000000000000000000000000000000000000000000000028152600401602060405180830381600087803b151561187957600080fd5b6102c65a03f1151561188a57600080fd5b50505060405180519050600260006101000a81548173ffffffffffffffffffffffffffffffffffffffff021916908373ffffffffffffffffffffffffffffffffffffffff1602179055505b600260009054906101000a900473ffffffffffffffffffffffffffffffffffffffff1673ffffffffffffffffffffffffffffffffffffffff1663524f3889856000604051602001526040518263ffffffff167c01000000000000000000000000000000000000000000000000000000000281526004018080602001828103825283818151815260200191508051906020019080838360005b8381101561198857808201518184015260208101905061196d565b50505050905090810190601f1680156119b55780820380516001836020036101000a031916815260200191505b5092505050602060405180830381600087803b15156119d357600080fd5b6102c65a03f115156119e457600080fd5b50505060405180519050905062030d403a02670de0b6b3a764000001811115611a135760006001029150611ba5565b600260009054906101000a900473ffffffffffffffffffffffffffffffffffffffff1673ffffffffffffffffffffffffffffffffffffffff1663adf59f99828787876000604051602001526040518563ffffffff167c0100000000000000000000000000000000000000000000000000000000028152600401808481526020018060200180602001838103835285818151815260200191508051906020019080838360005b83811015611ad3578082015181840152602081019050611ab8565b50505050905090810190601f168015611b005780820380516001836020036101000a031916815260200191505b50838103825284818151815260200191508051906020019080838360005b83811015611b39578082015181840152602081019050611b1e565b50505050905090810190601f168015611b665780820380516001836020036101000a031916815260200191505b50955050505050506020604051808303818588803b1515611b8657600080fd5b6125ee5a03f11515611b9757600080fd5b505050506040518051905091505b509392505050565b6000813b9050919050565b600080611bd8731d3b2638a7cc9f2cb3d298a3da7a90b67e5506ed611bad565b1115611c7a57731d3b2638a7cc9f2cb3d298a3da7a90b67e5506ed600160006101000a81548173ffffffffffffffffffffffffffffffffffffffff021916908373ffffffffffffffffffffffffffffffffffffffff160217905550611c716040805190810160405280600b81526020017f6574685f6d61696e6e6574000000000000000000000000000000000000000000815250612050565b6001905061204b565b6000611c9973c03a2615d5efaf5f49f60b7bb6583eaec212fdf1611bad565b1115611d3b5773c03a2615d5efaf5f49f60b7bb6583eaec212fdf1600160006101000a81548173ffffffffffffffffffffffffffffffffffffffff021916908373ffffffffffffffffffffffffffffffffffffffff160217905550611d326040805190810160405280600c81526020017f6574685f726f707374656e330000000000000000000000000000000000000000815250612050565b6001905061204b565b6000611d5a73b7a07bcf2ba2f2703b24c0691b5278999c59ac7e611bad565b1115611dfc5773b7a07bcf2ba2f2703b24c0691b5278999c59ac7e600160006101000a81548173ffffffffffffffffffffffffffffffffffffffff021916908373ffffffffffffffffffffffffffffffffffffffff160217905550611df36040805190810160405280600981526020017f6574685f6b6f76616e0000000000000000000000000000000000000000000000815250612050565b6001905061204b565b6000611e1b73146500cfd35b22e4a392fe0adc06de1a1368ed48611bad565b1115611ebd5773146500cfd35b22e4a392fe0adc06de1a1368ed48600160006101000a81548173ffffffffffffffffffffffffffffffffffffffff021916908373ffffffffffffffffffffffffffffffffffffffff160217905550611eb46040805190810160405280600b81526020017f6574685f72696e6b656279000000000000000000000000000000000000000000815250612050565b6001905061204b565b6000611edc736f485c8bf6fc43ea212e93bbf8ce046c7f1cb475611bad565b1115611f4057736f485c8bf6fc43ea212e93bbf8ce046c7f1cb475600160006101000a81548173ffffffffffffffffffffffffffffffffffffffff021916908373ffffffffffffffffffffffffffffffffffffffff1602179055506001905061204b565b6000611f5f7320e12a1f859b3feae5fb2a0a32c18f5a65555bbf611bad565b1115611fc3577320e12a1f859b3feae5fb2a0a32c18f5a65555bbf600160006101000a81548173ffffffffffffffffffffffffffffffffffffffff021916908373ffffffffffffffffffffffffffffffffffffffff1602179055506001905061204b565b6000611fe27351efaf4c8b3c9afbd5ab9f4bbc82784ab6ef8faa611bad565b1115612046577351efaf4c8b3c9afbd5ab9f4bbc82784ab6ef8faa600160006101000a81548173ffffffffffffffffffffffffffffffffffffffff021916908373ffffffffffffffffffffffffffffffffffffffff1602179055506001905061204b565b600090505b919050565b806003908051906020019061206692919061206a565b5050565b828054600181600116156101000203166002900490600052602060002090601f016020900481019282601f106120ab57805160ff19168380011785556120d9565b828001600101855582156120d9579182015b828111156120d85782518255916020019190600101906120bd565b5b5090506120e6919061212a565b5090565b81548183558181151161211157818360005260206000209182019101612110919061214f565b5b505050565b602060405190810160405280600081525090565b61214c91905b80821115612148576000816000905550600101612130565b5090565b90565b61217891905b80821115612174576000818161216b919061217b565b50600101612155565b5090565b90565b50805460018160011615610100020316600290046000825580601f106121a157506121c0565b601f0160209004906000526020600020908101906121bf919061212a565b5b50565b6000600160009054906101000a900473ffffffffffffffffffffffffffffffffffffffff1673ffffffffffffffffffffffffffffffffffffffff16148061223457506000612232600160009054906101000a900473ffffffffffffffffffffffffffffffffffffffff16611bad565b145b15612245576122436000611bb8565b505b600160009054906101000a900473ffffffffffffffffffffffffffffffffffffffff1673ffffffffffffffffffffffffffffffffffffffff166338cc48316000604051602001526040518163ffffffff167c0100000000000000000000000000000000000000000000000000000000028152600401602060405180830381600087803b15156122d357600080fd5b6102c65a03f115156122e457600080fd5b5050506040518051905073ffffffffffffffffffffffffffffffffffffffff16600260009054906101000a900473ffffffffffffffffffffffffffffffffffffffff1673ffffffffffffffffffffffffffffffffffffffff1614151561242e57600160009054906101000a900473ffffffffffffffffffffffffffffffffffffffff1673ffffffffffffffffffffffffffffffffffffffff166338cc48316000604051602001526040518163ffffffff167c0100000000000000000000000000000000000000000000000000000000028152600401602060405180830381600087803b15156123d257600080fd5b6102c65a03f115156123e357600080fd5b50505060405180519050600260006101000a81548173ffffffffffffffffffffffffffffffffffffffff021916908373ffffffffffffffffffffffffffffffffffffffff1602179055505b600260009054906101000a900473ffffffffffffffffffffffffffffffffffffffff1673ffffffffffffffffffffffffffffffffffffffff1663688dcfd7826040518263ffffffff167c010000000000000000000000000000000000000000000000000000000002815260040180827effffffffffffffffffffffffffffffffffffffffffffffffffffffffffffff19167effffffffffffffffffffffffffffffffffffffffffffffffffffffffffffff19168152602001915050600060405180830381600087803b151561250257600080fd5b6102c65a03f1151561251357600080fd5b505050505600a165627a7a7230582043b0b64f8f5cf3d4469654b4173ead12f98f15c7c3922c3b0da60960316bd9290029",
  "source": "pragma solidity ^0.4.18;\r\n\r\nimport \"./Owner.sol\";\r\nimport \"./usingOraclize.sol\";\r\n\r\ncontract BitcoinRate is Owner, usingOraclize {\r\n\r\n    string[] subscribers;\r\n\r\n    string currentPriceBitcoin = \"\";\r\n\r\n    ufixed test;\r\n\r\n    mapping(bytes32 => bool) validIds;\r\n    //Fallback Function\r\n    //A contract can have exactly one unnamed function.\r\n    //This function cannot have arguments and cannot return anything.\r\n    //It is executed on a call to the contract if none of the other functions match the given function identifier (or if no data was supplied at all).\r\n\r\n    function() payable {\r\n        newOraclizeQuery(\"new balance\");\r\n    }\r\n\r\n    event newBitcoinPrice(string price);\r\n\r\n    event newOraclizeQuery(string msg);\r\n\r\n    event newBTCPrice(string msg, string email);\r\n\r\n\r\n    function BitcoinRate() {\r\n        //oraclize_setProof(proofType_Ledger);\r\n        oraclize_setProof(proofType_TLSNotary | proofStorage_IPFS);\r\n        //updatePrice();\r\n    }\r\n\r\n    function registerNewSubscriber(string email) public {\r\n        subscribers.push(email);\r\n    }\r\n\r\n\r\n    function contribute() public payable {\r\n        newOraclizeQuery(\"new balance\");\r\n    }\r\n\r\n    function getBalance() public view returns (uint){\r\n        return this.balance;\r\n    }\r\n\r\n    function getBTC() public view returns (string){\r\n        return currentPriceBitcoin;\r\n    }\r\n\r\n    function getAllSubscribers() public {\r\n        newBTCPrice(\"test1\", \"test2\");\r\n        for (uint i = 0; i <= subscribers.length; i++) {\r\n            newBTCPrice(subscribers[i], currentPriceBitcoin);\r\n        }\r\n    }\r\n\r\n    function updatePrice() public payable {\r\n        if (oraclize_getPrice(\"URL\") > this.balance) {\r\n            newOraclizeQuery(\"Oraclize query was NOT sent, please add some ETH to cover for the query fee\");\r\n        } else {\r\n            newOraclizeQuery(\"Oraclize query was sent, standing by for the answer..\");\r\n            bytes32 queryId = oraclize_query(60, \"URL\", \"json(https://api.coindesk.com/v1/bpi/currentprice.json).bpi.USD.rate\");\r\n            validIds[queryId] = true;\r\n        }\r\n    }\r\n\r\n    function __callback(bytes32 myid, string result) public {\r\n        newOraclizeQuery(result);\r\n        newBitcoinPrice(result);\r\n        require(validIds[myid]);\r\n        require(msg.sender == oraclize_cbAddress());\r\n        newOraclizeQuery(result);\r\n        if (biggest(result, currentPriceBitcoin)) {\r\n            currentPriceBitcoin = result;\r\n            newBitcoinPrice(result);\r\n        }\r\n        delete validIds[myid];\r\n        //updatePrice();\r\n    }\r\n\r\n    function biggest(string result1, string result2) public returns (bool biggest) {\r\n        return true;\r\n    }\r\n\r\n\r\n    function close() public onlyOwner {\r\n        selfdestruct(owner);\r\n    }\r\n}\r\n\r\n",
  "sourcePath": "C:\\BlockChain\\bitcoin_rate_in_a_week\\contracts\\BitcoinRate.sol",
  "compiler": {
    "name": "solc",
    "version": "0.4.18+commit.9cf6e910.Emscripten.clang"
  },
  "schemaVersion": "1.0.1",
  "updatedAt": "2017-12-10T20:19:37.799Z"
}