{
  "contractName": "BitcoinRate",
  "abi": [
    {
      "constant": true,
      "inputs": [],
      "name": "getBalance",
      "outputs": [
        {
          "name": "",
          "type": "uint256"
        }
      ],
      "payable": false,
      "stateMutability": "view",
      "type": "function"
    },
    {
      "constant": false,
      "inputs": [
        {
          "name": "myid",
          "type": "bytes32"
        },
        {
          "name": "result",
          "type": "string"
        }
      ],
      "name": "__callback",
      "outputs": [],
      "payable": false,
      "stateMutability": "nonpayable",
      "type": "function"
    },
    {
      "constant": false,
      "inputs": [
        {
          "name": "myid",
          "type": "bytes32"
        },
        {
          "name": "result",
          "type": "string"
        },
        {
          "name": "proof",
          "type": "bytes"
        }
      ],
      "name": "__callback",
      "outputs": [],
      "payable": false,
      "stateMutability": "nonpayable",
      "type": "function"
    },
    {
      "constant": false,
      "inputs": [
        {
          "name": "result1",
          "type": "string"
        },
        {
          "name": "result2",
          "type": "string"
        }
      ],
      "name": "biggest",
      "outputs": [
        {
          "name": "biggest",
          "type": "bool"
        }
      ],
      "payable": false,
      "stateMutability": "nonpayable",
      "type": "function"
    },
    {
      "constant": false,
      "inputs": [
        {
          "name": "email",
          "type": "string"
        }
      ],
      "name": "registerNewSubscriber",
      "outputs": [],
      "payable": false,
      "stateMutability": "nonpayable",
      "type": "function"
    },
    {
      "constant": false,
      "inputs": [],
      "name": "close",
      "outputs": [],
      "payable": false,
      "stateMutability": "nonpayable",
      "type": "function"
    },
    {
      "constant": false,
      "inputs": [],
      "name": "updatePrice",
      "outputs": [],
      "payable": true,
      "stateMutability": "payable",
      "type": "function"
    },
    {
      "constant": false,
      "inputs": [],
      "name": "getAllSubscribers",
      "outputs": [],
      "payable": false,
      "stateMutability": "nonpayable",
      "type": "function"
    },
    {
      "constant": false,
      "inputs": [],
      "name": "contribute",
      "outputs": [],
      "payable": true,
      "stateMutability": "payable",
      "type": "function"
    },
    {
      "constant": true,
      "inputs": [],
      "name": "getBTC",
      "outputs": [
        {
          "name": "",
          "type": "string"
        }
      ],
      "payable": false,
      "stateMutability": "view",
      "type": "function"
    },
    {
      "constant": false,
      "inputs": [
        {
          "name": "newOwner",
          "type": "address"
        }
      ],
      "name": "transferOwnership",
      "outputs": [],
      "payable": false,
      "stateMutability": "nonpayable",
      "type": "function"
    },
    {
      "inputs": [],
      "payable": false,
      "stateMutability": "nonpayable",
      "type": "constructor"
    },
    {
      "payable": true,
      "stateMutability": "payable",
      "type": "fallback"
    },
    {
      "anonymous": false,
      "inputs": [
        {
          "indexed": false,
          "name": "price",
          "type": "string"
        }
      ],
      "name": "newBitcoinPrice",
      "type": "event"
    },
    {
      "anonymous": false,
      "inputs": [
        {
          "indexed": false,
          "name": "msg",
          "type": "string"
        }
      ],
      "name": "newOraclizeQuery",
      "type": "event"
    },
    {
      "anonymous": false,
      "inputs": [
        {
          "indexed": false,
          "name": "msg",
          "type": "string"
        },
        {
          "indexed": false,
          "name": "email",
          "type": "string"
        }
      ],
      "name": "newBTCPrice",
      "type": "event"
    }
  ],
  "bytecode": "0x60606040526020604051908101604052806000815250600790805190602001906200002c92919062001644565b5034156200003957600080fd5b336000806101000a81548173ffffffffffffffffffffffffffffffffffffffff021916908373ffffffffffffffffffffffffffffffffffffffff160217905550620000e060017f01000000000000000000000000000000000000000000000000000000000000000260107f01000000000000000000000000000000000000000000000000000000000000000217620001046401000000000262001f69176401000000009004565b620000fe6200048f6401000000000262000718176401000000009004565b620016f3565b6000600160009054906101000a900473ffffffffffffffffffffffffffffffffffffffff1673ffffffffffffffffffffffffffffffffffffffff1614806200018c575060006200018a600160009054906101000a900473ffffffffffffffffffffffffffffffffffffffff16620007396401000000000262001953176401000000009004565b145b15620001b457620001b2600062000744640100000000026200195e176401000000009004565b505b600160009054906101000a900473ffffffffffffffffffffffffffffffffffffffff1673ffffffffffffffffffffffffffffffffffffffff166338cc48316000604051602001526040518163ffffffff167c0100000000000000000000000000000000000000000000000000000000028152600401602060405180830381600087803b15156200024357600080fd5b6102c65a03f115156200025557600080fd5b5050506040518051905073ffffffffffffffffffffffffffffffffffffffff16600260009054906101000a900473ffffffffffffffffffffffffffffffffffffffff1673ffffffffffffffffffffffffffffffffffffffff16141515620003a257600160009054906101000a900473ffffffffffffffffffffffffffffffffffffffff1673ffffffffffffffffffffffffffffffffffffffff166338cc48316000604051602001526040518163ffffffff167c0100000000000000000000000000000000000000000000000000000000028152600401602060405180830381600087803b15156200034557600080fd5b6102c65a03f115156200035757600080fd5b50505060405180519050600260006101000a81548173ffffffffffffffffffffffffffffffffffffffff021916908373ffffffffffffffffffffffffffffffffffffffff1602179055505b600260009054906101000a900473ffffffffffffffffffffffffffffffffffffffff1673ffffffffffffffffffffffffffffffffffffffff1663688dcfd7826040518263ffffffff167c010000000000000000000000000000000000000000000000000000000002815260040180827effffffffffffffffffffffffffffffffffffffffffffffffffffffffffffff19167effffffffffffffffffffffffffffffffffffffffffffffffffffffffffffff19168152602001915050600060405180830381600087803b15156200047757600080fd5b6102c65a03f115156200048957600080fd5b50505050565b60003073ffffffffffffffffffffffffffffffffffffffff1631620004fd6040805190810160405280600381526020017f55524c000000000000000000000000000000000000000000000000000000000081525062000cdc6401000000000262001081176401000000009004565b1115620005be577f46cb989ef9cef13e930e3b7f286225a086e716a90d63e0b7da85d310a9db0c9a60405180806020018281038252604b8152602001807f4f7261636c697a6520717565727920776173204e4f542073656e742c20706c6581526020017f6173652061646420736f6d652045544820746f20636f76657220666f7220746881526020017f652071756572792066656500000000000000000000000000000000000000000081525060600191505060405180910390a162000736565b7f46cb989ef9cef13e930e3b7f286225a086e716a90d63e0b7da85d310a9db0c9a6040518080602001828103825260358152602001807f4f7261636c697a65207175657279207761732073656e742c207374616e64696e81526020017f6720627920666f722074686520616e737765722e2e000000000000000000000081525060400191505060405180910390a1620006ff603c6040805190810160405280600381526020017f55524c0000000000000000000000000000000000000000000000000000000000815250606060405190810160405280603f81526020017f68747470733a2f2f6170692e636f696e6465736b2e636f6d2f76312f6270692f81526020017f63757272656e7470726963652e6a736f6e292e6270692e5553442e7261746500815250620010a0640100000000026200140d176401000000009004565b9050600160096000836000191660001916815260200190815260200160002060006101000a81548160ff0219169083151502179055505b50565b6000813b9050919050565b6000806200077a731d3b2638a7cc9f2cb3d298a3da7a90b67e5506ed620007396401000000000262001953176401000000009004565b11156200083457731d3b2638a7cc9f2cb3d298a3da7a90b67e5506ed600160006101000a81548173ffffffffffffffffffffffffffffffffffffffff021916908373ffffffffffffffffffffffffffffffffffffffff1602179055506200082a6040805190810160405280600b81526020017f6574685f6d61696e6e6574000000000000000000000000000000000000000000815250620016286401000000000262001df6176401000000009004565b6001905062000cd7565b60006200086973c03a2615d5efaf5f49f60b7bb6583eaec212fdf1620007396401000000000262001953176401000000009004565b1115620009235773c03a2615d5efaf5f49f60b7bb6583eaec212fdf1600160006101000a81548173ffffffffffffffffffffffffffffffffffffffff021916908373ffffffffffffffffffffffffffffffffffffffff160217905550620009196040805190810160405280600c81526020017f6574685f726f707374656e330000000000000000000000000000000000000000815250620016286401000000000262001df6176401000000009004565b6001905062000cd7565b60006200095873b7a07bcf2ba2f2703b24c0691b5278999c59ac7e620007396401000000000262001953176401000000009004565b111562000a125773b7a07bcf2ba2f2703b24c0691b5278999c59ac7e600160006101000a81548173ffffffffffffffffffffffffffffffffffffffff021916908373ffffffffffffffffffffffffffffffffffffffff16021790555062000a086040805190810160405280600981526020017f6574685f6b6f76616e0000000000000000000000000000000000000000000000815250620016286401000000000262001df6176401000000009004565b6001905062000cd7565b600062000a4773146500cfd35b22e4a392fe0adc06de1a1368ed48620007396401000000000262001953176401000000009004565b111562000b015773146500cfd35b22e4a392fe0adc06de1a1368ed48600160006101000a81548173ffffffffffffffffffffffffffffffffffffffff021916908373ffffffffffffffffffffffffffffffffffffffff16021790555062000af76040805190810160405280600b81526020017f6574685f72696e6b656279000000000000000000000000000000000000000000815250620016286401000000000262001df6176401000000009004565b6001905062000cd7565b600062000b36736f485c8bf6fc43ea212e93bbf8ce046c7f1cb475620007396401000000000262001953176401000000009004565b111562000b9c57736f485c8bf6fc43ea212e93bbf8ce046c7f1cb475600160006101000a81548173ffffffffffffffffffffffffffffffffffffffff021916908373ffffffffffffffffffffffffffffffffffffffff1602179055506001905062000cd7565b600062000bd17320e12a1f859b3feae5fb2a0a32c18f5a65555bbf620007396401000000000262001953176401000000009004565b111562000c37577320e12a1f859b3feae5fb2a0a32c18f5a65555bbf600160006101000a81548173ffffffffffffffffffffffffffffffffffffffff021916908373ffffffffffffffffffffffffffffffffffffffff1602179055506001905062000cd7565b600062000c6c7351efaf4c8b3c9afbd5ab9f4bbc82784ab6ef8faa620007396401000000000262001953176401000000009004565b111562000cd2577351efaf4c8b3c9afbd5ab9f4bbc82784ab6ef8faa600160006101000a81548173ffffffffffffffffffffffffffffffffffffffff021916908373ffffffffffffffffffffffffffffffffffffffff1602179055506001905062000cd7565b600090505b919050565b600080600160009054906101000a900473ffffffffffffffffffffffffffffffffffffffff1673ffffffffffffffffffffffffffffffffffffffff16148062000d655750600062000d63600160009054906101000a900473ffffffffffffffffffffffffffffffffffffffff16620007396401000000000262001953176401000000009004565b145b1562000d8d5762000d8b600062000744640100000000026200195e176401000000009004565b505b600160009054906101000a900473ffffffffffffffffffffffffffffffffffffffff1673ffffffffffffffffffffffffffffffffffffffff166338cc48316000604051602001526040518163ffffffff167c0100000000000000000000000000000000000000000000000000000000028152600401602060405180830381600087803b151562000e1c57600080fd5b6102c65a03f1151562000e2e57600080fd5b5050506040518051905073ffffffffffffffffffffffffffffffffffffffff16600260009054906101000a900473ffffffffffffffffffffffffffffffffffffffff1673ffffffffffffffffffffffffffffffffffffffff1614151562000f7b57600160009054906101000a900473ffffffffffffffffffffffffffffffffffffffff1673ffffffffffffffffffffffffffffffffffffffff166338cc48316000604051602001526040518163ffffffff167c0100000000000000000000000000000000000000000000000000000000028152600401602060405180830381600087803b151562000f1e57600080fd5b6102c65a03f1151562000f3057600080fd5b50505060405180519050600260006101000a81548173ffffffffffffffffffffffffffffffffffffffff021916908373ffffffffffffffffffffffffffffffffffffffff1602179055505b600260009054906101000a900473ffffffffffffffffffffffffffffffffffffffff1673ffffffffffffffffffffffffffffffffffffffff1663524f3889836000604051602001526040518263ffffffff167c01000000000000000000000000000000000000000000000000000000000281526004018080602001828103825283818151815260200191508051906020019080838360005b838110156200103057808201518184015260208101905062001013565b50505050905090810190601f1680156200105e5780820380516001836020036101000a031916815260200191505b5092505050602060405180830381600087803b15156200107d57600080fd5b6102c65a03f115156200108f57600080fd5b505050604051805190509050919050565b6000806000600160009054906101000a900473ffffffffffffffffffffffffffffffffffffffff1673ffffffffffffffffffffffffffffffffffffffff1614806200112b5750600062001129600160009054906101000a900473ffffffffffffffffffffffffffffffffffffffff16620007396401000000000262001953176401000000009004565b145b15620011535762001151600062000744640100000000026200195e176401000000009004565b505b600160009054906101000a900473ffffffffffffffffffffffffffffffffffffffff1673ffffffffffffffffffffffffffffffffffffffff166338cc48316000604051602001526040518163ffffffff167c0100000000000000000000000000000000000000000000000000000000028152600401602060405180830381600087803b1515620011e257600080fd5b6102c65a03f11515620011f457600080fd5b5050506040518051905073ffffffffffffffffffffffffffffffffffffffff16600260009054906101000a900473ffffffffffffffffffffffffffffffffffffffff1673ffffffffffffffffffffffffffffffffffffffff161415156200134157600160009054906101000a900473ffffffffffffffffffffffffffffffffffffffff1673ffffffffffffffffffffffffffffffffffffffff166338cc48316000604051602001526040518163ffffffff167c0100000000000000000000000000000000000000000000000000000000028152600401602060405180830381600087803b1515620012e457600080fd5b6102c65a03f11515620012f657600080fd5b50505060405180519050600260006101000a81548173ffffffffffffffffffffffffffffffffffffffff021916908373ffffffffffffffffffffffffffffffffffffffff1602179055505b600260009054906101000a900473ffffffffffffffffffffffffffffffffffffffff1673ffffffffffffffffffffffffffffffffffffffff1663524f3889856000604051602001526040518263ffffffff167c01000000000000000000000000000000000000000000000000000000000281526004018080602001828103825283818151815260200191508051906020019080838360005b83811015620013f6578082015181840152602081019050620013d9565b50505050905090810190601f168015620014245780820380516001836020036101000a031916815260200191505b5092505050602060405180830381600087803b15156200144357600080fd5b6102c65a03f115156200145557600080fd5b50505060405180519050905062030d403a02670de0b6b3a76400000181111562001486576000600102915062001620565b600260009054906101000a900473ffffffffffffffffffffffffffffffffffffffff1673ffffffffffffffffffffffffffffffffffffffff1663adf59f99828787876000604051602001526040518563ffffffff167c0100000000000000000000000000000000000000000000000000000000028152600401808481526020018060200180602001838103835285818151815260200191508051906020019080838360005b83811015620015485780820151818401526020810190506200152b565b50505050905090810190601f168015620015765780820380516001836020036101000a031916815260200191505b50838103825284818151815260200191508051906020019080838360005b83811015620015b157808201518184015260208101905062001594565b50505050905090810190601f168015620015df5780820380516001836020036101000a031916815260200191505b50955050505050506020604051808303818588803b15156200160057600080fd5b6125ee5a03f115156200161257600080fd5b505050506040518051905091505b509392505050565b80600390805190602001906200164092919062001644565b5050565b828054600181600116156101000203166002900490600052602060002090601f016020900481019282601f106200168757805160ff1916838001178555620016b8565b82800160010185558215620016b8579182015b82811115620016b75782518255916020019190600101906200169a565b5b509050620016c79190620016cb565b5090565b620016f091905b80821115620016ec576000816000905550600101620016d2565b5090565b90565b6122eb80620017036000396000f3006060604052600436106100af576000357c0100000000000000000000000000000000000000000000000000000000900463ffffffff16806312065fe0146100b157806327dc297e146100da57806338bbfa50146101445780634359b02d146101f157806343a489c5146102a957806343d726d614610306578063673a7e281461031b578063ac6d0fa414610325578063d7bb99ba1461033a578063e62854c714610344578063f2fde38b146103d2575b005b34156100bc57600080fd5b6100c461040b565b6040518082815260200191505060405180910390f35b34156100e557600080fd5b61014260048080356000191690602001909190803590602001908201803590602001908080601f0160208091040260200160405190810160405280939291908181526020018383808284378201915050505050509190505061042a565b005b341561014f57600080fd5b6101ef60048080356000191690602001909190803590602001908201803590602001908080601f0160208091040260200160405190810160405280939291908181526020018383808284378201915050505050509190803590602001908201803590602001908080601f01602080910402602001604051908101604052809392919081815260200183838082843782019150505050505091905050610633565b005b34156101fc57600080fd5b61028f600480803590602001908201803590602001908080601f0160208091040260200160405190810160405280939291908181526020018383808284378201915050505050509190803590602001908201803590602001908080601f01602080910402602001604051908101604052809392919081815260200183838082843782019150505050505091905050610638565b604051808215151515815260200191505060405180910390f35b34156102b457600080fd5b610304600480803590602001908201803590602001908080601f01602080910402602001604051908101604052809392919081815260200183838082843782019150505050505091905050610644565b005b341561031157600080fd5b610319610683565b005b610323610718565b005b341561033057600080fd5b610338610994565b005b610342610bb7565b005b341561034f57600080fd5b610357610c21565b6040518080602001828103825283818151815260200191508051906020019080838360005b8381101561039757808201518184015260208101905061037c565b50505050905090810190601f1680156103c45780820380516001836020036101000a031916815260200191505b509250505060405180910390f35b34156103dd57600080fd5b610409600480803573ffffffffffffffffffffffffffffffffffffffff16906020019091905050610cc9565b005b60003073ffffffffffffffffffffffffffffffffffffffff1631905090565b60096000836000191660001916815260200190815260200160002060009054906101000a900460ff16151561045e57600080fd5b610466610d67565b73ffffffffffffffffffffffffffffffffffffffff163373ffffffffffffffffffffffffffffffffffffffff1614151561049f57600080fd5b6105438160078054600181600116156101000203166002900480601f0160208091040260200160405190810160405280929190818152602001828054600181600116156101000203166002900480156105395780601f1061050e57610100808354040283529160200191610539565b820191906000526020600020905b81548152906001019060200180831161051c57829003601f168201915b5050505050610638565b156105fc57806007908051906020019061055e929190611e10565b507f3b7a53cf23b0b81bba2993c806b81e5e956f85245c247c7a3207e40dddc8d0a1816040518080602001828103825283818151815260200191508051906020019080838360005b838110156105c15780820151818401526020810190506105a6565b50505050905090810190601f1680156105ee5780820380516001836020036101000a031916815260200191505b509250505060405180910390a15b60096000836000191660001916815260200190815260200160002060006101000a81549060ff021916905561062f610718565b5050565b505050565b60006001905092915050565b600680548060010182816106589190611e90565b91600052602060002090016000839091909150908051906020019061067e929190611e10565b505050565b6000809054906101000a900473ffffffffffffffffffffffffffffffffffffffff1673ffffffffffffffffffffffffffffffffffffffff163373ffffffffffffffffffffffffffffffffffffffff161415156106de57600080fd5b6000809054906101000a900473ffffffffffffffffffffffffffffffffffffffff1673ffffffffffffffffffffffffffffffffffffffff16ff5b60003073ffffffffffffffffffffffffffffffffffffffff16316107706040805190810160405280600381526020017f55524c0000000000000000000000000000000000000000000000000000000000815250611081565b111561082f577f46cb989ef9cef13e930e3b7f286225a086e716a90d63e0b7da85d310a9db0c9a60405180806020018281038252604b8152602001807f4f7261636c697a6520717565727920776173204e4f542073656e742c20706c6581526020017f6173652061646420736f6d652045544820746f20636f76657220666f7220746881526020017f652071756572792066656500000000000000000000000000000000000000000081525060600191505060405180910390a1610991565b7f46cb989ef9cef13e930e3b7f286225a086e716a90d63e0b7da85d310a9db0c9a6040518080602001828103825260358152602001807f4f7261636c697a65207175657279207761732073656e742c207374616e64696e81526020017f6720627920666f722074686520616e737765722e2e000000000000000000000081525060400191505060405180910390a161095a603c6040805190810160405280600381526020017f55524c0000000000000000000000000000000000000000000000000000000000815250606060405190810160405280603f81526020017f68747470733a2f2f6170692e636f696e6465736b2e636f6d2f76312f6270692f81526020017f63757272656e7470726963652e6a736f6e292e6270692e5553442e726174650081525061140d565b9050600160096000836000191660001916815260200190815260200160002060006101000a81548160ff0219169083151502179055505b50565b60007f61f8ea2c0e35e810234d792f84ed01782bd6c9f176d5a89c98abc91a96476540604051808060200180602001838103835260058152602001807f7465737431000000000000000000000000000000000000000000000000000000815250602001838103825260058152602001807f74657374320000000000000000000000000000000000000000000000000000008152506020019250505060405180910390a1600090505b60068054905081111515610bb4577f61f8ea2c0e35e810234d792f84ed01782bd6c9f176d5a89c98abc91a96476540600682815481101515610a7a57fe5b90600052602060002090016007604051808060200180602001838103835285818154600181600116156101000203166002900481526020019150805460018160011615610100020316600290048015610b145780601f10610ae957610100808354040283529160200191610b14565b820191906000526020600020905b815481529060010190602001808311610af757829003601f168201915b5050838103825284818154600181600116156101000203166002900481526020019150805460018160011615610100020316600290048015610b975780601f10610b6c57610100808354040283529160200191610b97565b820191906000526020600020905b815481529060010190602001808311610b7a57829003601f168201915b505094505050505060405180910390a18080600101915050610a3c565b50565b7f46cb989ef9cef13e930e3b7f286225a086e716a90d63e0b7da85d310a9db0c9a60405180806020018281038252600b8152602001807f6e65772062616c616e636500000000000000000000000000000000000000000081525060200191505060405180910390a1565b610c29611ebc565b60078054600181600116156101000203166002900480601f016020809104026020016040519081016040528092919081815260200182805460018160011615610100020316600290048015610cbf5780601f10610c9457610100808354040283529160200191610cbf565b820191906000526020600020905b815481529060010190602001808311610ca257829003601f168201915b5050505050905090565b6000809054906101000a900473ffffffffffffffffffffffffffffffffffffffff1673ffffffffffffffffffffffffffffffffffffffff163373ffffffffffffffffffffffffffffffffffffffff16141515610d2457600080fd5b806000806101000a81548173ffffffffffffffffffffffffffffffffffffffff021916908373ffffffffffffffffffffffffffffffffffffffff16021790555050565b600080600160009054906101000a900473ffffffffffffffffffffffffffffffffffffffff1673ffffffffffffffffffffffffffffffffffffffff161480610dd957506000610dd7600160009054906101000a900473ffffffffffffffffffffffffffffffffffffffff16611953565b145b15610dea57610de8600061195e565b505b600160009054906101000a900473ffffffffffffffffffffffffffffffffffffffff1673ffffffffffffffffffffffffffffffffffffffff166338cc48316000604051602001526040518163ffffffff167c0100000000000000000000000000000000000000000000000000000000028152600401602060405180830381600087803b1515610e7857600080fd5b6102c65a03f11515610e8957600080fd5b5050506040518051905073ffffffffffffffffffffffffffffffffffffffff16600260009054906101000a900473ffffffffffffffffffffffffffffffffffffffff1673ffffffffffffffffffffffffffffffffffffffff16141515610fd357600160009054906101000a900473ffffffffffffffffffffffffffffffffffffffff1673ffffffffffffffffffffffffffffffffffffffff166338cc48316000604051602001526040518163ffffffff167c0100000000000000000000000000000000000000000000000000000000028152600401602060405180830381600087803b1515610f7757600080fd5b6102c65a03f11515610f8857600080fd5b50505060405180519050600260006101000a81548173ffffffffffffffffffffffffffffffffffffffff021916908373ffffffffffffffffffffffffffffffffffffffff1602179055505b600260009054906101000a900473ffffffffffffffffffffffffffffffffffffffff1673ffffffffffffffffffffffffffffffffffffffff1663c281d19e6000604051602001526040518163ffffffff167c0100000000000000000000000000000000000000000000000000000000028152600401602060405180830381600087803b151561106157600080fd5b6102c65a03f1151561107257600080fd5b50505060405180519050905090565b600080600160009054906101000a900473ffffffffffffffffffffffffffffffffffffffff1673ffffffffffffffffffffffffffffffffffffffff1614806110f3575060006110f1600160009054906101000a900473ffffffffffffffffffffffffffffffffffffffff16611953565b145b1561110457611102600061195e565b505b600160009054906101000a900473ffffffffffffffffffffffffffffffffffffffff1673ffffffffffffffffffffffffffffffffffffffff166338cc48316000604051602001526040518163ffffffff167c0100000000000000000000000000000000000000000000000000000000028152600401602060405180830381600087803b151561119257600080fd5b6102c65a03f115156111a357600080fd5b5050506040518051905073ffffffffffffffffffffffffffffffffffffffff16600260009054906101000a900473ffffffffffffffffffffffffffffffffffffffff1673ffffffffffffffffffffffffffffffffffffffff161415156112ed57600160009054906101000a900473ffffffffffffffffffffffffffffffffffffffff1673ffffffffffffffffffffffffffffffffffffffff166338cc48316000604051602001526040518163ffffffff167c0100000000000000000000000000000000000000000000000000000000028152600401602060405180830381600087803b151561129157600080fd5b6102c65a03f115156112a257600080fd5b50505060405180519050600260006101000a81548173ffffffffffffffffffffffffffffffffffffffff021916908373ffffffffffffffffffffffffffffffffffffffff1602179055505b600260009054906101000a900473ffffffffffffffffffffffffffffffffffffffff1673ffffffffffffffffffffffffffffffffffffffff1663524f3889836000604051602001526040518263ffffffff167c01000000000000000000000000000000000000000000000000000000000281526004018080602001828103825283818151815260200191508051906020019080838360005b838110156113a0578082015181840152602081019050611385565b50505050905090810190601f1680156113cd5780820380516001836020036101000a031916815260200191505b5092505050602060405180830381600087803b15156113eb57600080fd5b6102c65a03f115156113fc57600080fd5b505050604051805190509050919050565b6000806000600160009054906101000a900473ffffffffffffffffffffffffffffffffffffffff1673ffffffffffffffffffffffffffffffffffffffff1614806114815750600061147f600160009054906101000a900473ffffffffffffffffffffffffffffffffffffffff16611953565b145b1561149257611490600061195e565b505b600160009054906101000a900473ffffffffffffffffffffffffffffffffffffffff1673ffffffffffffffffffffffffffffffffffffffff166338cc48316000604051602001526040518163ffffffff167c0100000000000000000000000000000000000000000000000000000000028152600401602060405180830381600087803b151561152057600080fd5b6102c65a03f1151561153157600080fd5b5050506040518051905073ffffffffffffffffffffffffffffffffffffffff16600260009054906101000a900473ffffffffffffffffffffffffffffffffffffffff1673ffffffffffffffffffffffffffffffffffffffff1614151561167b57600160009054906101000a900473ffffffffffffffffffffffffffffffffffffffff1673ffffffffffffffffffffffffffffffffffffffff166338cc48316000604051602001526040518163ffffffff167c0100000000000000000000000000000000000000000000000000000000028152600401602060405180830381600087803b151561161f57600080fd5b6102c65a03f1151561163057600080fd5b50505060405180519050600260006101000a81548173ffffffffffffffffffffffffffffffffffffffff021916908373ffffffffffffffffffffffffffffffffffffffff1602179055505b600260009054906101000a900473ffffffffffffffffffffffffffffffffffffffff1673ffffffffffffffffffffffffffffffffffffffff1663524f3889856000604051602001526040518263ffffffff167c01000000000000000000000000000000000000000000000000000000000281526004018080602001828103825283818151815260200191508051906020019080838360005b8381101561172e578082015181840152602081019050611713565b50505050905090810190601f16801561175b5780820380516001836020036101000a031916815260200191505b5092505050602060405180830381600087803b151561177957600080fd5b6102c65a03f1151561178a57600080fd5b50505060405180519050905062030d403a02670de0b6b3a7640000018111156117b9576000600102915061194b565b600260009054906101000a900473ffffffffffffffffffffffffffffffffffffffff1673ffffffffffffffffffffffffffffffffffffffff1663adf59f99828787876000604051602001526040518563ffffffff167c0100000000000000000000000000000000000000000000000000000000028152600401808481526020018060200180602001838103835285818151815260200191508051906020019080838360005b8381101561187957808201518184015260208101905061185e565b50505050905090810190601f1680156118a65780820380516001836020036101000a031916815260200191505b50838103825284818151815260200191508051906020019080838360005b838110156118df5780820151818401526020810190506118c4565b50505050905090810190601f16801561190c5780820380516001836020036101000a031916815260200191505b50955050505050506020604051808303818588803b151561192c57600080fd5b6125ee5a03f1151561193d57600080fd5b505050506040518051905091505b509392505050565b6000813b9050919050565b60008061197e731d3b2638a7cc9f2cb3d298a3da7a90b67e5506ed611953565b1115611a2057731d3b2638a7cc9f2cb3d298a3da7a90b67e5506ed600160006101000a81548173ffffffffffffffffffffffffffffffffffffffff021916908373ffffffffffffffffffffffffffffffffffffffff160217905550611a176040805190810160405280600b81526020017f6574685f6d61696e6e6574000000000000000000000000000000000000000000815250611df6565b60019050611df1565b6000611a3f73c03a2615d5efaf5f49f60b7bb6583eaec212fdf1611953565b1115611ae15773c03a2615d5efaf5f49f60b7bb6583eaec212fdf1600160006101000a81548173ffffffffffffffffffffffffffffffffffffffff021916908373ffffffffffffffffffffffffffffffffffffffff160217905550611ad86040805190810160405280600c81526020017f6574685f726f707374656e330000000000000000000000000000000000000000815250611df6565b60019050611df1565b6000611b0073b7a07bcf2ba2f2703b24c0691b5278999c59ac7e611953565b1115611ba25773b7a07bcf2ba2f2703b24c0691b5278999c59ac7e600160006101000a81548173ffffffffffffffffffffffffffffffffffffffff021916908373ffffffffffffffffffffffffffffffffffffffff160217905550611b996040805190810160405280600981526020017f6574685f6b6f76616e0000000000000000000000000000000000000000000000815250611df6565b60019050611df1565b6000611bc173146500cfd35b22e4a392fe0adc06de1a1368ed48611953565b1115611c635773146500cfd35b22e4a392fe0adc06de1a1368ed48600160006101000a81548173ffffffffffffffffffffffffffffffffffffffff021916908373ffffffffffffffffffffffffffffffffffffffff160217905550611c5a6040805190810160405280600b81526020017f6574685f72696e6b656279000000000000000000000000000000000000000000815250611df6565b60019050611df1565b6000611c82736f485c8bf6fc43ea212e93bbf8ce046c7f1cb475611953565b1115611ce657736f485c8bf6fc43ea212e93bbf8ce046c7f1cb475600160006101000a81548173ffffffffffffffffffffffffffffffffffffffff021916908373ffffffffffffffffffffffffffffffffffffffff16021790555060019050611df1565b6000611d057320e12a1f859b3feae5fb2a0a32c18f5a65555bbf611953565b1115611d69577320e12a1f859b3feae5fb2a0a32c18f5a65555bbf600160006101000a81548173ffffffffffffffffffffffffffffffffffffffff021916908373ffffffffffffffffffffffffffffffffffffffff16021790555060019050611df1565b6000611d887351efaf4c8b3c9afbd5ab9f4bbc82784ab6ef8faa611953565b1115611dec577351efaf4c8b3c9afbd5ab9f4bbc82784ab6ef8faa600160006101000a81548173ffffffffffffffffffffffffffffffffffffffff021916908373ffffffffffffffffffffffffffffffffffffffff16021790555060019050611df1565b600090505b919050565b8060039080519060200190611e0c929190611e10565b5050565b828054600181600116156101000203166002900490600052602060002090601f016020900481019282601f10611e5157805160ff1916838001178555611e7f565b82800160010185558215611e7f579182015b82811115611e7e578251825591602001919060010190611e63565b5b509050611e8c9190611ed0565b5090565b815481835581811511611eb757818360005260206000209182019101611eb69190611ef5565b5b505050565b602060405190810160405280600081525090565b611ef291905b80821115611eee576000816000905550600101611ed6565b5090565b90565b611f1e91905b80821115611f1a5760008181611f119190611f21565b50600101611efb565b5090565b90565b50805460018160011615610100020316600290046000825580601f10611f475750611f66565b601f016020900490600052602060002090810190611f659190611ed0565b5b50565b6000600160009054906101000a900473ffffffffffffffffffffffffffffffffffffffff1673ffffffffffffffffffffffffffffffffffffffff161480611fda57506000611fd8600160009054906101000a900473ffffffffffffffffffffffffffffffffffffffff16611953565b145b15611feb57611fe9600061195e565b505b600160009054906101000a900473ffffffffffffffffffffffffffffffffffffffff1673ffffffffffffffffffffffffffffffffffffffff166338cc48316000604051602001526040518163ffffffff167c0100000000000000000000000000000000000000000000000000000000028152600401602060405180830381600087803b151561207957600080fd5b6102c65a03f1151561208a57600080fd5b5050506040518051905073ffffffffffffffffffffffffffffffffffffffff16600260009054906101000a900473ffffffffffffffffffffffffffffffffffffffff1673ffffffffffffffffffffffffffffffffffffffff161415156121d457600160009054906101000a900473ffffffffffffffffffffffffffffffffffffffff1673ffffffffffffffffffffffffffffffffffffffff166338cc48316000604051602001526040518163ffffffff167c0100000000000000000000000000000000000000000000000000000000028152600401602060405180830381600087803b151561217857600080fd5b6102c65a03f1151561218957600080fd5b50505060405180519050600260006101000a81548173ffffffffffffffffffffffffffffffffffffffff021916908373ffffffffffffffffffffffffffffffffffffffff1602179055505b600260009054906101000a900473ffffffffffffffffffffffffffffffffffffffff1673ffffffffffffffffffffffffffffffffffffffff1663688dcfd7826040518263ffffffff167c010000000000000000000000000000000000000000000000000000000002815260040180827effffffffffffffffffffffffffffffffffffffffffffffffffffffffffffff19167effffffffffffffffffffffffffffffffffffffffffffffffffffffffffffff19168152602001915050600060405180830381600087803b15156122a857600080fd5b6102c65a03f115156122b957600080fd5b505050505600a165627a7a72305820c3972367ccb0357e22d679bb72d9628e4295a72531d38d2eb89a6cac7b29ce4e0029",
  "source": "pragma solidity ^0.4.18;\r\n\r\nimport \"./Owner.sol\";\r\nimport \"./usingOraclize.sol\";\r\n\r\ncontract BitcoinRate is Owner, usingOraclize {\r\n\r\n    string[] subscribers;\r\n\r\n    string currentPriceBitcoin = \"\";\r\n\r\n    ufixed test;\r\n\r\n    mapping(bytes32 => bool) validIds;\r\n\r\n    function() payable {\r\n\r\n    }\r\n\r\n    event newBitcoinPrice(string price);\r\n\r\n    event newOraclizeQuery(string msg);\r\n\r\n    event newBTCPrice(string msg, string email);\r\n\r\n\r\n    function BitcoinRate() {\r\n        //oraclize_setProof(proofType_Ledger);\r\n        oraclize_setProof(proofType_TLSNotary | proofStorage_IPFS);\r\n        updatePrice();\r\n    }\r\n\r\n    function registerNewSubscriber(string email) public {\r\n        subscribers.push(email);\r\n    }\r\n\r\n\r\n    function contribute() public payable {\r\n        newOraclizeQuery(\"new balance\");\r\n    }\r\n\r\n    function getBalance() public view returns (uint){\r\n        return this.balance;\r\n    }\r\n\r\n    function getBTC() public view returns (string){\r\n        return currentPriceBitcoin;\r\n    }\r\n\r\n    function getAllSubscribers() public {\r\n        newBTCPrice(\"test1\", \"test2\");\r\n        for (uint i = 0; i <= subscribers.length; i++) {\r\n            newBTCPrice(subscribers[i], currentPriceBitcoin);\r\n        }\r\n    }\r\n\r\n    function updatePrice() public payable {\r\n        if (oraclize_getPrice(\"URL\") > this.balance) {\r\n            newOraclizeQuery(\"Oraclize query was NOT sent, please add some ETH to cover for the query fee\");\r\n        } else {\r\n            newOraclizeQuery(\"Oraclize query was sent, standing by for the answer..\");\r\n            bytes32 queryId = oraclize_query(60, \"URL\", \"https://api.coindesk.com/v1/bpi/currentprice.json).bpi.USD.rate\");\r\n            validIds[queryId] = true;\r\n        }\r\n    }\r\n\r\n    function __callback(bytes32 myid, string result) public {\r\n        require(validIds[myid]);\r\n        require(msg.sender == oraclize_cbAddress());\r\n        if (biggest(result, currentPriceBitcoin)) {\r\n            currentPriceBitcoin = result;\r\n            newBitcoinPrice(result);\r\n        }\r\n        delete validIds[myid];\r\n        updatePrice();\r\n    }\r\n\r\n    function biggest(string result1, string result2) public returns (bool biggest) {\r\n        return true;\r\n    }\r\n\r\n\r\n    function close() public onlyOwner {\r\n        selfdestruct(owner);\r\n    }\r\n}\r\n\r\n",
  "sourcePath": "C:\\BlockChain\\bitcoin_rate_in_a_week\\contracts\\BitcoinRate.sol",
  "compiler": {
    "name": "solc",
    "version": "0.4.18+commit.9cf6e910.Emscripten.clang"
  },
  "schemaVersion": "1.0.1",
  "updatedAt": "2017-12-10T19:31:48.777Z"
}