{
  "contractName": "BitcoinRate",
  "abi": [
    {
      "constant": true,
      "inputs": [],
      "name": "getBalance",
      "outputs": [
        {
          "name": "",
          "type": "uint256"
        }
      ],
      "payable": false,
      "stateMutability": "view",
      "type": "function"
    },
    {
      "constant": false,
      "inputs": [
        {
          "name": "myid",
          "type": "bytes32"
        },
        {
          "name": "result",
          "type": "string"
        }
      ],
      "name": "__callback",
      "outputs": [],
      "payable": false,
      "stateMutability": "nonpayable",
      "type": "function"
    },
    {
      "constant": false,
      "inputs": [
        {
          "name": "myid",
          "type": "bytes32"
        },
        {
          "name": "result",
          "type": "string"
        },
        {
          "name": "proof",
          "type": "bytes"
        }
      ],
      "name": "__callback",
      "outputs": [],
      "payable": false,
      "stateMutability": "nonpayable",
      "type": "function"
    },
    {
      "constant": false,
      "inputs": [
        {
          "name": "result1",
          "type": "string"
        },
        {
          "name": "result2",
          "type": "string"
        }
      ],
      "name": "compare",
      "outputs": [
        {
          "name": "biggest",
          "type": "bool"
        }
      ],
      "payable": false,
      "stateMutability": "nonpayable",
      "type": "function"
    },
    {
      "constant": false,
      "inputs": [
        {
          "name": "email",
          "type": "string"
        }
      ],
      "name": "registerNewSubscriber",
      "outputs": [],
      "payable": false,
      "stateMutability": "nonpayable",
      "type": "function"
    },
    {
      "constant": false,
      "inputs": [],
      "name": "close",
      "outputs": [],
      "payable": false,
      "stateMutability": "nonpayable",
      "type": "function"
    },
    {
      "constant": false,
      "inputs": [],
      "name": "updatePrice",
      "outputs": [],
      "payable": true,
      "stateMutability": "payable",
      "type": "function"
    },
    {
      "constant": true,
      "inputs": [
        {
          "name": "newOwner",
          "type": "address"
        }
      ],
      "name": "getBTC",
      "outputs": [
        {
          "name": "",
          "type": "string"
        }
      ],
      "payable": false,
      "stateMutability": "view",
      "type": "function"
    },
    {
      "inputs": [
        {
          "name": "newOwner",
          "type": "address"
        }
      ],
      "payable": false,
      "stateMutability": "nonpayable",
      "type": "function",
      "constant": false,
      "name": "transferOwnership",
      "outputs": []
    },
    {
      "anonymous": false,
      "inputs": [
        {
          "indexed": false,
          "name": "price",
          "type": "string"
        }
      ],
      "name": "newBitcoinPrice",
      "type": "constructor",
      "payable": false,
      "stateMutability": "nonpayable"
    },
    {
      "anonymous": false,
      "inputs": [
        {
          "indexed": false,
          "name": "price",
          "type": "string"
        }
      ],
      "name": "newBitcoinPrice",
      "type": "event"
    },
    {
      "anonymous": false,
      "inputs": [
        {
          "indexed": false,
          "name": "msg",
          "type": "string"
        }
      ],
      "name": "newOraclizeQuery",
      "type": "event"
    },
    {
      "anonymous": false,
      "inputs": [
        {
          "indexed": false,
          "name": "msg",
          "type": "string"
        },
        {
          "indexed": false,
          "name": "email",
          "type": "string"
        }
      ],
      "name": "newBTCPrice",
      "type": "event"
    }
  ],
  "bytecode": "0x606060405234156200001057600080fd5b336000806101000a81548173ffffffffffffffffffffffffffffffffffffffff021916908373ffffffffffffffffffffffffffffffffffffffff160217905550620000b760017f01000000000000000000000000000000000000000000000000000000000000000260107f01000000000000000000000000000000000000000000000000000000000000000217620000db6401000000000262001c22176401000000009004565b620000d56200046664010000000002620006fe176401000000009004565b620016ca565b6000600160009054906101000a900473ffffffffffffffffffffffffffffffffffffffff1673ffffffffffffffffffffffffffffffffffffffff161480620001635750600062000161600160009054906101000a900473ffffffffffffffffffffffffffffffffffffffff166200071064010000000002620016ac176401000000009004565b145b156200018b576200018960006200071b64010000000002620016b7176401000000009004565b505b600160009054906101000a900473ffffffffffffffffffffffffffffffffffffffff1673ffffffffffffffffffffffffffffffffffffffff166338cc48316000604051602001526040518163ffffffff167c0100000000000000000000000000000000000000000000000000000000028152600401602060405180830381600087803b15156200021a57600080fd5b6102c65a03f115156200022c57600080fd5b5050506040518051905073ffffffffffffffffffffffffffffffffffffffff16600260009054906101000a900473ffffffffffffffffffffffffffffffffffffffff1673ffffffffffffffffffffffffffffffffffffffff161415156200037957600160009054906101000a900473ffffffffffffffffffffffffffffffffffffffff1673ffffffffffffffffffffffffffffffffffffffff166338cc48316000604051602001526040518163ffffffff167c0100000000000000000000000000000000000000000000000000000000028152600401602060405180830381600087803b15156200031c57600080fd5b6102c65a03f115156200032e57600080fd5b50505060405180519050600260006101000a81548173ffffffffffffffffffffffffffffffffffffffff021916908373ffffffffffffffffffffffffffffffffffffffff1602179055505b600260009054906101000a900473ffffffffffffffffffffffffffffffffffffffff1673ffffffffffffffffffffffffffffffffffffffff1663688dcfd7826040518263ffffffff167c010000000000000000000000000000000000000000000000000000000002815260040180827effffffffffffffffffffffffffffffffffffffffffffffffffffffffffffff19167effffffffffffffffffffffffffffffffffffffffffffffffffffffffffffff19168152602001915050600060405180830381600087803b15156200044e57600080fd5b6102c65a03f115156200046057600080fd5b50505050565b60003073ffffffffffffffffffffffffffffffffffffffff1631620004d46040805190810160405280600381526020017f55524c000000000000000000000000000000000000000000000000000000000081525062000cb36401000000000262000dda176401000000009004565b111562000595577f46cb989ef9cef13e930e3b7f286225a086e716a90d63e0b7da85d310a9db0c9a60405180806020018281038252604b8152602001807f4f7261636c697a6520717565727920776173204e4f542073656e742c20706c6581526020017f6173652061646420736f6d652045544820746f20636f76657220666f7220746881526020017f652071756572792066656500000000000000000000000000000000000000000081525060600191505060405180910390a16200070d565b7f46cb989ef9cef13e930e3b7f286225a086e716a90d63e0b7da85d310a9db0c9a6040518080602001828103825260358152602001807f4f7261636c697a65207175657279207761732073656e742c207374616e64696e81526020017f6720627920666f722074686520616e737765722e2e000000000000000000000081525060400191505060405180910390a1620006d6603c6040805190810160405280600381526020017f55524c0000000000000000000000000000000000000000000000000000000000815250606060405190810160405280603f81526020017f68747470733a2f2f6170692e636f696e6465736b2e636f6d2f76312f6270692f81526020017f63757272656e7470726963652e6a736f6e292e6270692e5553442e7261746500815250620010776401000000000262001166176401000000009004565b9050600160096000836000191660001916815260200190815260200160002060006101000a81548160ff0219169083151502179055505b50565b6000813b9050919050565b60008062000751731d3b2638a7cc9f2cb3d298a3da7a90b67e5506ed6200071064010000000002620016ac176401000000009004565b11156200080b57731d3b2638a7cc9f2cb3d298a3da7a90b67e5506ed600160006101000a81548173ffffffffffffffffffffffffffffffffffffffff021916908373ffffffffffffffffffffffffffffffffffffffff160217905550620008016040805190810160405280600b81526020017f6574685f6d61696e6e6574000000000000000000000000000000000000000000815250620015ff6401000000000262001b4f176401000000009004565b6001905062000cae565b60006200084073c03a2615d5efaf5f49f60b7bb6583eaec212fdf16200071064010000000002620016ac176401000000009004565b1115620008fa5773c03a2615d5efaf5f49f60b7bb6583eaec212fdf1600160006101000a81548173ffffffffffffffffffffffffffffffffffffffff021916908373ffffffffffffffffffffffffffffffffffffffff160217905550620008f06040805190810160405280600c81526020017f6574685f726f707374656e330000000000000000000000000000000000000000815250620015ff6401000000000262001b4f176401000000009004565b6001905062000cae565b60006200092f73b7a07bcf2ba2f2703b24c0691b5278999c59ac7e6200071064010000000002620016ac176401000000009004565b1115620009e95773b7a07bcf2ba2f2703b24c0691b5278999c59ac7e600160006101000a81548173ffffffffffffffffffffffffffffffffffffffff021916908373ffffffffffffffffffffffffffffffffffffffff160217905550620009df6040805190810160405280600981526020017f6574685f6b6f76616e0000000000000000000000000000000000000000000000815250620015ff6401000000000262001b4f176401000000009004565b6001905062000cae565b600062000a1e73146500cfd35b22e4a392fe0adc06de1a1368ed486200071064010000000002620016ac176401000000009004565b111562000ad85773146500cfd35b22e4a392fe0adc06de1a1368ed48600160006101000a81548173ffffffffffffffffffffffffffffffffffffffff021916908373ffffffffffffffffffffffffffffffffffffffff16021790555062000ace6040805190810160405280600b81526020017f6574685f72696e6b656279000000000000000000000000000000000000000000815250620015ff6401000000000262001b4f176401000000009004565b6001905062000cae565b600062000b0d736f485c8bf6fc43ea212e93bbf8ce046c7f1cb4756200071064010000000002620016ac176401000000009004565b111562000b7357736f485c8bf6fc43ea212e93bbf8ce046c7f1cb475600160006101000a81548173ffffffffffffffffffffffffffffffffffffffff021916908373ffffffffffffffffffffffffffffffffffffffff1602179055506001905062000cae565b600062000ba87320e12a1f859b3feae5fb2a0a32c18f5a65555bbf6200071064010000000002620016ac176401000000009004565b111562000c0e577320e12a1f859b3feae5fb2a0a32c18f5a65555bbf600160006101000a81548173ffffffffffffffffffffffffffffffffffffffff021916908373ffffffffffffffffffffffffffffffffffffffff1602179055506001905062000cae565b600062000c437351efaf4c8b3c9afbd5ab9f4bbc82784ab6ef8faa6200071064010000000002620016ac176401000000009004565b111562000ca9577351efaf4c8b3c9afbd5ab9f4bbc82784ab6ef8faa600160006101000a81548173ffffffffffffffffffffffffffffffffffffffff021916908373ffffffffffffffffffffffffffffffffffffffff1602179055506001905062000cae565b600090505b919050565b600080600160009054906101000a900473ffffffffffffffffffffffffffffffffffffffff1673ffffffffffffffffffffffffffffffffffffffff16148062000d3c5750600062000d3a600160009054906101000a900473ffffffffffffffffffffffffffffffffffffffff166200071064010000000002620016ac176401000000009004565b145b1562000d645762000d6260006200071b64010000000002620016b7176401000000009004565b505b600160009054906101000a900473ffffffffffffffffffffffffffffffffffffffff1673ffffffffffffffffffffffffffffffffffffffff166338cc48316000604051602001526040518163ffffffff167c0100000000000000000000000000000000000000000000000000000000028152600401602060405180830381600087803b151562000df357600080fd5b6102c65a03f1151562000e0557600080fd5b5050506040518051905073ffffffffffffffffffffffffffffffffffffffff16600260009054906101000a900473ffffffffffffffffffffffffffffffffffffffff1673ffffffffffffffffffffffffffffffffffffffff1614151562000f5257600160009054906101000a900473ffffffffffffffffffffffffffffffffffffffff1673ffffffffffffffffffffffffffffffffffffffff166338cc48316000604051602001526040518163ffffffff167c0100000000000000000000000000000000000000000000000000000000028152600401602060405180830381600087803b151562000ef557600080fd5b6102c65a03f1151562000f0757600080fd5b50505060405180519050600260006101000a81548173ffffffffffffffffffffffffffffffffffffffff021916908373ffffffffffffffffffffffffffffffffffffffff1602179055505b600260009054906101000a900473ffffffffffffffffffffffffffffffffffffffff1673ffffffffffffffffffffffffffffffffffffffff1663524f3889836000604051602001526040518263ffffffff167c01000000000000000000000000000000000000000000000000000000000281526004018080602001828103825283818151815260200191508051906020019080838360005b838110156200100757808201518184015260208101905062000fea565b50505050905090810190601f168015620010355780820380516001836020036101000a031916815260200191505b5092505050602060405180830381600087803b15156200105457600080fd5b6102c65a03f115156200106657600080fd5b505050604051805190509050919050565b6000806000600160009054906101000a900473ffffffffffffffffffffffffffffffffffffffff1673ffffffffffffffffffffffffffffffffffffffff161480620011025750600062001100600160009054906101000a900473ffffffffffffffffffffffffffffffffffffffff166200071064010000000002620016ac176401000000009004565b145b156200112a576200112860006200071b64010000000002620016b7176401000000009004565b505b600160009054906101000a900473ffffffffffffffffffffffffffffffffffffffff1673ffffffffffffffffffffffffffffffffffffffff166338cc48316000604051602001526040518163ffffffff167c0100000000000000000000000000000000000000000000000000000000028152600401602060405180830381600087803b1515620011b957600080fd5b6102c65a03f11515620011cb57600080fd5b5050506040518051905073ffffffffffffffffffffffffffffffffffffffff16600260009054906101000a900473ffffffffffffffffffffffffffffffffffffffff1673ffffffffffffffffffffffffffffffffffffffff161415156200131857600160009054906101000a900473ffffffffffffffffffffffffffffffffffffffff1673ffffffffffffffffffffffffffffffffffffffff166338cc48316000604051602001526040518163ffffffff167c0100000000000000000000000000000000000000000000000000000000028152600401602060405180830381600087803b1515620012bb57600080fd5b6102c65a03f11515620012cd57600080fd5b50505060405180519050600260006101000a81548173ffffffffffffffffffffffffffffffffffffffff021916908373ffffffffffffffffffffffffffffffffffffffff1602179055505b600260009054906101000a900473ffffffffffffffffffffffffffffffffffffffff1673ffffffffffffffffffffffffffffffffffffffff1663524f3889856000604051602001526040518263ffffffff167c01000000000000000000000000000000000000000000000000000000000281526004018080602001828103825283818151815260200191508051906020019080838360005b83811015620013cd578082015181840152602081019050620013b0565b50505050905090810190601f168015620013fb5780820380516001836020036101000a031916815260200191505b5092505050602060405180830381600087803b15156200141a57600080fd5b6102c65a03f115156200142c57600080fd5b50505060405180519050905062030d403a02670de0b6b3a7640000018111156200145d5760006001029150620015f7565b600260009054906101000a900473ffffffffffffffffffffffffffffffffffffffff1673ffffffffffffffffffffffffffffffffffffffff1663adf59f99828787876000604051602001526040518563ffffffff167c0100000000000000000000000000000000000000000000000000000000028152600401808481526020018060200180602001838103835285818151815260200191508051906020019080838360005b838110156200151f57808201518184015260208101905062001502565b50505050905090810190601f1680156200154d5780820380516001836020036101000a031916815260200191505b50838103825284818151815260200191508051906020019080838360005b83811015620015885780820151818401526020810190506200156b565b50505050905090810190601f168015620015b65780820380516001836020036101000a031916815260200191505b50955050505050506020604051808303818588803b1515620015d757600080fd5b6125ee5a03f11515620015e957600080fd5b505050506040518051905091505b509392505050565b8060039080519060200190620016179291906200161b565b5050565b828054600181600116156101000203166002900490600052602060002090601f016020900481019282601f106200165e57805160ff19168380011785556200168f565b828001600101855582156200168f579182015b828111156200168e57825182559160200191906001019062001671565b5b5090506200169e9190620016a2565b5090565b620016c791905b80821115620016c3576000816000905550600101620016a9565b5090565b90565b611fa480620016da6000396000f300606060405260043610610099576000357c0100000000000000000000000000000000000000000000000000000000900463ffffffff16806312065fe01461009e57806327dc297e146100c757806338bbfa50146101315780633a96fdd7146101de57806343a489c51461029657806343d726d6146102f3578063673a7e2814610308578063e62854c714610312578063f2fde38b146103a0575b600080fd5b34156100a957600080fd5b6100b16103d9565b6040518082815260200191505060405180910390f35b34156100d257600080fd5b61012f60048080356000191690602001909190803590602001908201803590602001908080601f016020809104026020016040519081016040528093929190818152602001838380828437820191505050505050919050506103f8565b005b341561013c57600080fd5b6101dc60048080356000191690602001909190803590602001908201803590602001908080601f0160208091040260200160405190810160405280939291908181526020018383808284378201915050505050509190803590602001908201803590602001908080601f01602080910402602001604051908101604052809392919081815260200183838082843782019150505050505091905050610601565b005b34156101e957600080fd5b61027c600480803590602001908201803590602001908080601f0160208091040260200160405190810160405280939291908181526020018383808284378201915050505050509190803590602001908201803590602001908080601f01602080910402602001604051908101604052809392919081815260200183838082843782019150505050505091905050610606565b604051808215151515815260200191505060405180910390f35b34156102a157600080fd5b6102f1600480803590602001908201803590602001908080601f01602080910402602001604051908101604052809392919081815260200183838082843782019150505050505091905050610612565b005b34156102fe57600080fd5b610306610669565b005b6103106106fe565b005b341561031d57600080fd5b61032561097a565b6040518080602001828103825283818151815260200191508051906020019080838360005b8381101561036557808201518184015260208101905061034a565b50505050905090810190601f1680156103925780820380516001836020036101000a031916815260200191505b509250505060405180910390f35b34156103ab57600080fd5b6103d7600480803573ffffffffffffffffffffffffffffffffffffffff16906020019091905050610a22565b005b60003073ffffffffffffffffffffffffffffffffffffffff1631905090565b60096000836000191660001916815260200190815260200160002060009054906101000a900460ff16151561042c57600080fd5b610434610ac0565b73ffffffffffffffffffffffffffffffffffffffff163373ffffffffffffffffffffffffffffffffffffffff1614151561046d57600080fd5b6105118160078054600181600116156101000203166002900480601f0160208091040260200160405190810160405280929190818152602001828054600181600116156101000203166002900480156105075780601f106104dc57610100808354040283529160200191610507565b820191906000526020600020905b8154815290600101906020018083116104ea57829003601f168201915b5050505050610606565b156105ca57806007908051906020019061052c929190611b69565b507f3b7a53cf23b0b81bba2993c806b81e5e956f85245c247c7a3207e40dddc8d0a1816040518080602001828103825283818151815260200191508051906020019080838360005b8381101561058f578082015181840152602081019050610574565b50505050905090810190601f1680156105bc5780820380516001836020036101000a031916815260200191505b509250505060405180910390a15b60096000836000191660001916815260200190815260200160002060006101000a81549060ff02191690556105fd6106fe565b5050565b505050565b60006001905092915050565b80600660003373ffffffffffffffffffffffffffffffffffffffff1673ffffffffffffffffffffffffffffffffffffffff1681526020019081526020016000209080519060200190610665929190611b69565b5050565b6000809054906101000a900473ffffffffffffffffffffffffffffffffffffffff1673ffffffffffffffffffffffffffffffffffffffff163373ffffffffffffffffffffffffffffffffffffffff161415156106c457600080fd5b6000809054906101000a900473ffffffffffffffffffffffffffffffffffffffff1673ffffffffffffffffffffffffffffffffffffffff16ff5b60003073ffffffffffffffffffffffffffffffffffffffff16316107566040805190810160405280600381526020017f55524c0000000000000000000000000000000000000000000000000000000000815250610dda565b1115610815577f46cb989ef9cef13e930e3b7f286225a086e716a90d63e0b7da85d310a9db0c9a60405180806020018281038252604b8152602001807f4f7261636c697a6520717565727920776173204e4f542073656e742c20706c6581526020017f6173652061646420736f6d652045544820746f20636f76657220666f7220746881526020017f652071756572792066656500000000000000000000000000000000000000000081525060600191505060405180910390a1610977565b7f46cb989ef9cef13e930e3b7f286225a086e716a90d63e0b7da85d310a9db0c9a6040518080602001828103825260358152602001807f4f7261636c697a65207175657279207761732073656e742c207374616e64696e81526020017f6720627920666f722074686520616e737765722e2e000000000000000000000081525060400191505060405180910390a1610940603c6040805190810160405280600381526020017f55524c0000000000000000000000000000000000000000000000000000000000815250606060405190810160405280603f81526020017f68747470733a2f2f6170692e636f696e6465736b2e636f6d2f76312f6270692f81526020017f63757272656e7470726963652e6a736f6e292e6270692e5553442e7261746500815250611166565b9050600160096000836000191660001916815260200190815260200160002060006101000a81548160ff0219169083151502179055505b50565b610982611be9565b60078054600181600116156101000203166002900480601f016020809104026020016040519081016040528092919081815260200182805460018160011615610100020316600290048015610a185780601f106109ed57610100808354040283529160200191610a18565b820191906000526020600020905b8154815290600101906020018083116109fb57829003601f168201915b5050505050905090565b6000809054906101000a900473ffffffffffffffffffffffffffffffffffffffff1673ffffffffffffffffffffffffffffffffffffffff163373ffffffffffffffffffffffffffffffffffffffff16141515610a7d57600080fd5b806000806101000a81548173ffffffffffffffffffffffffffffffffffffffff021916908373ffffffffffffffffffffffffffffffffffffffff16021790555050565b600080600160009054906101000a900473ffffffffffffffffffffffffffffffffffffffff1673ffffffffffffffffffffffffffffffffffffffff161480610b3257506000610b30600160009054906101000a900473ffffffffffffffffffffffffffffffffffffffff166116ac565b145b15610b4357610b4160006116b7565b505b600160009054906101000a900473ffffffffffffffffffffffffffffffffffffffff1673ffffffffffffffffffffffffffffffffffffffff166338cc48316000604051602001526040518163ffffffff167c0100000000000000000000000000000000000000000000000000000000028152600401602060405180830381600087803b1515610bd157600080fd5b6102c65a03f11515610be257600080fd5b5050506040518051905073ffffffffffffffffffffffffffffffffffffffff16600260009054906101000a900473ffffffffffffffffffffffffffffffffffffffff1673ffffffffffffffffffffffffffffffffffffffff16141515610d2c57600160009054906101000a900473ffffffffffffffffffffffffffffffffffffffff1673ffffffffffffffffffffffffffffffffffffffff166338cc48316000604051602001526040518163ffffffff167c0100000000000000000000000000000000000000000000000000000000028152600401602060405180830381600087803b1515610cd057600080fd5b6102c65a03f11515610ce157600080fd5b50505060405180519050600260006101000a81548173ffffffffffffffffffffffffffffffffffffffff021916908373ffffffffffffffffffffffffffffffffffffffff1602179055505b600260009054906101000a900473ffffffffffffffffffffffffffffffffffffffff1673ffffffffffffffffffffffffffffffffffffffff1663c281d19e6000604051602001526040518163ffffffff167c0100000000000000000000000000000000000000000000000000000000028152600401602060405180830381600087803b1515610dba57600080fd5b6102c65a03f11515610dcb57600080fd5b50505060405180519050905090565b600080600160009054906101000a900473ffffffffffffffffffffffffffffffffffffffff1673ffffffffffffffffffffffffffffffffffffffff161480610e4c57506000610e4a600160009054906101000a900473ffffffffffffffffffffffffffffffffffffffff166116ac565b145b15610e5d57610e5b60006116b7565b505b600160009054906101000a900473ffffffffffffffffffffffffffffffffffffffff1673ffffffffffffffffffffffffffffffffffffffff166338cc48316000604051602001526040518163ffffffff167c0100000000000000000000000000000000000000000000000000000000028152600401602060405180830381600087803b1515610eeb57600080fd5b6102c65a03f11515610efc57600080fd5b5050506040518051905073ffffffffffffffffffffffffffffffffffffffff16600260009054906101000a900473ffffffffffffffffffffffffffffffffffffffff1673ffffffffffffffffffffffffffffffffffffffff1614151561104657600160009054906101000a900473ffffffffffffffffffffffffffffffffffffffff1673ffffffffffffffffffffffffffffffffffffffff166338cc48316000604051602001526040518163ffffffff167c0100000000000000000000000000000000000000000000000000000000028152600401602060405180830381600087803b1515610fea57600080fd5b6102c65a03f11515610ffb57600080fd5b50505060405180519050600260006101000a81548173ffffffffffffffffffffffffffffffffffffffff021916908373ffffffffffffffffffffffffffffffffffffffff1602179055505b600260009054906101000a900473ffffffffffffffffffffffffffffffffffffffff1673ffffffffffffffffffffffffffffffffffffffff1663524f3889836000604051602001526040518263ffffffff167c01000000000000000000000000000000000000000000000000000000000281526004018080602001828103825283818151815260200191508051906020019080838360005b838110156110f95780820151818401526020810190506110de565b50505050905090810190601f1680156111265780820380516001836020036101000a031916815260200191505b5092505050602060405180830381600087803b151561114457600080fd5b6102c65a03f1151561115557600080fd5b505050604051805190509050919050565b6000806000600160009054906101000a900473ffffffffffffffffffffffffffffffffffffffff1673ffffffffffffffffffffffffffffffffffffffff1614806111da575060006111d8600160009054906101000a900473ffffffffffffffffffffffffffffffffffffffff166116ac565b145b156111eb576111e960006116b7565b505b600160009054906101000a900473ffffffffffffffffffffffffffffffffffffffff1673ffffffffffffffffffffffffffffffffffffffff166338cc48316000604051602001526040518163ffffffff167c0100000000000000000000000000000000000000000000000000000000028152600401602060405180830381600087803b151561127957600080fd5b6102c65a03f1151561128a57600080fd5b5050506040518051905073ffffffffffffffffffffffffffffffffffffffff16600260009054906101000a900473ffffffffffffffffffffffffffffffffffffffff1673ffffffffffffffffffffffffffffffffffffffff161415156113d457600160009054906101000a900473ffffffffffffffffffffffffffffffffffffffff1673ffffffffffffffffffffffffffffffffffffffff166338cc48316000604051602001526040518163ffffffff167c0100000000000000000000000000000000000000000000000000000000028152600401602060405180830381600087803b151561137857600080fd5b6102c65a03f1151561138957600080fd5b50505060405180519050600260006101000a81548173ffffffffffffffffffffffffffffffffffffffff021916908373ffffffffffffffffffffffffffffffffffffffff1602179055505b600260009054906101000a900473ffffffffffffffffffffffffffffffffffffffff1673ffffffffffffffffffffffffffffffffffffffff1663524f3889856000604051602001526040518263ffffffff167c01000000000000000000000000000000000000000000000000000000000281526004018080602001828103825283818151815260200191508051906020019080838360005b8381101561148757808201518184015260208101905061146c565b50505050905090810190601f1680156114b45780820380516001836020036101000a031916815260200191505b5092505050602060405180830381600087803b15156114d257600080fd5b6102c65a03f115156114e357600080fd5b50505060405180519050905062030d403a02670de0b6b3a76400000181111561151257600060010291506116a4565b600260009054906101000a900473ffffffffffffffffffffffffffffffffffffffff1673ffffffffffffffffffffffffffffffffffffffff1663adf59f99828787876000604051602001526040518563ffffffff167c0100000000000000000000000000000000000000000000000000000000028152600401808481526020018060200180602001838103835285818151815260200191508051906020019080838360005b838110156115d25780820151818401526020810190506115b7565b50505050905090810190601f1680156115ff5780820380516001836020036101000a031916815260200191505b50838103825284818151815260200191508051906020019080838360005b8381101561163857808201518184015260208101905061161d565b50505050905090810190601f1680156116655780820380516001836020036101000a031916815260200191505b50955050505050506020604051808303818588803b151561168557600080fd5b6125ee5a03f1151561169657600080fd5b505050506040518051905091505b509392505050565b6000813b9050919050565b6000806116d7731d3b2638a7cc9f2cb3d298a3da7a90b67e5506ed6116ac565b111561177957731d3b2638a7cc9f2cb3d298a3da7a90b67e5506ed600160006101000a81548173ffffffffffffffffffffffffffffffffffffffff021916908373ffffffffffffffffffffffffffffffffffffffff1602179055506117706040805190810160405280600b81526020017f6574685f6d61696e6e6574000000000000000000000000000000000000000000815250611b4f565b60019050611b4a565b600061179873c03a2615d5efaf5f49f60b7bb6583eaec212fdf16116ac565b111561183a5773c03a2615d5efaf5f49f60b7bb6583eaec212fdf1600160006101000a81548173ffffffffffffffffffffffffffffffffffffffff021916908373ffffffffffffffffffffffffffffffffffffffff1602179055506118316040805190810160405280600c81526020017f6574685f726f707374656e330000000000000000000000000000000000000000815250611b4f565b60019050611b4a565b600061185973b7a07bcf2ba2f2703b24c0691b5278999c59ac7e6116ac565b11156118fb5773b7a07bcf2ba2f2703b24c0691b5278999c59ac7e600160006101000a81548173ffffffffffffffffffffffffffffffffffffffff021916908373ffffffffffffffffffffffffffffffffffffffff1602179055506118f26040805190810160405280600981526020017f6574685f6b6f76616e0000000000000000000000000000000000000000000000815250611b4f565b60019050611b4a565b600061191a73146500cfd35b22e4a392fe0adc06de1a1368ed486116ac565b11156119bc5773146500cfd35b22e4a392fe0adc06de1a1368ed48600160006101000a81548173ffffffffffffffffffffffffffffffffffffffff021916908373ffffffffffffffffffffffffffffffffffffffff1602179055506119b36040805190810160405280600b81526020017f6574685f72696e6b656279000000000000000000000000000000000000000000815250611b4f565b60019050611b4a565b60006119db736f485c8bf6fc43ea212e93bbf8ce046c7f1cb4756116ac565b1115611a3f57736f485c8bf6fc43ea212e93bbf8ce046c7f1cb475600160006101000a81548173ffffffffffffffffffffffffffffffffffffffff021916908373ffffffffffffffffffffffffffffffffffffffff16021790555060019050611b4a565b6000611a5e7320e12a1f859b3feae5fb2a0a32c18f5a65555bbf6116ac565b1115611ac2577320e12a1f859b3feae5fb2a0a32c18f5a65555bbf600160006101000a81548173ffffffffffffffffffffffffffffffffffffffff021916908373ffffffffffffffffffffffffffffffffffffffff16021790555060019050611b4a565b6000611ae17351efaf4c8b3c9afbd5ab9f4bbc82784ab6ef8faa6116ac565b1115611b45577351efaf4c8b3c9afbd5ab9f4bbc82784ab6ef8faa600160006101000a81548173ffffffffffffffffffffffffffffffffffffffff021916908373ffffffffffffffffffffffffffffffffffffffff16021790555060019050611b4a565b600090505b919050565b8060039080519060200190611b65929190611b69565b5050565b828054600181600116156101000203166002900490600052602060002090601f016020900481019282601f10611baa57805160ff1916838001178555611bd8565b82800160010185558215611bd8579182015b82811115611bd7578251825591602001919060010190611bbc565b5b509050611be59190611bfd565b5090565b602060405190810160405280600081525090565b611c1f91905b80821115611c1b576000816000905550600101611c03565b5090565b90565b6000600160009054906101000a900473ffffffffffffffffffffffffffffffffffffffff1673ffffffffffffffffffffffffffffffffffffffff161480611c9357506000611c91600160009054906101000a900473ffffffffffffffffffffffffffffffffffffffff166116ac565b145b15611ca457611ca260006116b7565b505b600160009054906101000a900473ffffffffffffffffffffffffffffffffffffffff1673ffffffffffffffffffffffffffffffffffffffff166338cc48316000604051602001526040518163ffffffff167c0100000000000000000000000000000000000000000000000000000000028152600401602060405180830381600087803b1515611d3257600080fd5b6102c65a03f11515611d4357600080fd5b5050506040518051905073ffffffffffffffffffffffffffffffffffffffff16600260009054906101000a900473ffffffffffffffffffffffffffffffffffffffff1673ffffffffffffffffffffffffffffffffffffffff16141515611e8d57600160009054906101000a900473ffffffffffffffffffffffffffffffffffffffff1673ffffffffffffffffffffffffffffffffffffffff166338cc48316000604051602001526040518163ffffffff167c0100000000000000000000000000000000000000000000000000000000028152600401602060405180830381600087803b1515611e3157600080fd5b6102c65a03f11515611e4257600080fd5b50505060405180519050600260006101000a81548173ffffffffffffffffffffffffffffffffffffffff021916908373ffffffffffffffffffffffffffffffffffffffff1602179055505b600260009054906101000a900473ffffffffffffffffffffffffffffffffffffffff1673ffffffffffffffffffffffffffffffffffffffff1663688dcfd7826040518263ffffffff167c010000000000000000000000000000000000000000000000000000000002815260040180827effffffffffffffffffffffffffffffffffffffffffffffffffffffffffffff19167effffffffffffffffffffffffffffffffffffffffffffffffffffffffffffff19168152602001915050600060405180830381600087803b1515611f6157600080fd5b6102c65a03f11515611f7257600080fd5b505050505600a165627a7a72305820d573702f0d50b7f69012626506aa15d32e75d3720fabc68e4d81c0709f398f3a0029",
  "source": "pragma solidity ^0.4.18;\r\n\r\nimport \"./Owner.sol\";\r\nimport \"./usingOraclize.sol\";\r\n\r\ncontract BitcoinRate is Owner, usingOraclize {\r\n\r\n\r\n    mapping(address => string) subscribers;\r\n\r\n    string currentPriceBitcoin;\r\n\r\n    ufixed test;\r\n\r\n    mapping(bytes32 => bool) validIds;\r\n\r\n\r\n    event newBitcoinPrice(string price);\r\n\r\n    event newOraclizeQuery(string msg);\r\n\r\n    event newBTCPrice(string msg, string email);\r\n\r\n\r\n    function BitcoinRate() {\r\n        //oraclize_setProof(proofType_Ledger);\r\n        oraclize_setProof(proofType_TLSNotary | proofStorage_IPFS);\r\n        updatePrice();\r\n    }\r\n\r\n    function registerNewSubscriber(string email) public {\r\n        subscribers[msg.sender] = email;\r\n    }\r\n\r\n\r\n    function getBalance() public view returns (uint){\r\n        return this.balance;\r\n    }\r\n\r\n    function getBTC() public view returns (string){\r\n        return currentPriceBitcoin;\r\n    }\r\n\r\n    function updatePrice() public payable {\r\n        if (oraclize_getPrice(\"URL\") > this.balance) {\r\n            newOraclizeQuery(\"Oraclize query was NOT sent, please add some ETH to cover for the query fee\");\r\n        } else {\r\n            newOraclizeQuery(\"Oraclize query was sent, standing by for the answer..\");\r\n            bytes32 queryId = oraclize_query(60, \"URL\", \"https://api.coindesk.com/v1/bpi/currentprice.json).bpi.USD.rate\");\r\n            validIds[queryId] = true;\r\n        }\r\n    }\r\n\r\n    function __callback(bytes32 myid, string result) public {\r\n        require(validIds[myid]);\r\n        require(msg.sender == oraclize_cbAddress());\r\n        if (compare(result, currentPriceBitcoin)) {\r\n            currentPriceBitcoin = result;\r\n            newBitcoinPrice(result);\r\n        }\r\n        delete validIds[myid];\r\n        updatePrice();\r\n    }\r\n\r\n    function compare(string result1, string result2) public returns (bool biggest) {\r\n        return true;\r\n    }\r\n\r\n\r\n    function close() public onlyOwner {\r\n        selfdestruct(owner);\r\n    }\r\n}\r\n\r\n",
  "sourcePath": "C:\\BlockChain\\bitcoin_rate_in_a_week\\contracts\\BitcoinRate.sol",
  "compiler": {
    "name": "solc",
    "version": "0.4.18+commit.9cf6e910.Emscripten.clang"
  },
  "schemaVersion": "1.0.1",
  "updatedAt": "2017-12-10T18:10:01.672Z"
}