{
  "contractName": "BitcoinRate",
  "abi": [
    {
      "constant": true,
      "inputs": [],
      "name": "getBalance",
      "outputs": [
        {
          "name": "",
          "type": "uint256"
        }
      ],
      "payable": false,
      "stateMutability": "view",
      "type": "function"
    },
    {
      "constant": false,
      "inputs": [
        {
          "name": "myid",
          "type": "bytes32"
        },
        {
          "name": "result",
          "type": "string"
        }
      ],
      "name": "__callback",
      "outputs": [],
      "payable": false,
      "stateMutability": "nonpayable",
      "type": "function"
    },
    {
      "constant": false,
      "inputs": [
        {
          "name": "myid",
          "type": "bytes32"
        },
        {
          "name": "result",
          "type": "string"
        },
        {
          "name": "proof",
          "type": "bytes"
        }
      ],
      "name": "__callback",
      "outputs": [],
      "payable": false,
      "stateMutability": "nonpayable",
      "type": "function"
    },
    {
      "constant": false,
      "inputs": [
        {
          "name": "email",
          "type": "string"
        }
      ],
      "name": "registerNewSubscriber",
      "outputs": [],
      "payable": true,
      "stateMutability": "payable",
      "type": "function"
    },
    {
      "constant": false,
      "inputs": [],
      "name": "close",
      "outputs": [],
      "payable": false,
      "stateMutability": "nonpayable",
      "type": "function"
    },
    {
      "constant": false,
      "inputs": [],
      "name": "updatePrice",
      "outputs": [],
      "payable": true,
      "stateMutability": "payable",
      "type": "function"
    },
    {
      "constant": false,
      "inputs": [],
      "name": "getAllSubscribers",
      "outputs": [],
      "payable": true,
      "stateMutability": "payable",
      "type": "function"
    },
    {
      "constant": true,
      "inputs": [],
      "name": "getBTC",
      "outputs": [
        {
          "name": "",
          "type": "uint256"
        }
      ],
      "payable": false,
      "stateMutability": "view",
      "type": "function"
    },
    {
      "constant": false,
      "inputs": [
        {
          "name": "newOwner",
          "type": "address"
        }
      ],
      "name": "transferOwnership",
      "outputs": [],
      "payable": false,
      "stateMutability": "nonpayable",
      "type": "function"
    },
    {
      "inputs": [],
      "payable": false,
      "stateMutability": "nonpayable",
      "type": "constructor"
    },
    {
      "payable": true,
      "stateMutability": "payable",
      "type": "fallback"
    },
    {
      "anonymous": false,
      "inputs": [
        {
          "indexed": false,
          "name": "msg",
          "type": "string"
        }
      ],
      "name": "log",
      "type": "event"
    },
    {
      "anonymous": false,
      "inputs": [
        {
          "indexed": false,
          "name": "price",
          "type": "uint256"
        }
      ],
      "name": "newBitcoinPrice",
      "type": "event"
    },
    {
      "anonymous": false,
      "inputs": [
        {
          "indexed": false,
          "name": "price",
          "type": "uint256"
        }
      ],
      "name": "newBitcoinPriceLess",
      "type": "event"
    },
    {
      "anonymous": false,
      "inputs": [
        {
          "indexed": false,
          "name": "price",
          "type": "uint256"
        }
      ],
      "name": "newBitcoinPriceEquals",
      "type": "event"
    },
    {
      "anonymous": false,
      "inputs": [
        {
          "indexed": false,
          "name": "price",
          "type": "uint256"
        }
      ],
      "name": "newBitcoinPriceMore",
      "type": "event"
    },
    {
      "anonymous": false,
      "inputs": [
        {
          "indexed": false,
          "name": "msg",
          "type": "string"
        }
      ],
      "name": "newOraclizeQuery",
      "type": "event"
    },
    {
      "anonymous": false,
      "inputs": [
        {
          "indexed": false,
          "name": "msg",
          "type": "string"
        },
        {
          "indexed": false,
          "name": "cost",
          "type": "uint256"
        }
      ],
      "name": "newBTCPrice",
      "type": "event"
    }
  ],
  "bytecode": "0x6060604052600060075534156200001557600080fd5b336000806101000a81548173ffffffffffffffffffffffffffffffffffffffff021916908373ffffffffffffffffffffffffffffffffffffffff160217905550620000bc60017f01000000000000000000000000000000000000000000000000000000000000000260107f01000000000000000000000000000000000000000000000000000000000000000217620000c264010000000002620026fc176401000000009004565b62000abb565b6000600160009054906101000a900473ffffffffffffffffffffffffffffffffffffffff1673ffffffffffffffffffffffffffffffffffffffff1614806200014a5750600062000148600160009054906101000a900473ffffffffffffffffffffffffffffffffffffffff166200044d6401000000000262001c9a176401000000009004565b145b156200017257620001706000620004586401000000000262001ca5176401000000009004565b505b600160009054906101000a900473ffffffffffffffffffffffffffffffffffffffff1673ffffffffffffffffffffffffffffffffffffffff166338cc48316000604051602001526040518163ffffffff167c0100000000000000000000000000000000000000000000000000000000028152600401602060405180830381600087803b15156200020157600080fd5b6102c65a03f115156200021357600080fd5b5050506040518051905073ffffffffffffffffffffffffffffffffffffffff16600260009054906101000a900473ffffffffffffffffffffffffffffffffffffffff1673ffffffffffffffffffffffffffffffffffffffff161415156200036057600160009054906101000a900473ffffffffffffffffffffffffffffffffffffffff1673ffffffffffffffffffffffffffffffffffffffff166338cc48316000604051602001526040518163ffffffff167c0100000000000000000000000000000000000000000000000000000000028152600401602060405180830381600087803b15156200030357600080fd5b6102c65a03f115156200031557600080fd5b50505060405180519050600260006101000a81548173ffffffffffffffffffffffffffffffffffffffff021916908373ffffffffffffffffffffffffffffffffffffffff1602179055505b600260009054906101000a900473ffffffffffffffffffffffffffffffffffffffff1673ffffffffffffffffffffffffffffffffffffffff1663688dcfd7826040518263ffffffff167c010000000000000000000000000000000000000000000000000000000002815260040180827effffffffffffffffffffffffffffffffffffffffffffffffffffffffffffff19167effffffffffffffffffffffffffffffffffffffffffffffffffffffffffffff19168152602001915050600060405180830381600087803b15156200043557600080fd5b6102c65a03f115156200044757600080fd5b50505050565b6000813b9050919050565b6000806200048e731d3b2638a7cc9f2cb3d298a3da7a90b67e5506ed6200044d6401000000000262001c9a176401000000009004565b11156200054857731d3b2638a7cc9f2cb3d298a3da7a90b67e5506ed600160006101000a81548173ffffffffffffffffffffffffffffffffffffffff021916908373ffffffffffffffffffffffffffffffffffffffff1602179055506200053e6040805190810160405280600b81526020017f6574685f6d61696e6e6574000000000000000000000000000000000000000000815250620009f06401000000000262002575176401000000009004565b60019050620009eb565b60006200057d73c03a2615d5efaf5f49f60b7bb6583eaec212fdf16200044d6401000000000262001c9a176401000000009004565b1115620006375773c03a2615d5efaf5f49f60b7bb6583eaec212fdf1600160006101000a81548173ffffffffffffffffffffffffffffffffffffffff021916908373ffffffffffffffffffffffffffffffffffffffff1602179055506200062d6040805190810160405280600c81526020017f6574685f726f707374656e330000000000000000000000000000000000000000815250620009f06401000000000262002575176401000000009004565b60019050620009eb565b60006200066c73b7a07bcf2ba2f2703b24c0691b5278999c59ac7e6200044d6401000000000262001c9a176401000000009004565b1115620007265773b7a07bcf2ba2f2703b24c0691b5278999c59ac7e600160006101000a81548173ffffffffffffffffffffffffffffffffffffffff021916908373ffffffffffffffffffffffffffffffffffffffff1602179055506200071c6040805190810160405280600981526020017f6574685f6b6f76616e0000000000000000000000000000000000000000000000815250620009f06401000000000262002575176401000000009004565b60019050620009eb565b60006200075b73146500cfd35b22e4a392fe0adc06de1a1368ed486200044d6401000000000262001c9a176401000000009004565b1115620008155773146500cfd35b22e4a392fe0adc06de1a1368ed48600160006101000a81548173ffffffffffffffffffffffffffffffffffffffff021916908373ffffffffffffffffffffffffffffffffffffffff1602179055506200080b6040805190810160405280600b81526020017f6574685f72696e6b656279000000000000000000000000000000000000000000815250620009f06401000000000262002575176401000000009004565b60019050620009eb565b60006200084a736f485c8bf6fc43ea212e93bbf8ce046c7f1cb4756200044d6401000000000262001c9a176401000000009004565b1115620008b057736f485c8bf6fc43ea212e93bbf8ce046c7f1cb475600160006101000a81548173ffffffffffffffffffffffffffffffffffffffff021916908373ffffffffffffffffffffffffffffffffffffffff16021790555060019050620009eb565b6000620008e57320e12a1f859b3feae5fb2a0a32c18f5a65555bbf6200044d6401000000000262001c9a176401000000009004565b11156200094b577320e12a1f859b3feae5fb2a0a32c18f5a65555bbf600160006101000a81548173ffffffffffffffffffffffffffffffffffffffff021916908373ffffffffffffffffffffffffffffffffffffffff16021790555060019050620009eb565b6000620009807351efaf4c8b3c9afbd5ab9f4bbc82784ab6ef8faa6200044d6401000000000262001c9a176401000000009004565b1115620009e6577351efaf4c8b3c9afbd5ab9f4bbc82784ab6ef8faa600160006101000a81548173ffffffffffffffffffffffffffffffffffffffff021916908373ffffffffffffffffffffffffffffffffffffffff16021790555060019050620009eb565b600090505b919050565b806003908051906020019062000a0892919062000a0c565b5050565b828054600181600116156101000203166002900490600052602060002090601f016020900481019282601f1062000a4f57805160ff191683800117855562000a80565b8280016001018555821562000a80579182015b8281111562000a7f57825182559160200191906001019062000a62565b5b50905062000a8f919062000a93565b5090565b62000ab891905b8082111562000ab457600081600090555060010162000a9a565b5090565b90565b612a7e8062000acb6000396000f300606060405260043610610099576000357c0100000000000000000000000000000000000000000000000000000000900463ffffffff16806312065fe01461010357806327dc297e1461012c57806338bbfa501461019657806343a489c51461024357806343d726d614610295578063673a7e28146102aa578063ac6d0fa4146102b4578063e62854c7146102be578063f2fde38b146102e7575b7f41304facd9323d75b11bcdd609cb38effffdb05710f7caf0e9b16c6d9d709f5060405180806020018281038252600b8152602001807f6e65772062616c616e636500000000000000000000000000000000000000000081525060200191505060405180910390a1005b341561010e57600080fd5b610116610320565b6040518082815260200191505060405180910390f35b341561013757600080fd5b61019460048080356000191690602001909190803590602001908201803590602001908080601f0160208091040260200160405190810160405280939291908181526020018383808284378201915050505050509190505061033f565b005b34156101a157600080fd5b61024160048080356000191690602001909190803590602001908201803590602001908080601f0160208091040260200160405190810160405280939291908181526020018383808284378201915050505050509190803590602001908201803590602001908080601f01602080910402602001604051908101604052809392919081815260200183838082843782019150505050505091905050610371565b005b610293600480803590602001908201803590602001908080601f01602080910402602001604051908101604052809392919081815260200183838082843782019150505050505091905050610531565b005b34156102a057600080fd5b6102a861057f565b005b6102b2610614565b005b6102bc6108b6565b005b34156102c957600080fd5b6102d1610b6d565b6040518082815260200191505060405180910390f35b34156102f257600080fd5b61031e600480803573ffffffffffffffffffffffffffffffffffffffff16906020019091905050610b77565b005b60003073ffffffffffffffffffffffffffffffffffffffff1631905090565b61036d828260006040518059106103535750595b9080825280601f01601f1916602001820160405250610371565b5050565b600061037b610c15565b73ffffffffffffffffffffffffffffffffffffffff163373ffffffffffffffffffffffffffffffffffffffff161415156103b457600080fd5b60086000856000191660001916815260200190815260200160002060009054906101000a900460ff1615156103e857600080fd5b6103f3836005610f2f565b905060075481111561043b577fce976687eb78cedc7e555086ebbab53fdac8e9f191174048db2a6cafeca5a597816040518082815260200191505060405180910390a16104ba565b600754811015610481577fc1ff00c91e7b13fbc6d6e4be098043ae9f43516892d90d47f681b31c995552c1816040518082815260200191505060405180910390a16104b9565b7fe93519962343d5f31bac2479758ea213109d9286ed8e5adc0799a79f952a5d7c816040518082815260200191505060405180910390a15b5b7fcf7a60712df4a9299a6c632ce364a6dfeba1f6553e19da0e17e566162ce2d034816040518082815260200191505060405180910390a18060078190555060086000856000191660001916815260200190815260200160002060006101000a81549060ff021916905561052b610614565b50505050565b60003411151561054057600080fd5b60068054806001018281610554919061258f565b91600052602060002090016000839091909150908051906020019061057a9291906125bb565b505050565b6000809054906101000a900473ffffffffffffffffffffffffffffffffffffffff1673ffffffffffffffffffffffffffffffffffffffff163373ffffffffffffffffffffffffffffffffffffffff161415156105da57600080fd5b6000809054906101000a900473ffffffffffffffffffffffffffffffffffffffff1673ffffffffffffffffffffffffffffffffffffffff16ff5b60003073ffffffffffffffffffffffffffffffffffffffff163161066c6040805190810160405280600381526020017f55524c0000000000000000000000000000000000000000000000000000000000815250611229565b111561072b577f46cb989ef9cef13e930e3b7f286225a086e716a90d63e0b7da85d310a9db0c9a60405180806020018281038252604b8152602001807f4f7261636c697a6520717565727920776173204e4f542073656e742c20706c6581526020017f6173652061646420736f6d652045544820746f20636f76657220666f7220746881526020017f652071756572792066656500000000000000000000000000000000000000000081525060600191505060405180910390a16108b3565b7f46cb989ef9cef13e930e3b7f286225a086e716a90d63e0b7da85d310a9db0c9a6040518080602001828103825260358152602001807f4f7261636c697a65207175657279207761732073656e742c207374616e64696e81526020017f6720627920666f722074686520616e737765722e2e000000000000000000000081525060400191505060405180910390a161087c603c6040805190810160405280600381526020017f55524c0000000000000000000000000000000000000000000000000000000000815250608060405190810160405280604481526020017f6a736f6e2868747470733a2f2f6170692e636f696e6465736b2e636f6d2f763181526020017f2f6270692f63757272656e7470726963652e6a736f6e292e6270692e5553442e81526020017f72617465000000000000000000000000000000000000000000000000000000008152506115b5565b9050600160086000836000191660001916815260200190815260200160002060006101000a81548160ff0219169083151502179055505b50565b60007f46cb989ef9cef13e930e3b7f286225a086e716a90d63e0b7da85d310a9db0c9a6040518080602001828103825260118152602001807f676574416c6c537562736372696265727300000000000000000000000000000081525060200191505060405180910390a17f41304facd9323d75b11bcdd609cb38effffdb05710f7caf0e9b16c6d9d709f506040518080602001828103825260118152602001807f676574416c6c537562736372696265727300000000000000000000000000000081525060200191505060405180910390a17f41304facd9323d75b11bcdd609cb38effffdb05710f7caf0e9b16c6d9d709f506109f56040805190810160405280601781526020017f676574416c6c53756273637269626572732073697a653a0000000000000000008152506109f0600680549050611afb565b611c4d565b6040518080602001828103825283818151815260200191508051906020019080838360005b83811015610a35578082015181840152602081019050610a1a565b50505050905090810190601f168015610a625780820380516001836020036101000a031916815260200191505b509250505060405180910390a1600090505b600680549050811015610b6a577fc5868c20b464dfb7ab52bae82d2caae8de970bd5c7af8f98078a05e33b0c64d8600682815481101515610ab157fe5b90600052602060002090016007546040518080602001838152602001828103825284818154600181600116156101000203166002900481526020019150805460018160011615610100020316600290048015610b4e5780601f10610b2357610100808354040283529160200191610b4e565b820191906000526020600020905b815481529060010190602001808311610b3157829003601f168201915b5050935050505060405180910390a18080600101915050610a74565b50565b6000600754905090565b6000809054906101000a900473ffffffffffffffffffffffffffffffffffffffff1673ffffffffffffffffffffffffffffffffffffffff163373ffffffffffffffffffffffffffffffffffffffff16141515610bd257600080fd5b806000806101000a81548173ffffffffffffffffffffffffffffffffffffffff021916908373ffffffffffffffffffffffffffffffffffffffff16021790555050565b600080600160009054906101000a900473ffffffffffffffffffffffffffffffffffffffff1673ffffffffffffffffffffffffffffffffffffffff161480610c8757506000610c85600160009054906101000a900473ffffffffffffffffffffffffffffffffffffffff16611c9a565b145b15610c9857610c966000611ca5565b505b600160009054906101000a900473ffffffffffffffffffffffffffffffffffffffff1673ffffffffffffffffffffffffffffffffffffffff166338cc48316000604051602001526040518163ffffffff167c0100000000000000000000000000000000000000000000000000000000028152600401602060405180830381600087803b1515610d2657600080fd5b6102c65a03f11515610d3757600080fd5b5050506040518051905073ffffffffffffffffffffffffffffffffffffffff16600260009054906101000a900473ffffffffffffffffffffffffffffffffffffffff1673ffffffffffffffffffffffffffffffffffffffff16141515610e8157600160009054906101000a900473ffffffffffffffffffffffffffffffffffffffff1673ffffffffffffffffffffffffffffffffffffffff166338cc48316000604051602001526040518163ffffffff167c0100000000000000000000000000000000000000000000000000000000028152600401602060405180830381600087803b1515610e2557600080fd5b6102c65a03f11515610e3657600080fd5b50505060405180519050600260006101000a81548173ffffffffffffffffffffffffffffffffffffffff021916908373ffffffffffffffffffffffffffffffffffffffff1602179055505b600260009054906101000a900473ffffffffffffffffffffffffffffffffffffffff1673ffffffffffffffffffffffffffffffffffffffff1663c281d19e6000604051602001526040518163ffffffff167c0100000000000000000000000000000000000000000000000000000000028152600401602060405180830381600087803b1515610f0f57600080fd5b6102c65a03f11515610f2057600080fd5b50505060405180519050905090565b6000610f3961263b565b60008060008693506000925060009150600090505b835181101561120a5760307f0100000000000000000000000000000000000000000000000000000000000000028482815181101515610f8957fe5b9060200101517f010000000000000000000000000000000000000000000000000000000000000090047f0100000000000000000000000000000000000000000000000000000000000000027effffffffffffffffffffffffffffffffffffffffffffffffffffffffffffff1916101580156110a1575060397f010000000000000000000000000000000000000000000000000000000000000002848281518110151561103157fe5b9060200101517f010000000000000000000000000000000000000000000000000000000000000090047f0100000000000000000000000000000000000000000000000000000000000000027effffffffffffffffffffffffffffffffffffffffffffffffffffffffffffff191611155b156111525781156110c45760008614156110ba5761120a565b8580600190039650505b600a83029250603084828151811015156110da57fe5b9060200101517f010000000000000000000000000000000000000000000000000000000000000090047f0100000000000000000000000000000000000000000000000000000000000000027f0100000000000000000000000000000000000000000000000000000000000000900403830192506111fd565b602e7f010000000000000000000000000000000000000000000000000000000000000002848281518110151561118457fe5b9060200101517f010000000000000000000000000000000000000000000000000000000000000090047f0100000000000000000000000000000000000000000000000000000000000000027effffffffffffffffffffffffffffffffffffffffffffffffffffffffffffff191614156111fc57600191505b5b8080600101915050610f4e565b600086111561121c5785600a0a830292505b8294505050505092915050565b600080600160009054906101000a900473ffffffffffffffffffffffffffffffffffffffff1673ffffffffffffffffffffffffffffffffffffffff16148061129b57506000611299600160009054906101000a900473ffffffffffffffffffffffffffffffffffffffff16611c9a565b145b156112ac576112aa6000611ca5565b505b600160009054906101000a900473ffffffffffffffffffffffffffffffffffffffff1673ffffffffffffffffffffffffffffffffffffffff166338cc48316000604051602001526040518163ffffffff167c0100000000000000000000000000000000000000000000000000000000028152600401602060405180830381600087803b151561133a57600080fd5b6102c65a03f1151561134b57600080fd5b5050506040518051905073ffffffffffffffffffffffffffffffffffffffff16600260009054906101000a900473ffffffffffffffffffffffffffffffffffffffff1673ffffffffffffffffffffffffffffffffffffffff1614151561149557600160009054906101000a900473ffffffffffffffffffffffffffffffffffffffff1673ffffffffffffffffffffffffffffffffffffffff166338cc48316000604051602001526040518163ffffffff167c0100000000000000000000000000000000000000000000000000000000028152600401602060405180830381600087803b151561143957600080fd5b6102c65a03f1151561144a57600080fd5b50505060405180519050600260006101000a81548173ffffffffffffffffffffffffffffffffffffffff021916908373ffffffffffffffffffffffffffffffffffffffff1602179055505b600260009054906101000a900473ffffffffffffffffffffffffffffffffffffffff1673ffffffffffffffffffffffffffffffffffffffff1663524f3889836000604051602001526040518263ffffffff167c01000000000000000000000000000000000000000000000000000000000281526004018080602001828103825283818151815260200191508051906020019080838360005b8381101561154857808201518184015260208101905061152d565b50505050905090810190601f1680156115755780820380516001836020036101000a031916815260200191505b5092505050602060405180830381600087803b151561159357600080fd5b6102c65a03f115156115a457600080fd5b505050604051805190509050919050565b6000806000600160009054906101000a900473ffffffffffffffffffffffffffffffffffffffff1673ffffffffffffffffffffffffffffffffffffffff16148061162957506000611627600160009054906101000a900473ffffffffffffffffffffffffffffffffffffffff16611c9a565b145b1561163a576116386000611ca5565b505b600160009054906101000a900473ffffffffffffffffffffffffffffffffffffffff1673ffffffffffffffffffffffffffffffffffffffff166338cc48316000604051602001526040518163ffffffff167c0100000000000000000000000000000000000000000000000000000000028152600401602060405180830381600087803b15156116c857600080fd5b6102c65a03f115156116d957600080fd5b5050506040518051905073ffffffffffffffffffffffffffffffffffffffff16600260009054906101000a900473ffffffffffffffffffffffffffffffffffffffff1673ffffffffffffffffffffffffffffffffffffffff1614151561182357600160009054906101000a900473ffffffffffffffffffffffffffffffffffffffff1673ffffffffffffffffffffffffffffffffffffffff166338cc48316000604051602001526040518163ffffffff167c0100000000000000000000000000000000000000000000000000000000028152600401602060405180830381600087803b15156117c757600080fd5b6102c65a03f115156117d857600080fd5b50505060405180519050600260006101000a81548173ffffffffffffffffffffffffffffffffffffffff021916908373ffffffffffffffffffffffffffffffffffffffff1602179055505b600260009054906101000a900473ffffffffffffffffffffffffffffffffffffffff1673ffffffffffffffffffffffffffffffffffffffff1663524f3889856000604051602001526040518263ffffffff167c01000000000000000000000000000000000000000000000000000000000281526004018080602001828103825283818151815260200191508051906020019080838360005b838110156118d65780820151818401526020810190506118bb565b50505050905090810190601f1680156119035780820380516001836020036101000a031916815260200191505b5092505050602060405180830381600087803b151561192157600080fd5b6102c65a03f1151561193257600080fd5b50505060405180519050905062030d403a02670de0b6b3a7640000018111156119615760006001029150611af3565b600260009054906101000a900473ffffffffffffffffffffffffffffffffffffffff1673ffffffffffffffffffffffffffffffffffffffff1663adf59f99828787876000604051602001526040518563ffffffff167c0100000000000000000000000000000000000000000000000000000000028152600401808481526020018060200180602001838103835285818151815260200191508051906020019080838360005b83811015611a21578082015181840152602081019050611a06565b50505050905090810190601f168015611a4e5780820380516001836020036101000a031916815260200191505b50838103825284818151815260200191508051906020019080838360005b83811015611a87578082015181840152602081019050611a6c565b50505050905090810190601f168015611ab45780820380516001836020036101000a031916815260200191505b50955050505050506020604051808303818588803b1515611ad457600080fd5b6125ee5a03f11515611ae557600080fd5b505050506040518051905091505b509392505050565b611b0361264f565b600080611b0e61263b565b600080861415611b55576040805190810160405280600181526020017f30000000000000000000000000000000000000000000000000000000000000008152509450611c44565b8593505b600084141515611b7f578280600101935050600a84811515611b7757fe5b049350611b59565b82604051805910611b8d5750595b9080825280601f01601f191660200182016040525091506001830390505b600086141515611c4057600a86811515611bc157fe5b066030017f010000000000000000000000000000000000000000000000000000000000000002828280600190039350815181101515611bfc57fe5b9060200101907effffffffffffffffffffffffffffffffffffffffffffffffffffffffffffff1916908160001a905350600a86811515611c3857fe5b049550611bab565b8194505b50505050919050565b611c5561264f565b611c92838360206040519081016040528060008152506020604051908101604052806000815250602060405190810160405280600081525061213d565b905092915050565b6000813b9050919050565b600080611cc5731d3b2638a7cc9f2cb3d298a3da7a90b67e5506ed611c9a565b1115611d6757731d3b2638a7cc9f2cb3d298a3da7a90b67e5506ed600160006101000a81548173ffffffffffffffffffffffffffffffffffffffff021916908373ffffffffffffffffffffffffffffffffffffffff160217905550611d5e6040805190810160405280600b81526020017f6574685f6d61696e6e6574000000000000000000000000000000000000000000815250612575565b60019050612138565b6000611d8673c03a2615d5efaf5f49f60b7bb6583eaec212fdf1611c9a565b1115611e285773c03a2615d5efaf5f49f60b7bb6583eaec212fdf1600160006101000a81548173ffffffffffffffffffffffffffffffffffffffff021916908373ffffffffffffffffffffffffffffffffffffffff160217905550611e1f6040805190810160405280600c81526020017f6574685f726f707374656e330000000000000000000000000000000000000000815250612575565b60019050612138565b6000611e4773b7a07bcf2ba2f2703b24c0691b5278999c59ac7e611c9a565b1115611ee95773b7a07bcf2ba2f2703b24c0691b5278999c59ac7e600160006101000a81548173ffffffffffffffffffffffffffffffffffffffff021916908373ffffffffffffffffffffffffffffffffffffffff160217905550611ee06040805190810160405280600981526020017f6574685f6b6f76616e0000000000000000000000000000000000000000000000815250612575565b60019050612138565b6000611f0873146500cfd35b22e4a392fe0adc06de1a1368ed48611c9a565b1115611faa5773146500cfd35b22e4a392fe0adc06de1a1368ed48600160006101000a81548173ffffffffffffffffffffffffffffffffffffffff021916908373ffffffffffffffffffffffffffffffffffffffff160217905550611fa16040805190810160405280600b81526020017f6574685f72696e6b656279000000000000000000000000000000000000000000815250612575565b60019050612138565b6000611fc9736f485c8bf6fc43ea212e93bbf8ce046c7f1cb475611c9a565b111561202d57736f485c8bf6fc43ea212e93bbf8ce046c7f1cb475600160006101000a81548173ffffffffffffffffffffffffffffffffffffffff021916908373ffffffffffffffffffffffffffffffffffffffff16021790555060019050612138565b600061204c7320e12a1f859b3feae5fb2a0a32c18f5a65555bbf611c9a565b11156120b0577320e12a1f859b3feae5fb2a0a32c18f5a65555bbf600160006101000a81548173ffffffffffffffffffffffffffffffffffffffff021916908373ffffffffffffffffffffffffffffffffffffffff16021790555060019050612138565b60006120cf7351efaf4c8b3c9afbd5ab9f4bbc82784ab6ef8faa611c9a565b1115612133577351efaf4c8b3c9afbd5ab9f4bbc82784ab6ef8faa600160006101000a81548173ffffffffffffffffffffffffffffffffffffffff021916908373ffffffffffffffffffffffffffffffffffffffff16021790555060019050612138565b600090505b919050565b61214561264f565b61214d61263b565b61215561263b565b61215d61263b565b61216561263b565b61216d61263b565b61217561264f565b61217d61263b565b6000808e98508d97508c96508b95508a94508451865188518a518c51010101016040518059106121aa5750595b9080825280601f01601f1916602001820160405250935083925060009150600090505b88518110156122805788818151811015156121e457fe5b9060200101517f010000000000000000000000000000000000000000000000000000000000000090047f010000000000000000000000000000000000000000000000000000000000000002838380600101945081518110151561224357fe5b9060200101907effffffffffffffffffffffffffffffffffffffffffffffffffffffffffffff1916908160001a90535080806001019150506121cd565b600090505b875181101561233857878181518110151561229c57fe5b9060200101517f010000000000000000000000000000000000000000000000000000000000000090047f01000000000000000000000000000000000000000000000000000000000000000283838060010194508151811015156122fb57fe5b9060200101907effffffffffffffffffffffffffffffffffffffffffffffffffffffffffffff1916908160001a9053508080600101915050612285565b600090505b86518110156123f057868181518110151561235457fe5b9060200101517f010000000000000000000000000000000000000000000000000000000000000090047f01000000000000000000000000000000000000000000000000000000000000000283838060010194508151811015156123b357fe5b9060200101907effffffffffffffffffffffffffffffffffffffffffffffffffffffffffffff1916908160001a905350808060010191505061233d565b600090505b85518110156124a857858181518110151561240c57fe5b9060200101517f010000000000000000000000000000000000000000000000000000000000000090047f010000000000000000000000000000000000000000000000000000000000000002838380600101945081518110151561246b57fe5b9060200101907effffffffffffffffffffffffffffffffffffffffffffffffffffffffffffff1916908160001a90535080806001019150506123f5565b600090505b84518110156125605784818151811015156124c457fe5b9060200101517f010000000000000000000000000000000000000000000000000000000000000090047f010000000000000000000000000000000000000000000000000000000000000002838380600101945081518110151561252357fe5b9060200101907effffffffffffffffffffffffffffffffffffffffffffffffffffffffffffff1916908160001a90535080806001019150506124ad565b82995050505050505050505095945050505050565b806003908051906020019061258b9291906125bb565b5050565b8154818355818115116125b6578183600052602060002091820191016125b59190612663565b5b505050565b828054600181600116156101000203166002900490600052602060002090601f016020900481019282601f106125fc57805160ff191683800117855561262a565b8280016001018555821561262a579182015b8281111561262957825182559160200191906001019061260e565b5b509050612637919061268f565b5090565b602060405190810160405280600081525090565b602060405190810160405280600081525090565b61268c91905b80821115612688576000818161267f91906126b4565b50600101612669565b5090565b90565b6126b191905b808211156126ad576000816000905550600101612695565b5090565b90565b50805460018160011615610100020316600290046000825580601f106126da57506126f9565b601f0160209004906000526020600020908101906126f8919061268f565b5b50565b6000600160009054906101000a900473ffffffffffffffffffffffffffffffffffffffff1673ffffffffffffffffffffffffffffffffffffffff16148061276d5750600061276b600160009054906101000a900473ffffffffffffffffffffffffffffffffffffffff16611c9a565b145b1561277e5761277c6000611ca5565b505b600160009054906101000a900473ffffffffffffffffffffffffffffffffffffffff1673ffffffffffffffffffffffffffffffffffffffff166338cc48316000604051602001526040518163ffffffff167c0100000000000000000000000000000000000000000000000000000000028152600401602060405180830381600087803b151561280c57600080fd5b6102c65a03f1151561281d57600080fd5b5050506040518051905073ffffffffffffffffffffffffffffffffffffffff16600260009054906101000a900473ffffffffffffffffffffffffffffffffffffffff1673ffffffffffffffffffffffffffffffffffffffff1614151561296757600160009054906101000a900473ffffffffffffffffffffffffffffffffffffffff1673ffffffffffffffffffffffffffffffffffffffff166338cc48316000604051602001526040518163ffffffff167c0100000000000000000000000000000000000000000000000000000000028152600401602060405180830381600087803b151561290b57600080fd5b6102c65a03f1151561291c57600080fd5b50505060405180519050600260006101000a81548173ffffffffffffffffffffffffffffffffffffffff021916908373ffffffffffffffffffffffffffffffffffffffff1602179055505b600260009054906101000a900473ffffffffffffffffffffffffffffffffffffffff1673ffffffffffffffffffffffffffffffffffffffff1663688dcfd7826040518263ffffffff167c010000000000000000000000000000000000000000000000000000000002815260040180827effffffffffffffffffffffffffffffffffffffffffffffffffffffffffffff19167effffffffffffffffffffffffffffffffffffffffffffffffffffffffffffff19168152602001915050600060405180830381600087803b1515612a3b57600080fd5b6102c65a03f11515612a4c57600080fd5b505050505600a165627a7a72305820cacc81b6c4ac22c138211c9e7bc0704b74d608f71ffdce339c9b78d97474bc390029",
  "source": "pragma solidity ^0.4.18;\r\n\r\nimport \"./Owner.sol\";\r\nimport \"./usingOraclize.sol\";\r\n\r\n//Smart contract\r\n//Subscribe for BTC price, update even every week\r\n//user Oracle by Oraclize for get BTC price\r\ncontract BitcoinRate is Owner, usingOraclize {\r\n\r\n    //Subscribe\r\n    string[] private subscribers;\r\n\r\n    //Last BTC price 10^5 $\r\n    uint private currentPriceBitcoin = 0;\r\n\r\n    //request ids for BTC price\r\n    mapping(bytes32 => bool) private validIds;\r\n\r\n    //Push event log\r\n    event log(string msg);\r\n\r\n    //Push event Bitcoin Price\r\n    event newBitcoinPrice(uint price);\r\n\r\n    //Push event Bitcoin Price Less than last price\r\n    event newBitcoinPriceLess(uint price);\r\n\r\n    //Push event Bitcoin Price Equals than last price\r\n    event newBitcoinPriceEquals(uint price);\r\n\r\n    //Push event Bitcoin Price More than last price\r\n    event newBitcoinPriceMore(uint price);\r\n\r\n    //Push event log Oraclize request\r\n    event newOraclizeQuery(string msg);\r\n\r\n    //test\r\n    event newBTCPrice(string msg, uint cost);\r\n\r\n    //Fallback Function\r\n    //A contract can have exactly one unnamed function.\r\n    //This function cannot have arguments and cannot return anything.\r\n    //It is executed on a call to the contract if none of the other functions match the given function identifier (or if no data was supplied at all).\r\n    function() public payable {\r\n        log(\"new balance\");\r\n    }\r\n\r\n    //Create Smart contract and Scheduler for update BTC Price\r\n    function BitcoinRate() {\r\n        //Authenticity proofs\r\n        oraclize_setProof(proofType_TLSNotary | proofStorage_IPFS);\r\n        //updatePrice();\r\n    }\r\n\r\n    //Subscribe for BTC price\r\n    function registerNewSubscriber(string email) public payable {\r\n        //get your money for subscribe\r\n        require(msg.value > 0);\r\n        subscribers.push(email);\r\n    }\r\n\r\n    //Get Balance for Smart contract, every request into Oraclize use gas\r\n    function getBalance() public constant returns (uint){\r\n        return this.balance;\r\n    }\r\n\r\n    //Get last Bitcoin Price\r\n    function getBTC() public constant returns (uint){\r\n        return currentPriceBitcoin;\r\n    }\r\n\r\n    //TODO delete it\r\n    function getAllSubscribers() payable public {////constant\r\n        //newBTCPrice(\"test1\", \"test2\");\r\n        newOraclizeQuery('getAllSubscribers');\r\n        log('getAllSubscribers');\r\n        log(strConcat('getAllSubscribers size:', uint2str(subscribers.length)));\r\n        for (uint i = 0; i < subscribers.length; i++) {\r\n            newBTCPrice(subscribers[i], currentPriceBitcoin);\r\n        }\r\n    }\r\n\r\n    //send request for BTC price with week delay\r\n    //todo add modificator onlyOwner\r\n    function updatePrice() public payable {\r\n        //\r\n        if (oraclize_getPrice(\"URL\") > this.balance) {\r\n            //\r\n            newOraclizeQuery(\"Oraclize query was NOT sent, please add some ETH to cover for the query fee\");\r\n        } else {\r\n            //\r\n            newOraclizeQuery(\"Oraclize query was sent, standing by for the answer..\");\r\n            //60\r\n            bytes32 queryId = oraclize_query(60, \"URL\", \"json(https://api.coindesk.com/v1/bpi/currentprice.json).bpi.USD.rate\");\r\n            //\r\n            validIds[queryId] = true;\r\n        }\r\n    }\r\n\r\n    //response from oraclized with BTC price\r\n    function __callback(bytes32 myid, string result, bytes proof) public {\r\n        //check sender price\r\n        require(msg.sender == oraclize_cbAddress());\r\n        //check check request ids\r\n        require(validIds[myid]);\r\n        //get\r\n        uint newPrice = parseInt(result, 5);\r\n        //BTC price * 10 000\r\n        if (newPrice > currentPriceBitcoin) {\r\n            //Push event Bitcoin Price More than last price\r\n            newBitcoinPriceMore(newPrice);\r\n        } else if (newPrice < currentPriceBitcoin) {\r\n            //Push event Bitcoin Price Less than last price\r\n            newBitcoinPriceLess(newPrice);\r\n        } else {\r\n            //Push event Bitcoin Price Equals than last price\r\n            newBitcoinPriceEquals(newPrice);\r\n        }\r\n        newBitcoinPrice(newPrice);\r\n        currentPriceBitcoin = newPrice;\r\n        //delete valid request id\r\n        delete validIds[myid];\r\n        updatePrice();\r\n    }\r\n\r\n    //Destroy Smart contract\r\n    function close() public onlyOwner {\r\n        selfdestruct(owner);\r\n    }\r\n}\r\n\r\n",
  "sourcePath": "C:\\BlockChain\\bitcoin_rate_in_a_week\\contracts\\BitcoinRate.sol",
  "compiler": {
    "name": "solc",
    "version": "0.4.18+commit.9cf6e910.Emscripten.clang"
  },
  "schemaVersion": "1.0.1",
  "updatedAt": "2017-12-14T19:53:01.549Z"
}