{
  "contractName": "BitcoinRate",
  "abi": [
    {
      "constant": true,
      "inputs": [],
      "name": "getBalance",
      "outputs": [
        {
          "name": "",
          "type": "uint256"
        }
      ],
      "payable": false,
      "stateMutability": "view",
      "type": "function"
    },
    {
      "constant": false,
      "inputs": [
        {
          "name": "myid",
          "type": "bytes32"
        },
        {
          "name": "result",
          "type": "string"
        }
      ],
      "name": "__callback",
      "outputs": [],
      "payable": false,
      "stateMutability": "nonpayable",
      "type": "function"
    },
    {
      "constant": false,
      "inputs": [
        {
          "name": "myid",
          "type": "bytes32"
        },
        {
          "name": "result",
          "type": "string"
        },
        {
          "name": "proof",
          "type": "bytes"
        }
      ],
      "name": "__callback",
      "outputs": [],
      "payable": false,
      "stateMutability": "nonpayable",
      "type": "function"
    },
    {
      "constant": false,
      "inputs": [
        {
          "name": "email",
          "type": "string"
        }
      ],
      "name": "registerNewSubscriber",
      "outputs": [],
      "payable": true,
      "stateMutability": "payable",
      "type": "function"
    },
    {
      "constant": false,
      "inputs": [],
      "name": "close",
      "outputs": [],
      "payable": false,
      "stateMutability": "nonpayable",
      "type": "function"
    },
    {
      "constant": false,
      "inputs": [],
      "name": "updatePrice",
      "outputs": [],
      "payable": true,
      "stateMutability": "payable",
      "type": "function"
    },
    {
      "constant": false,
      "inputs": [],
      "name": "getAllSubscribers",
      "outputs": [],
      "payable": true,
      "stateMutability": "payable",
      "type": "function"
    },
    {
      "constant": false,
      "inputs": [],
      "name": "Owner",
      "outputs": [],
      "payable": false,
      "stateMutability": "nonpayable",
      "type": "function"
    },
    {
      "constant": true,
      "inputs": [],
      "name": "getBTC",
      "outputs": [
        {
          "name": "",
          "type": "uint256"
        }
      ],
      "payable": false,
      "stateMutability": "view",
      "type": "function"
    },
    {
      "constant": false,
      "inputs": [
        {
          "name": "newOwner",
          "type": "address"
        }
      ],
      "name": "transferOwnership",
      "outputs": [],
      "payable": false,
      "stateMutability": "nonpayable",
      "type": "function"
    },
    {
      "inputs": [],
      "payable": false,
      "stateMutability": "nonpayable",
      "type": "constructor"
    },
    {
      "payable": true,
      "stateMutability": "payable",
      "type": "fallback"
    },
    {
      "anonymous": false,
      "inputs": [
        {
          "indexed": false,
          "name": "msg",
          "type": "string"
        }
      ],
      "name": "log",
      "type": "event"
    },
    {
      "anonymous": false,
      "inputs": [
        {
          "indexed": false,
          "name": "price",
          "type": "uint256"
        }
      ],
      "name": "newBitcoinPrice",
      "type": "event"
    },
    {
      "anonymous": false,
      "inputs": [
        {
          "indexed": false,
          "name": "price",
          "type": "uint256"
        }
      ],
      "name": "newBitcoinPriceLess",
      "type": "event"
    },
    {
      "anonymous": false,
      "inputs": [
        {
          "indexed": false,
          "name": "price",
          "type": "uint256"
        }
      ],
      "name": "newBitcoinPriceEquals",
      "type": "event"
    },
    {
      "anonymous": false,
      "inputs": [
        {
          "indexed": false,
          "name": "price",
          "type": "uint256"
        }
      ],
      "name": "newBitcoinPriceMore",
      "type": "event"
    },
    {
      "anonymous": false,
      "inputs": [
        {
          "indexed": false,
          "name": "msg",
          "type": "string"
        }
      ],
      "name": "newOraclizeQuery",
      "type": "event"
    },
    {
      "anonymous": false,
      "inputs": [
        {
          "indexed": false,
          "name": "email",
          "type": "string"
        },
        {
          "indexed": false,
          "name": "cost",
          "type": "uint256"
        }
      ],
      "name": "newBTCPrice",
      "type": "event"
    }
  ],
  "bytecode": "0x6060604052600060075534156200001557600080fd5b6200007c60017f01000000000000000000000000000000000000000000000000000000000000000260107f0100000000000000000000000000000000000000000000000000000000000000021762000082640100000000026200275f176401000000009004565b62000a7b565b6000600160009054906101000a900473ffffffffffffffffffffffffffffffffffffffff1673ffffffffffffffffffffffffffffffffffffffff1614806200010a5750600062000108600160009054906101000a900473ffffffffffffffffffffffffffffffffffffffff166200040d6401000000000262001cfd176401000000009004565b145b156200013257620001306000620004186401000000000262001d08176401000000009004565b505b600160009054906101000a900473ffffffffffffffffffffffffffffffffffffffff1673ffffffffffffffffffffffffffffffffffffffff166338cc48316000604051602001526040518163ffffffff167c0100000000000000000000000000000000000000000000000000000000028152600401602060405180830381600087803b1515620001c157600080fd5b6102c65a03f11515620001d357600080fd5b5050506040518051905073ffffffffffffffffffffffffffffffffffffffff16600260009054906101000a900473ffffffffffffffffffffffffffffffffffffffff1673ffffffffffffffffffffffffffffffffffffffff161415156200032057600160009054906101000a900473ffffffffffffffffffffffffffffffffffffffff1673ffffffffffffffffffffffffffffffffffffffff166338cc48316000604051602001526040518163ffffffff167c0100000000000000000000000000000000000000000000000000000000028152600401602060405180830381600087803b1515620002c357600080fd5b6102c65a03f11515620002d557600080fd5b50505060405180519050600260006101000a81548173ffffffffffffffffffffffffffffffffffffffff021916908373ffffffffffffffffffffffffffffffffffffffff1602179055505b600260009054906101000a900473ffffffffffffffffffffffffffffffffffffffff1673ffffffffffffffffffffffffffffffffffffffff1663688dcfd7826040518263ffffffff167c010000000000000000000000000000000000000000000000000000000002815260040180827effffffffffffffffffffffffffffffffffffffffffffffffffffffffffffff19167effffffffffffffffffffffffffffffffffffffffffffffffffffffffffffff19168152602001915050600060405180830381600087803b1515620003f557600080fd5b6102c65a03f115156200040757600080fd5b50505050565b6000813b9050919050565b6000806200044e731d3b2638a7cc9f2cb3d298a3da7a90b67e5506ed6200040d6401000000000262001cfd176401000000009004565b11156200050857731d3b2638a7cc9f2cb3d298a3da7a90b67e5506ed600160006101000a81548173ffffffffffffffffffffffffffffffffffffffff021916908373ffffffffffffffffffffffffffffffffffffffff160217905550620004fe6040805190810160405280600b81526020017f6574685f6d61696e6e6574000000000000000000000000000000000000000000815250620009b064010000000002620025d8176401000000009004565b60019050620009ab565b60006200053d73c03a2615d5efaf5f49f60b7bb6583eaec212fdf16200040d6401000000000262001cfd176401000000009004565b1115620005f75773c03a2615d5efaf5f49f60b7bb6583eaec212fdf1600160006101000a81548173ffffffffffffffffffffffffffffffffffffffff021916908373ffffffffffffffffffffffffffffffffffffffff160217905550620005ed6040805190810160405280600c81526020017f6574685f726f707374656e330000000000000000000000000000000000000000815250620009b064010000000002620025d8176401000000009004565b60019050620009ab565b60006200062c73b7a07bcf2ba2f2703b24c0691b5278999c59ac7e6200040d6401000000000262001cfd176401000000009004565b1115620006e65773b7a07bcf2ba2f2703b24c0691b5278999c59ac7e600160006101000a81548173ffffffffffffffffffffffffffffffffffffffff021916908373ffffffffffffffffffffffffffffffffffffffff160217905550620006dc6040805190810160405280600981526020017f6574685f6b6f76616e0000000000000000000000000000000000000000000000815250620009b064010000000002620025d8176401000000009004565b60019050620009ab565b60006200071b73146500cfd35b22e4a392fe0adc06de1a1368ed486200040d6401000000000262001cfd176401000000009004565b1115620007d55773146500cfd35b22e4a392fe0adc06de1a1368ed48600160006101000a81548173ffffffffffffffffffffffffffffffffffffffff021916908373ffffffffffffffffffffffffffffffffffffffff160217905550620007cb6040805190810160405280600b81526020017f6574685f72696e6b656279000000000000000000000000000000000000000000815250620009b064010000000002620025d8176401000000009004565b60019050620009ab565b60006200080a736f485c8bf6fc43ea212e93bbf8ce046c7f1cb4756200040d6401000000000262001cfd176401000000009004565b11156200087057736f485c8bf6fc43ea212e93bbf8ce046c7f1cb475600160006101000a81548173ffffffffffffffffffffffffffffffffffffffff021916908373ffffffffffffffffffffffffffffffffffffffff16021790555060019050620009ab565b6000620008a57320e12a1f859b3feae5fb2a0a32c18f5a65555bbf6200040d6401000000000262001cfd176401000000009004565b11156200090b577320e12a1f859b3feae5fb2a0a32c18f5a65555bbf600160006101000a81548173ffffffffffffffffffffffffffffffffffffffff021916908373ffffffffffffffffffffffffffffffffffffffff16021790555060019050620009ab565b6000620009407351efaf4c8b3c9afbd5ab9f4bbc82784ab6ef8faa6200040d6401000000000262001cfd176401000000009004565b1115620009a6577351efaf4c8b3c9afbd5ab9f4bbc82784ab6ef8faa600160006101000a81548173ffffffffffffffffffffffffffffffffffffffff021916908373ffffffffffffffffffffffffffffffffffffffff16021790555060019050620009ab565b600090505b919050565b8060039080519060200190620009c8929190620009cc565b5050565b828054600181600116156101000203166002900490600052602060002090601f016020900481019282601f1062000a0f57805160ff191683800117855562000a40565b8280016001018555821562000a40579182015b8281111562000a3f57825182559160200191906001019062000a22565b5b50905062000a4f919062000a53565b5090565b62000a7891905b8082111562000a7457600081600090555060010162000a5a565b5090565b90565b612ae18062000a8b6000396000f3006060604052600436106100a4576000357c0100000000000000000000000000000000000000000000000000000000900463ffffffff16806312065fe01461010e57806327dc297e1461013757806338bbfa50146101a157806343a489c51461024e57806343d726d6146102a0578063673a7e28146102b5578063ac6d0fa4146102bf578063b4a99a4e146102c9578063e62854c7146102de578063f2fde38b14610307575b7f41304facd9323d75b11bcdd609cb38effffdb05710f7caf0e9b16c6d9d709f5060405180806020018281038252600b8152602001807f6e65772062616c616e636500000000000000000000000000000000000000000081525060200191505060405180910390a1005b341561011957600080fd5b610121610340565b6040518082815260200191505060405180910390f35b341561014257600080fd5b61019f60048080356000191690602001909190803590602001908201803590602001908080601f0160208091040260200160405190810160405280939291908181526020018383808284378201915050505050509190505061035f565b005b34156101ac57600080fd5b61024c60048080356000191690602001909190803590602001908201803590602001908080601f0160208091040260200160405190810160405280939291908181526020018383808284378201915050505050509190803590602001908201803590602001908080601f01602080910402602001604051908101604052809392919081815260200183838082843782019150505050505091905050610391565b005b61029e600480803590602001908201803590602001908080601f01602080910402602001604051908101604052809392919081815260200183838082843782019150505050505091905050610551565b005b34156102ab57600080fd5b6102b361059f565b005b6102bd610634565b005b6102c76108d7565b005b34156102d457600080fd5b6102dc610b8e565b005b34156102e957600080fd5b6102f1610bd0565b6040518082815260200191505060405180910390f35b341561031257600080fd5b61033e600480803573ffffffffffffffffffffffffffffffffffffffff16906020019091905050610bda565b005b60003073ffffffffffffffffffffffffffffffffffffffff1631905090565b61038d828260006040518059106103735750595b9080825280601f01601f1916602001820160405250610391565b5050565b600061039b610c78565b73ffffffffffffffffffffffffffffffffffffffff163373ffffffffffffffffffffffffffffffffffffffff161415156103d457600080fd5b60086000856000191660001916815260200190815260200160002060009054906101000a900460ff16151561040857600080fd5b610413836005610f92565b905060075481111561045b577fce976687eb78cedc7e555086ebbab53fdac8e9f191174048db2a6cafeca5a597816040518082815260200191505060405180910390a16104da565b6007548110156104a1577fc1ff00c91e7b13fbc6d6e4be098043ae9f43516892d90d47f681b31c995552c1816040518082815260200191505060405180910390a16104d9565b7fe93519962343d5f31bac2479758ea213109d9286ed8e5adc0799a79f952a5d7c816040518082815260200191505060405180910390a15b5b7fcf7a60712df4a9299a6c632ce364a6dfeba1f6553e19da0e17e566162ce2d034816040518082815260200191505060405180910390a18060078190555060086000856000191660001916815260200190815260200160002060006101000a81549060ff021916905561054b610634565b50505050565b60003411151561056057600080fd5b6006805480600101828161057491906125f2565b91600052602060002090016000839091909150908051906020019061059a92919061261e565b505050565b6000809054906101000a900473ffffffffffffffffffffffffffffffffffffffff1673ffffffffffffffffffffffffffffffffffffffff163373ffffffffffffffffffffffffffffffffffffffff161415156105fa57600080fd5b6000809054906101000a900473ffffffffffffffffffffffffffffffffffffffff1673ffffffffffffffffffffffffffffffffffffffff16ff5b60003073ffffffffffffffffffffffffffffffffffffffff163161068c6040805190810160405280600381526020017f55524c000000000000000000000000000000000000000000000000000000000081525061128c565b111561074b577f46cb989ef9cef13e930e3b7f286225a086e716a90d63e0b7da85d310a9db0c9a60405180806020018281038252604b8152602001807f4f7261636c697a6520717565727920776173204e4f542073656e742c20706c6581526020017f6173652061646420736f6d652045544820746f20636f76657220666f7220746881526020017f652071756572792066656500000000000000000000000000000000000000000081525060600191505060405180910390a16108d4565b7f46cb989ef9cef13e930e3b7f286225a086e716a90d63e0b7da85d310a9db0c9a6040518080602001828103825260358152602001807f4f7261636c697a65207175657279207761732073656e742c207374616e64696e81526020017f6720627920666f722074686520616e737765722e2e000000000000000000000081525060400191505060405180910390a161089d610e106040805190810160405280600381526020017f55524c0000000000000000000000000000000000000000000000000000000000815250608060405190810160405280604481526020017f6a736f6e2868747470733a2f2f6170692e636f696e6465736b2e636f6d2f763181526020017f2f6270692f63757272656e7470726963652e6a736f6e292e6270692e5553442e81526020017f7261746500000000000000000000000000000000000000000000000000000000815250611618565b9050600160086000836000191660001916815260200190815260200160002060006101000a81548160ff0219169083151502179055505b50565b60007f46cb989ef9cef13e930e3b7f286225a086e716a90d63e0b7da85d310a9db0c9a6040518080602001828103825260118152602001807f676574416c6c537562736372696265727300000000000000000000000000000081525060200191505060405180910390a17f41304facd9323d75b11bcdd609cb38effffdb05710f7caf0e9b16c6d9d709f506040518080602001828103825260118152602001807f676574416c6c537562736372696265727300000000000000000000000000000081525060200191505060405180910390a17f41304facd9323d75b11bcdd609cb38effffdb05710f7caf0e9b16c6d9d709f50610a166040805190810160405280601781526020017f676574416c6c53756273637269626572732073697a653a000000000000000000815250610a11600680549050611b5e565b611cb0565b6040518080602001828103825283818151815260200191508051906020019080838360005b83811015610a56578082015181840152602081019050610a3b565b50505050905090810190601f168015610a835780820380516001836020036101000a031916815260200191505b509250505060405180910390a1600090505b600680549050811015610b8b577fc5868c20b464dfb7ab52bae82d2caae8de970bd5c7af8f98078a05e33b0c64d8600682815481101515610ad257fe5b90600052602060002090016007546040518080602001838152602001828103825284818154600181600116156101000203166002900481526020019150805460018160011615610100020316600290048015610b6f5780601f10610b4457610100808354040283529160200191610b6f565b820191906000526020600020905b815481529060010190602001808311610b5257829003601f168201915b5050935050505060405180910390a18080600101915050610a95565b50565b336000806101000a81548173ffffffffffffffffffffffffffffffffffffffff021916908373ffffffffffffffffffffffffffffffffffffffff160217905550565b6000600754905090565b6000809054906101000a900473ffffffffffffffffffffffffffffffffffffffff1673ffffffffffffffffffffffffffffffffffffffff163373ffffffffffffffffffffffffffffffffffffffff16141515610c3557600080fd5b806000806101000a81548173ffffffffffffffffffffffffffffffffffffffff021916908373ffffffffffffffffffffffffffffffffffffffff16021790555050565b600080600160009054906101000a900473ffffffffffffffffffffffffffffffffffffffff1673ffffffffffffffffffffffffffffffffffffffff161480610cea57506000610ce8600160009054906101000a900473ffffffffffffffffffffffffffffffffffffffff16611cfd565b145b15610cfb57610cf96000611d08565b505b600160009054906101000a900473ffffffffffffffffffffffffffffffffffffffff1673ffffffffffffffffffffffffffffffffffffffff166338cc48316000604051602001526040518163ffffffff167c0100000000000000000000000000000000000000000000000000000000028152600401602060405180830381600087803b1515610d8957600080fd5b6102c65a03f11515610d9a57600080fd5b5050506040518051905073ffffffffffffffffffffffffffffffffffffffff16600260009054906101000a900473ffffffffffffffffffffffffffffffffffffffff1673ffffffffffffffffffffffffffffffffffffffff16141515610ee457600160009054906101000a900473ffffffffffffffffffffffffffffffffffffffff1673ffffffffffffffffffffffffffffffffffffffff166338cc48316000604051602001526040518163ffffffff167c0100000000000000000000000000000000000000000000000000000000028152600401602060405180830381600087803b1515610e8857600080fd5b6102c65a03f11515610e9957600080fd5b50505060405180519050600260006101000a81548173ffffffffffffffffffffffffffffffffffffffff021916908373ffffffffffffffffffffffffffffffffffffffff1602179055505b600260009054906101000a900473ffffffffffffffffffffffffffffffffffffffff1673ffffffffffffffffffffffffffffffffffffffff1663c281d19e6000604051602001526040518163ffffffff167c0100000000000000000000000000000000000000000000000000000000028152600401602060405180830381600087803b1515610f7257600080fd5b6102c65a03f11515610f8357600080fd5b50505060405180519050905090565b6000610f9c61269e565b60008060008693506000925060009150600090505b835181101561126d5760307f0100000000000000000000000000000000000000000000000000000000000000028482815181101515610fec57fe5b9060200101517f010000000000000000000000000000000000000000000000000000000000000090047f0100000000000000000000000000000000000000000000000000000000000000027effffffffffffffffffffffffffffffffffffffffffffffffffffffffffffff191610158015611104575060397f010000000000000000000000000000000000000000000000000000000000000002848281518110151561109457fe5b9060200101517f010000000000000000000000000000000000000000000000000000000000000090047f0100000000000000000000000000000000000000000000000000000000000000027effffffffffffffffffffffffffffffffffffffffffffffffffffffffffffff191611155b156111b557811561112757600086141561111d5761126d565b8580600190039650505b600a830292506030848281518110151561113d57fe5b9060200101517f010000000000000000000000000000000000000000000000000000000000000090047f0100000000000000000000000000000000000000000000000000000000000000027f010000000000000000000000000000000000000000000000000000000000000090040383019250611260565b602e7f01000000000000000000000000000000000000000000000000000000000000000284828151811015156111e757fe5b9060200101517f010000000000000000000000000000000000000000000000000000000000000090047f0100000000000000000000000000000000000000000000000000000000000000027effffffffffffffffffffffffffffffffffffffffffffffffffffffffffffff1916141561125f57600191505b5b8080600101915050610fb1565b600086111561127f5785600a0a830292505b8294505050505092915050565b600080600160009054906101000a900473ffffffffffffffffffffffffffffffffffffffff1673ffffffffffffffffffffffffffffffffffffffff1614806112fe575060006112fc600160009054906101000a900473ffffffffffffffffffffffffffffffffffffffff16611cfd565b145b1561130f5761130d6000611d08565b505b600160009054906101000a900473ffffffffffffffffffffffffffffffffffffffff1673ffffffffffffffffffffffffffffffffffffffff166338cc48316000604051602001526040518163ffffffff167c0100000000000000000000000000000000000000000000000000000000028152600401602060405180830381600087803b151561139d57600080fd5b6102c65a03f115156113ae57600080fd5b5050506040518051905073ffffffffffffffffffffffffffffffffffffffff16600260009054906101000a900473ffffffffffffffffffffffffffffffffffffffff1673ffffffffffffffffffffffffffffffffffffffff161415156114f857600160009054906101000a900473ffffffffffffffffffffffffffffffffffffffff1673ffffffffffffffffffffffffffffffffffffffff166338cc48316000604051602001526040518163ffffffff167c0100000000000000000000000000000000000000000000000000000000028152600401602060405180830381600087803b151561149c57600080fd5b6102c65a03f115156114ad57600080fd5b50505060405180519050600260006101000a81548173ffffffffffffffffffffffffffffffffffffffff021916908373ffffffffffffffffffffffffffffffffffffffff1602179055505b600260009054906101000a900473ffffffffffffffffffffffffffffffffffffffff1673ffffffffffffffffffffffffffffffffffffffff1663524f3889836000604051602001526040518263ffffffff167c01000000000000000000000000000000000000000000000000000000000281526004018080602001828103825283818151815260200191508051906020019080838360005b838110156115ab578082015181840152602081019050611590565b50505050905090810190601f1680156115d85780820380516001836020036101000a031916815260200191505b5092505050602060405180830381600087803b15156115f657600080fd5b6102c65a03f1151561160757600080fd5b505050604051805190509050919050565b6000806000600160009054906101000a900473ffffffffffffffffffffffffffffffffffffffff1673ffffffffffffffffffffffffffffffffffffffff16148061168c5750600061168a600160009054906101000a900473ffffffffffffffffffffffffffffffffffffffff16611cfd565b145b1561169d5761169b6000611d08565b505b600160009054906101000a900473ffffffffffffffffffffffffffffffffffffffff1673ffffffffffffffffffffffffffffffffffffffff166338cc48316000604051602001526040518163ffffffff167c0100000000000000000000000000000000000000000000000000000000028152600401602060405180830381600087803b151561172b57600080fd5b6102c65a03f1151561173c57600080fd5b5050506040518051905073ffffffffffffffffffffffffffffffffffffffff16600260009054906101000a900473ffffffffffffffffffffffffffffffffffffffff1673ffffffffffffffffffffffffffffffffffffffff1614151561188657600160009054906101000a900473ffffffffffffffffffffffffffffffffffffffff1673ffffffffffffffffffffffffffffffffffffffff166338cc48316000604051602001526040518163ffffffff167c0100000000000000000000000000000000000000000000000000000000028152600401602060405180830381600087803b151561182a57600080fd5b6102c65a03f1151561183b57600080fd5b50505060405180519050600260006101000a81548173ffffffffffffffffffffffffffffffffffffffff021916908373ffffffffffffffffffffffffffffffffffffffff1602179055505b600260009054906101000a900473ffffffffffffffffffffffffffffffffffffffff1673ffffffffffffffffffffffffffffffffffffffff1663524f3889856000604051602001526040518263ffffffff167c01000000000000000000000000000000000000000000000000000000000281526004018080602001828103825283818151815260200191508051906020019080838360005b8381101561193957808201518184015260208101905061191e565b50505050905090810190601f1680156119665780820380516001836020036101000a031916815260200191505b5092505050602060405180830381600087803b151561198457600080fd5b6102c65a03f1151561199557600080fd5b50505060405180519050905062030d403a02670de0b6b3a7640000018111156119c45760006001029150611b56565b600260009054906101000a900473ffffffffffffffffffffffffffffffffffffffff1673ffffffffffffffffffffffffffffffffffffffff1663adf59f99828787876000604051602001526040518563ffffffff167c0100000000000000000000000000000000000000000000000000000000028152600401808481526020018060200180602001838103835285818151815260200191508051906020019080838360005b83811015611a84578082015181840152602081019050611a69565b50505050905090810190601f168015611ab15780820380516001836020036101000a031916815260200191505b50838103825284818151815260200191508051906020019080838360005b83811015611aea578082015181840152602081019050611acf565b50505050905090810190601f168015611b175780820380516001836020036101000a031916815260200191505b50955050505050506020604051808303818588803b1515611b3757600080fd5b6125ee5a03f11515611b4857600080fd5b505050506040518051905091505b509392505050565b611b666126b2565b600080611b7161269e565b600080861415611bb8576040805190810160405280600181526020017f30000000000000000000000000000000000000000000000000000000000000008152509450611ca7565b8593505b600084141515611be2578280600101935050600a84811515611bda57fe5b049350611bbc565b82604051805910611bf05750595b9080825280601f01601f191660200182016040525091506001830390505b600086141515611ca357600a86811515611c2457fe5b066030017f010000000000000000000000000000000000000000000000000000000000000002828280600190039350815181101515611c5f57fe5b9060200101907effffffffffffffffffffffffffffffffffffffffffffffffffffffffffffff1916908160001a905350600a86811515611c9b57fe5b049550611c0e565b8194505b50505050919050565b611cb86126b2565b611cf583836020604051908101604052806000815250602060405190810160405280600081525060206040519081016040528060008152506121a0565b905092915050565b6000813b9050919050565b600080611d28731d3b2638a7cc9f2cb3d298a3da7a90b67e5506ed611cfd565b1115611dca57731d3b2638a7cc9f2cb3d298a3da7a90b67e5506ed600160006101000a81548173ffffffffffffffffffffffffffffffffffffffff021916908373ffffffffffffffffffffffffffffffffffffffff160217905550611dc16040805190810160405280600b81526020017f6574685f6d61696e6e65740000000000000000000000000000000000000000008152506125d8565b6001905061219b565b6000611de973c03a2615d5efaf5f49f60b7bb6583eaec212fdf1611cfd565b1115611e8b5773c03a2615d5efaf5f49f60b7bb6583eaec212fdf1600160006101000a81548173ffffffffffffffffffffffffffffffffffffffff021916908373ffffffffffffffffffffffffffffffffffffffff160217905550611e826040805190810160405280600c81526020017f6574685f726f707374656e3300000000000000000000000000000000000000008152506125d8565b6001905061219b565b6000611eaa73b7a07bcf2ba2f2703b24c0691b5278999c59ac7e611cfd565b1115611f4c5773b7a07bcf2ba2f2703b24c0691b5278999c59ac7e600160006101000a81548173ffffffffffffffffffffffffffffffffffffffff021916908373ffffffffffffffffffffffffffffffffffffffff160217905550611f436040805190810160405280600981526020017f6574685f6b6f76616e00000000000000000000000000000000000000000000008152506125d8565b6001905061219b565b6000611f6b73146500cfd35b22e4a392fe0adc06de1a1368ed48611cfd565b111561200d5773146500cfd35b22e4a392fe0adc06de1a1368ed48600160006101000a81548173ffffffffffffffffffffffffffffffffffffffff021916908373ffffffffffffffffffffffffffffffffffffffff1602179055506120046040805190810160405280600b81526020017f6574685f72696e6b6562790000000000000000000000000000000000000000008152506125d8565b6001905061219b565b600061202c736f485c8bf6fc43ea212e93bbf8ce046c7f1cb475611cfd565b111561209057736f485c8bf6fc43ea212e93bbf8ce046c7f1cb475600160006101000a81548173ffffffffffffffffffffffffffffffffffffffff021916908373ffffffffffffffffffffffffffffffffffffffff1602179055506001905061219b565b60006120af7320e12a1f859b3feae5fb2a0a32c18f5a65555bbf611cfd565b1115612113577320e12a1f859b3feae5fb2a0a32c18f5a65555bbf600160006101000a81548173ffffffffffffffffffffffffffffffffffffffff021916908373ffffffffffffffffffffffffffffffffffffffff1602179055506001905061219b565b60006121327351efaf4c8b3c9afbd5ab9f4bbc82784ab6ef8faa611cfd565b1115612196577351efaf4c8b3c9afbd5ab9f4bbc82784ab6ef8faa600160006101000a81548173ffffffffffffffffffffffffffffffffffffffff021916908373ffffffffffffffffffffffffffffffffffffffff1602179055506001905061219b565b600090505b919050565b6121a86126b2565b6121b061269e565b6121b861269e565b6121c061269e565b6121c861269e565b6121d061269e565b6121d86126b2565b6121e061269e565b6000808e98508d97508c96508b95508a94508451865188518a518c510101010160405180591061220d5750595b9080825280601f01601f1916602001820160405250935083925060009150600090505b88518110156122e357888181518110151561224757fe5b9060200101517f010000000000000000000000000000000000000000000000000000000000000090047f01000000000000000000000000000000000000000000000000000000000000000283838060010194508151811015156122a657fe5b9060200101907effffffffffffffffffffffffffffffffffffffffffffffffffffffffffffff1916908160001a9053508080600101915050612230565b600090505b875181101561239b5787818151811015156122ff57fe5b9060200101517f010000000000000000000000000000000000000000000000000000000000000090047f010000000000000000000000000000000000000000000000000000000000000002838380600101945081518110151561235e57fe5b9060200101907effffffffffffffffffffffffffffffffffffffffffffffffffffffffffffff1916908160001a90535080806001019150506122e8565b600090505b86518110156124535786818151811015156123b757fe5b9060200101517f010000000000000000000000000000000000000000000000000000000000000090047f010000000000000000000000000000000000000000000000000000000000000002838380600101945081518110151561241657fe5b9060200101907effffffffffffffffffffffffffffffffffffffffffffffffffffffffffffff1916908160001a90535080806001019150506123a0565b600090505b855181101561250b57858181518110151561246f57fe5b9060200101517f010000000000000000000000000000000000000000000000000000000000000090047f01000000000000000000000000000000000000000000000000000000000000000283838060010194508151811015156124ce57fe5b9060200101907effffffffffffffffffffffffffffffffffffffffffffffffffffffffffffff1916908160001a9053508080600101915050612458565b600090505b84518110156125c357848181518110151561252757fe5b9060200101517f010000000000000000000000000000000000000000000000000000000000000090047f010000000000000000000000000000000000000000000000000000000000000002838380600101945081518110151561258657fe5b9060200101907effffffffffffffffffffffffffffffffffffffffffffffffffffffffffffff1916908160001a9053508080600101915050612510565b82995050505050505050505095945050505050565b80600390805190602001906125ee92919061261e565b5050565b8154818355818115116126195781836000526020600020918201910161261891906126c6565b5b505050565b828054600181600116156101000203166002900490600052602060002090601f016020900481019282601f1061265f57805160ff191683800117855561268d565b8280016001018555821561268d579182015b8281111561268c578251825591602001919060010190612671565b5b50905061269a91906126f2565b5090565b602060405190810160405280600081525090565b602060405190810160405280600081525090565b6126ef91905b808211156126eb57600081816126e29190612717565b506001016126cc565b5090565b90565b61271491905b808211156127105760008160009055506001016126f8565b5090565b90565b50805460018160011615610100020316600290046000825580601f1061273d575061275c565b601f01602090049060005260206000209081019061275b91906126f2565b5b50565b6000600160009054906101000a900473ffffffffffffffffffffffffffffffffffffffff1673ffffffffffffffffffffffffffffffffffffffff1614806127d0575060006127ce600160009054906101000a900473ffffffffffffffffffffffffffffffffffffffff16611cfd565b145b156127e1576127df6000611d08565b505b600160009054906101000a900473ffffffffffffffffffffffffffffffffffffffff1673ffffffffffffffffffffffffffffffffffffffff166338cc48316000604051602001526040518163ffffffff167c0100000000000000000000000000000000000000000000000000000000028152600401602060405180830381600087803b151561286f57600080fd5b6102c65a03f1151561288057600080fd5b5050506040518051905073ffffffffffffffffffffffffffffffffffffffff16600260009054906101000a900473ffffffffffffffffffffffffffffffffffffffff1673ffffffffffffffffffffffffffffffffffffffff161415156129ca57600160009054906101000a900473ffffffffffffffffffffffffffffffffffffffff1673ffffffffffffffffffffffffffffffffffffffff166338cc48316000604051602001526040518163ffffffff167c0100000000000000000000000000000000000000000000000000000000028152600401602060405180830381600087803b151561296e57600080fd5b6102c65a03f1151561297f57600080fd5b50505060405180519050600260006101000a81548173ffffffffffffffffffffffffffffffffffffffff021916908373ffffffffffffffffffffffffffffffffffffffff1602179055505b600260009054906101000a900473ffffffffffffffffffffffffffffffffffffffff1673ffffffffffffffffffffffffffffffffffffffff1663688dcfd7826040518263ffffffff167c010000000000000000000000000000000000000000000000000000000002815260040180827effffffffffffffffffffffffffffffffffffffffffffffffffffffffffffff19167effffffffffffffffffffffffffffffffffffffffffffffffffffffffffffff19168152602001915050600060405180830381600087803b1515612a9e57600080fd5b6102c65a03f11515612aaf57600080fd5b505050505600a165627a7a72305820e41a21271b1e7cd407ec3d2df6fe4212e19d721c7d7b305a2483c6e4952864620029",
  "source": "pragma solidity ^0.4.18;\r\n\r\nimport \"./Ownable.sol\";\r\nimport \"./usingOraclize.sol\";\r\n\r\n/**\r\n * @title Smart contract, allows you to get the actual price of bitcoin once a week.\r\n * @dev Subscribe for BTC price, update even every week, user Oracle by Oraclize for get BTC price\r\n * @dev see https://github.com/sheacspear/smart_bitcoin_rate_in_a_week\r\n */\r\ncontract BitcoinRate is Ownable, usingOraclize {\r\n\r\n    /**\r\n     * Subscribes\r\n     */\r\n    string[] private subscribers;\r\n\r\n    /**\r\n     * Last BTC price 10^5 $\r\n     */\r\n    uint private currentPriceBitcoin = 0;\r\n\r\n    /**\r\n     * Request ids for BTC price\r\n     */\r\n    mapping(bytes32 => bool) private validIds;\r\n\r\n    /**\r\n     * Push event log\r\n     */\r\n    event log(string msg);\r\n\r\n    /**\r\n     * Push event Bitcoin Price\r\n     */\r\n    event newBitcoinPrice(uint price);\r\n\r\n    /**\r\n     * Push event Bitcoin Price Less than last price\r\n     */\r\n    event newBitcoinPriceLess(uint price);\r\n\r\n    /**\r\n     * Push event Bitcoin Price Equals than last price\r\n     */\r\n    event newBitcoinPriceEquals(uint price);\r\n\r\n    /**\r\n     * Push event Bitcoin Price More than last price\r\n     */\r\n    event newBitcoinPriceMore(uint price);\r\n\r\n    /**\r\n     * Push event log Oraclize request\r\n     */\r\n    event newOraclizeQuery(string msg);\r\n\r\n    /**\r\n     *  Push event with new price & subscriber\r\n     */\r\n    event newBTCPrice(string email, uint cost);\r\n\r\n    /**\r\n     * Fallback Function\r\n     * A contract can have exactly one unnamed function.\r\n     * This function cannot have arguments and cannot return anything.\r\n     * It is executed on a call to the contract if none of the other functions match the given function identifier (or if no data was supplied at all).\r\n     */\r\n    function() public payable {\r\n        log(\"new balance\");\r\n    }\r\n\r\n    /**\r\n     * Create Smart contract and Scheduler for update BTC Price\r\n     */\r\n    function BitcoinRate() {\r\n        //Authenticity proofs\r\n        oraclize_setProof(proofType_TLSNotary | proofStorage_IPFS);\r\n        //updatePrice();\r\n    }\r\n\r\n    /**\r\n     * Subscribe for BTC price\r\n     */\r\n    function registerNewSubscriber(string email) public payable {\r\n        //get your money for subscribe\r\n        require(msg.value > 0);\r\n        subscribers.push(email);\r\n    }\r\n\r\n    /**\r\n     * Get Balance for Smart contract, every request into Oraclize use gas\r\n     */\r\n    function getBalance() public constant returns (uint){\r\n        return this.balance;\r\n    }\r\n\r\n    /**\r\n     * Get last Bitcoin Price\r\n     */\r\n    function getBTC() public constant returns (uint){\r\n        return currentPriceBitcoin;\r\n    }\r\n\r\n    /**\r\n     *  Send new price for all Subscriber\r\n     *  TODO delete it\r\n     */\r\n    function getAllSubscribers() payable public {////constant\r\n        //newBTCPrice(\"test1\", \"test2\");\r\n        newOraclizeQuery('getAllSubscribers');\r\n        log('getAllSubscribers');\r\n        log(strConcat('getAllSubscribers size:', uint2str(subscribers.length)));\r\n        for (uint i = 0; i < subscribers.length; i++) {\r\n            newBTCPrice(subscribers[i], currentPriceBitcoin);\r\n        }\r\n    }\r\n\r\n    /**\r\n    *\r\n    * Send request for BTC price with week delay\r\n    * todo add modificator onlyOwner\r\n    */\r\n    function updatePrice() public payable {\r\n        if (oraclize_getPrice(\"URL\") > this.balance) {\r\n            //Oraclize query was NOT sent, please add some ETH to cover for the query fee\r\n            newOraclizeQuery(\"Oraclize query was NOT sent, please add some ETH to cover for the query fee\");\r\n        } else {\r\n            //Oraclize query was sent, standing by for the answer..\r\n            newOraclizeQuery(\"Oraclize query was sent, standing by for the answer..\");\r\n            //60 * 24 * 7 = 10080\r\n            //for test 3600 sec\r\n            bytes32 queryId = oraclize_query(3600, \"URL\", \"json(https://api.coindesk.com/v1/bpi/currentprice.json).bpi.USD.rate\");\r\n            //\r\n            validIds[queryId] = true;\r\n        }\r\n    }\r\n\r\n\r\n    /**\r\n     * Response from oraclized with BTC price\r\n     */\r\n    function __callback(bytes32 myid, string result, bytes proof) public {\r\n        //check sender price\r\n        require(msg.sender == oraclize_cbAddress());\r\n        //check check request ids\r\n        require(validIds[myid]);\r\n        //get\r\n        uint newPrice = parseInt(result, 5);\r\n        //BTC price * 10 000\r\n        if (newPrice > currentPriceBitcoin) {\r\n            //Push event Bitcoin Price More than last price\r\n            newBitcoinPriceMore(newPrice);\r\n        } else if (newPrice < currentPriceBitcoin) {\r\n            //Push event Bitcoin Price Less than last price\r\n            newBitcoinPriceLess(newPrice);\r\n        } else {\r\n            //Push event Bitcoin Price Equals than last price\r\n            newBitcoinPriceEquals(newPrice);\r\n        }\r\n        newBitcoinPrice(newPrice);\r\n        currentPriceBitcoin = newPrice;\r\n        //delete valid request id\r\n        delete validIds[myid];\r\n        updatePrice();\r\n    }\r\n\r\n    /**\r\n     * Destroy Smart contract\r\n     */\r\n    function close() public onlyOwner {\r\n        selfdestruct(owner);\r\n    }\r\n}\r\n\r\n",
  "sourcePath": "C:\\BlockChain\\bitcoin_rate_in_a_week\\contracts\\BitcoinRate.sol",
  "compiler": {
    "name": "solc",
    "version": "0.4.18+commit.9cf6e910.Emscripten.clang"
  },
  "schemaVersion": "1.0.1",
  "updatedAt": "2017-12-19T18:39:32.034Z"
}