{
  "contractName": "BitcoinRate",
  "abi": [
    {
      "constant": true,
      "inputs": [],
      "name": "getBalance",
      "outputs": [
        {
          "name": "",
          "type": "uint256"
        }
      ],
      "payable": false,
      "stateMutability": "view",
      "type": "function"
    },
    {
      "constant": false,
      "inputs": [
        {
          "name": "myid",
          "type": "bytes32"
        },
        {
          "name": "result",
          "type": "string"
        }
      ],
      "name": "__callback",
      "outputs": [],
      "payable": false,
      "stateMutability": "nonpayable",
      "type": "function"
    },
    {
      "constant": false,
      "inputs": [
        {
          "name": "myid",
          "type": "bytes32"
        },
        {
          "name": "result",
          "type": "string"
        },
        {
          "name": "proof",
          "type": "bytes"
        }
      ],
      "name": "__callback",
      "outputs": [],
      "payable": false,
      "stateMutability": "nonpayable",
      "type": "function"
    },
    {
      "constant": false,
      "inputs": [
        {
          "name": "result1",
          "type": "string"
        },
        {
          "name": "result2",
          "type": "string"
        }
      ],
      "name": "biggest",
      "outputs": [
        {
          "name": "biggest",
          "type": "bool"
        }
      ],
      "payable": false,
      "stateMutability": "nonpayable",
      "type": "function"
    },
    {
      "constant": false,
      "inputs": [
        {
          "name": "email",
          "type": "string"
        }
      ],
      "name": "registerNewSubscriber",
      "outputs": [],
      "payable": true,
      "stateMutability": "payable",
      "type": "function"
    },
    {
      "constant": false,
      "inputs": [],
      "name": "close",
      "outputs": [],
      "payable": false,
      "stateMutability": "nonpayable",
      "type": "function"
    },
    {
      "constant": false,
      "inputs": [],
      "name": "updatePrice",
      "outputs": [],
      "payable": true,
      "stateMutability": "payable",
      "type": "function"
    },
    {
      "constant": false,
      "inputs": [],
      "name": "getAllSubscribers",
      "outputs": [],
      "payable": false,
      "stateMutability": "nonpayable",
      "type": "function"
    },
    {
      "constant": true,
      "inputs": [],
      "name": "getBTC",
      "outputs": [
        {
          "name": "",
          "type": "string"
        }
      ],
      "payable": false,
      "stateMutability": "view",
      "type": "function"
    },
    {
      "constant": false,
      "inputs": [
        {
          "name": "newOwner",
          "type": "address"
        }
      ],
      "name": "transferOwnership",
      "outputs": [],
      "payable": false,
      "stateMutability": "nonpayable",
      "type": "function"
    },
    {
      "inputs": [],
      "payable": false,
      "stateMutability": "nonpayable",
      "type": "constructor"
    },
    {
      "payable": true,
      "stateMutability": "payable",
      "type": "fallback"
    },
    {
      "anonymous": false,
      "inputs": [
        {
          "indexed": false,
          "name": "price",
          "type": "string"
        }
      ],
      "name": "newBitcoinPrice",
      "type": "event"
    },
    {
      "anonymous": false,
      "inputs": [
        {
          "indexed": false,
          "name": "msg",
          "type": "string"
        }
      ],
      "name": "newOraclizeQuery",
      "type": "event"
    },
    {
      "anonymous": false,
      "inputs": [
        {
          "indexed": false,
          "name": "msg",
          "type": "string"
        },
        {
          "indexed": false,
          "name": "email",
          "type": "string"
        }
      ],
      "name": "newBTCPrice",
      "type": "event"
    }
  ],
  "bytecode": "0x60606040526040805190810160405280600181526020017f3000000000000000000000000000000000000000000000000000000000000000815250600790805190602001906200005192919062000a55565b5034156200005e57600080fd5b336000806101000a81548173ffffffffffffffffffffffffffffffffffffffff021916908373ffffffffffffffffffffffffffffffffffffffff1602179055506200010560017f01000000000000000000000000000000000000000000000000000000000000000260107f010000000000000000000000000000000000000000000000000000000000000002176200010b6401000000000262001e66176401000000009004565b62000b04565b6000600160009054906101000a900473ffffffffffffffffffffffffffffffffffffffff1673ffffffffffffffffffffffffffffffffffffffff161480620001935750600062000191600160009054906101000a900473ffffffffffffffffffffffffffffffffffffffff16620004966401000000000262001850176401000000009004565b145b15620001bb57620001b96000620004a1640100000000026200185b176401000000009004565b505b600160009054906101000a900473ffffffffffffffffffffffffffffffffffffffff1673ffffffffffffffffffffffffffffffffffffffff166338cc48316000604051602001526040518163ffffffff167c0100000000000000000000000000000000000000000000000000000000028152600401602060405180830381600087803b15156200024a57600080fd5b6102c65a03f115156200025c57600080fd5b5050506040518051905073ffffffffffffffffffffffffffffffffffffffff16600260009054906101000a900473ffffffffffffffffffffffffffffffffffffffff1673ffffffffffffffffffffffffffffffffffffffff16141515620003a957600160009054906101000a900473ffffffffffffffffffffffffffffffffffffffff1673ffffffffffffffffffffffffffffffffffffffff166338cc48316000604051602001526040518163ffffffff167c0100000000000000000000000000000000000000000000000000000000028152600401602060405180830381600087803b15156200034c57600080fd5b6102c65a03f115156200035e57600080fd5b50505060405180519050600260006101000a81548173ffffffffffffffffffffffffffffffffffffffff021916908373ffffffffffffffffffffffffffffffffffffffff1602179055505b600260009054906101000a900473ffffffffffffffffffffffffffffffffffffffff1673ffffffffffffffffffffffffffffffffffffffff1663688dcfd7826040518263ffffffff167c010000000000000000000000000000000000000000000000000000000002815260040180827effffffffffffffffffffffffffffffffffffffffffffffffffffffffffffff19167effffffffffffffffffffffffffffffffffffffffffffffffffffffffffffff19168152602001915050600060405180830381600087803b15156200047e57600080fd5b6102c65a03f115156200049057600080fd5b50505050565b6000813b9050919050565b600080620004d7731d3b2638a7cc9f2cb3d298a3da7a90b67e5506ed620004966401000000000262001850176401000000009004565b11156200059157731d3b2638a7cc9f2cb3d298a3da7a90b67e5506ed600160006101000a81548173ffffffffffffffffffffffffffffffffffffffff021916908373ffffffffffffffffffffffffffffffffffffffff160217905550620005876040805190810160405280600b81526020017f6574685f6d61696e6e657400000000000000000000000000000000000000000081525062000a396401000000000262001cf3176401000000009004565b6001905062000a34565b6000620005c673c03a2615d5efaf5f49f60b7bb6583eaec212fdf1620004966401000000000262001850176401000000009004565b1115620006805773c03a2615d5efaf5f49f60b7bb6583eaec212fdf1600160006101000a81548173ffffffffffffffffffffffffffffffffffffffff021916908373ffffffffffffffffffffffffffffffffffffffff160217905550620006766040805190810160405280600c81526020017f6574685f726f707374656e33000000000000000000000000000000000000000081525062000a396401000000000262001cf3176401000000009004565b6001905062000a34565b6000620006b573b7a07bcf2ba2f2703b24c0691b5278999c59ac7e620004966401000000000262001850176401000000009004565b11156200076f5773b7a07bcf2ba2f2703b24c0691b5278999c59ac7e600160006101000a81548173ffffffffffffffffffffffffffffffffffffffff021916908373ffffffffffffffffffffffffffffffffffffffff160217905550620007656040805190810160405280600981526020017f6574685f6b6f76616e000000000000000000000000000000000000000000000081525062000a396401000000000262001cf3176401000000009004565b6001905062000a34565b6000620007a473146500cfd35b22e4a392fe0adc06de1a1368ed48620004966401000000000262001850176401000000009004565b11156200085e5773146500cfd35b22e4a392fe0adc06de1a1368ed48600160006101000a81548173ffffffffffffffffffffffffffffffffffffffff021916908373ffffffffffffffffffffffffffffffffffffffff160217905550620008546040805190810160405280600b81526020017f6574685f72696e6b65627900000000000000000000000000000000000000000081525062000a396401000000000262001cf3176401000000009004565b6001905062000a34565b600062000893736f485c8bf6fc43ea212e93bbf8ce046c7f1cb475620004966401000000000262001850176401000000009004565b1115620008f957736f485c8bf6fc43ea212e93bbf8ce046c7f1cb475600160006101000a81548173ffffffffffffffffffffffffffffffffffffffff021916908373ffffffffffffffffffffffffffffffffffffffff1602179055506001905062000a34565b60006200092e7320e12a1f859b3feae5fb2a0a32c18f5a65555bbf620004966401000000000262001850176401000000009004565b111562000994577320e12a1f859b3feae5fb2a0a32c18f5a65555bbf600160006101000a81548173ffffffffffffffffffffffffffffffffffffffff021916908373ffffffffffffffffffffffffffffffffffffffff1602179055506001905062000a34565b6000620009c97351efaf4c8b3c9afbd5ab9f4bbc82784ab6ef8faa620004966401000000000262001850176401000000009004565b111562000a2f577351efaf4c8b3c9afbd5ab9f4bbc82784ab6ef8faa600160006101000a81548173ffffffffffffffffffffffffffffffffffffffff021916908373ffffffffffffffffffffffffffffffffffffffff1602179055506001905062000a34565b600090505b919050565b806003908051906020019062000a5192919062000a55565b5050565b828054600181600116156101000203166002900490600052602060002090601f016020900481019282601f1062000a9857805160ff191683800117855562000ac9565b8280016001018555821562000ac9579182015b8281111562000ac857825182559160200191906001019062000aab565b5b50905062000ad8919062000adc565b5090565b62000b0191905b8082111562000afd57600081600090555060010162000ae3565b5090565b90565b6121e88062000b146000396000f3006060604052600436106100a4576000357c0100000000000000000000000000000000000000000000000000000000900463ffffffff16806312065fe01461010e57806327dc297e1461013757806338bbfa50146101a15780634359b02d1461024e57806343a489c51461030657806343d726d614610358578063673a7e281461036d578063ac6d0fa414610377578063e62854c71461038c578063f2fde38b1461041a575b7f46cb989ef9cef13e930e3b7f286225a086e716a90d63e0b7da85d310a9db0c9a60405180806020018281038252600b8152602001807f6e65772062616c616e636500000000000000000000000000000000000000000081525060200191505060405180910390a1005b341561011957600080fd5b610121610453565b6040518082815260200191505060405180910390f35b341561014257600080fd5b61019f60048080356000191690602001909190803590602001908201803590602001908080601f01602080910402602001604051908101604052809392919081815260200183838082843782019150505050505091905050610472565b005b34156101ac57600080fd5b61024c60048080356000191690602001909190803590602001908201803590602001908080601f0160208091040260200160405190810160405280939291908181526020018383808284378201915050505050509190803590602001908201803590602001908080601f016020809104026020016040519081016040528093929190818152602001838380828437820191505050505050919050506104a4565b005b341561025957600080fd5b6102ec600480803590602001908201803590602001908080601f0160208091040260200160405190810160405280939291908181526020018383808284378201915050505050509190803590602001908201803590602001908080601f016020809104026020016040519081016040528093929190818152602001838380828437820191505050505050919050506106a6565b604051808215151515815260200191505060405180910390f35b610356600480803590602001908201803590602001908080601f016020809104026020016040519081016040528093929190818152602001838380828437820191505050505050919050506106b2565b005b341561036357600080fd5b61036b6106f1565b005b610375610786565b005b341561038257600080fd5b61038a610a28565b005b341561039757600080fd5b61039f610b1e565b6040518080602001828103825283818151815260200191508051906020019080838360005b838110156103df5780820151818401526020810190506103c4565b50505050905090810190601f16801561040c5780820380516001836020036101000a031916815260200191505b509250505060405180910390f35b341561042557600080fd5b610451600480803573ffffffffffffffffffffffffffffffffffffffff16906020019091905050610bc6565b005b60003073ffffffffffffffffffffffffffffffffffffffff1631905090565b6104a0828260006040518059106104865750595b9080825280601f01601f19166020018201604052506104a4565b5050565b60096000846000191660001916815260200190815260200160002060009054906101000a900460ff1615156104d857600080fd5b6104e0610c64565b73ffffffffffffffffffffffffffffffffffffffff163373ffffffffffffffffffffffffffffffffffffffff1614151561051957600080fd5b6105bd8260078054600181600116156101000203166002900480601f0160208091040260200160405190810160405280929190818152602001828054600181600116156101000203166002900480156105b35780601f10610588576101008083540402835291602001916105b3565b820191906000526020600020905b81548152906001019060200180831161059657829003601f168201915b50505050506106a6565b156106765781600790805190602001906105d8929190611d0d565b507f3b7a53cf23b0b81bba2993c806b81e5e956f85245c247c7a3207e40dddc8d0a1826040518080602001828103825283818151815260200191508051906020019080838360005b8381101561063b578082015181840152602081019050610620565b50505050905090810190601f1680156106685780820380516001836020036101000a031916815260200191505b509250505060405180910390a15b60096000846000191660001916815260200190815260200160002060006101000a81549060ff0219169055505050565b60006001905092915050565b600680548060010182816106c69190611d8d565b9160005260206000209001600083909190915090805190602001906106ec929190611d0d565b505050565b6000809054906101000a900473ffffffffffffffffffffffffffffffffffffffff1673ffffffffffffffffffffffffffffffffffffffff163373ffffffffffffffffffffffffffffffffffffffff1614151561074c57600080fd5b6000809054906101000a900473ffffffffffffffffffffffffffffffffffffffff1673ffffffffffffffffffffffffffffffffffffffff16ff5b60003073ffffffffffffffffffffffffffffffffffffffff16316107de6040805190810160405280600381526020017f55524c0000000000000000000000000000000000000000000000000000000000815250610f7e565b111561089d577f46cb989ef9cef13e930e3b7f286225a086e716a90d63e0b7da85d310a9db0c9a60405180806020018281038252604b8152602001807f4f7261636c697a6520717565727920776173204e4f542073656e742c20706c6581526020017f6173652061646420736f6d652045544820746f20636f76657220666f7220746881526020017f652071756572792066656500000000000000000000000000000000000000000081525060600191505060405180910390a1610a25565b7f46cb989ef9cef13e930e3b7f286225a086e716a90d63e0b7da85d310a9db0c9a6040518080602001828103825260358152602001807f4f7261636c697a65207175657279207761732073656e742c207374616e64696e81526020017f6720627920666f722074686520616e737765722e2e000000000000000000000081525060400191505060405180910390a16109ee603c6040805190810160405280600381526020017f55524c0000000000000000000000000000000000000000000000000000000000815250608060405190810160405280604481526020017f6a736f6e2868747470733a2f2f6170692e636f696e6465736b2e636f6d2f763181526020017f2f6270692f63757272656e7470726963652e6a736f6e292e6270692e5553442e81526020017f726174650000000000000000000000000000000000000000000000000000000081525061130a565b9050600160096000836000191660001916815260200190815260200160002060006101000a81548160ff0219169083151502179055505b50565b60008090505b60068054905081111515610b1b577f46cb989ef9cef13e930e3b7f286225a086e716a90d63e0b7da85d310a9db0c9a600682815481101515610a6c57fe5b90600052602060002090016040518080602001828103825283818154600181600116156101000203166002900481526020019150805460018160011615610100020316600290048015610b005780601f10610ad557610100808354040283529160200191610b00565b820191906000526020600020905b815481529060010190602001808311610ae357829003601f168201915b50509250505060405180910390a18080600101915050610a2e565b50565b610b26611db9565b60078054600181600116156101000203166002900480601f016020809104026020016040519081016040528092919081815260200182805460018160011615610100020316600290048015610bbc5780601f10610b9157610100808354040283529160200191610bbc565b820191906000526020600020905b815481529060010190602001808311610b9f57829003601f168201915b5050505050905090565b6000809054906101000a900473ffffffffffffffffffffffffffffffffffffffff1673ffffffffffffffffffffffffffffffffffffffff163373ffffffffffffffffffffffffffffffffffffffff16141515610c2157600080fd5b806000806101000a81548173ffffffffffffffffffffffffffffffffffffffff021916908373ffffffffffffffffffffffffffffffffffffffff16021790555050565b600080600160009054906101000a900473ffffffffffffffffffffffffffffffffffffffff1673ffffffffffffffffffffffffffffffffffffffff161480610cd657506000610cd4600160009054906101000a900473ffffffffffffffffffffffffffffffffffffffff16611850565b145b15610ce757610ce5600061185b565b505b600160009054906101000a900473ffffffffffffffffffffffffffffffffffffffff1673ffffffffffffffffffffffffffffffffffffffff166338cc48316000604051602001526040518163ffffffff167c0100000000000000000000000000000000000000000000000000000000028152600401602060405180830381600087803b1515610d7557600080fd5b6102c65a03f11515610d8657600080fd5b5050506040518051905073ffffffffffffffffffffffffffffffffffffffff16600260009054906101000a900473ffffffffffffffffffffffffffffffffffffffff1673ffffffffffffffffffffffffffffffffffffffff16141515610ed057600160009054906101000a900473ffffffffffffffffffffffffffffffffffffffff1673ffffffffffffffffffffffffffffffffffffffff166338cc48316000604051602001526040518163ffffffff167c0100000000000000000000000000000000000000000000000000000000028152600401602060405180830381600087803b1515610e7457600080fd5b6102c65a03f11515610e8557600080fd5b50505060405180519050600260006101000a81548173ffffffffffffffffffffffffffffffffffffffff021916908373ffffffffffffffffffffffffffffffffffffffff1602179055505b600260009054906101000a900473ffffffffffffffffffffffffffffffffffffffff1673ffffffffffffffffffffffffffffffffffffffff1663c281d19e6000604051602001526040518163ffffffff167c0100000000000000000000000000000000000000000000000000000000028152600401602060405180830381600087803b1515610f5e57600080fd5b6102c65a03f11515610f6f57600080fd5b50505060405180519050905090565b600080600160009054906101000a900473ffffffffffffffffffffffffffffffffffffffff1673ffffffffffffffffffffffffffffffffffffffff161480610ff057506000610fee600160009054906101000a900473ffffffffffffffffffffffffffffffffffffffff16611850565b145b1561100157610fff600061185b565b505b600160009054906101000a900473ffffffffffffffffffffffffffffffffffffffff1673ffffffffffffffffffffffffffffffffffffffff166338cc48316000604051602001526040518163ffffffff167c0100000000000000000000000000000000000000000000000000000000028152600401602060405180830381600087803b151561108f57600080fd5b6102c65a03f115156110a057600080fd5b5050506040518051905073ffffffffffffffffffffffffffffffffffffffff16600260009054906101000a900473ffffffffffffffffffffffffffffffffffffffff1673ffffffffffffffffffffffffffffffffffffffff161415156111ea57600160009054906101000a900473ffffffffffffffffffffffffffffffffffffffff1673ffffffffffffffffffffffffffffffffffffffff166338cc48316000604051602001526040518163ffffffff167c0100000000000000000000000000000000000000000000000000000000028152600401602060405180830381600087803b151561118e57600080fd5b6102c65a03f1151561119f57600080fd5b50505060405180519050600260006101000a81548173ffffffffffffffffffffffffffffffffffffffff021916908373ffffffffffffffffffffffffffffffffffffffff1602179055505b600260009054906101000a900473ffffffffffffffffffffffffffffffffffffffff1673ffffffffffffffffffffffffffffffffffffffff1663524f3889836000604051602001526040518263ffffffff167c01000000000000000000000000000000000000000000000000000000000281526004018080602001828103825283818151815260200191508051906020019080838360005b8381101561129d578082015181840152602081019050611282565b50505050905090810190601f1680156112ca5780820380516001836020036101000a031916815260200191505b5092505050602060405180830381600087803b15156112e857600080fd5b6102c65a03f115156112f957600080fd5b505050604051805190509050919050565b6000806000600160009054906101000a900473ffffffffffffffffffffffffffffffffffffffff1673ffffffffffffffffffffffffffffffffffffffff16148061137e5750600061137c600160009054906101000a900473ffffffffffffffffffffffffffffffffffffffff16611850565b145b1561138f5761138d600061185b565b505b600160009054906101000a900473ffffffffffffffffffffffffffffffffffffffff1673ffffffffffffffffffffffffffffffffffffffff166338cc48316000604051602001526040518163ffffffff167c0100000000000000000000000000000000000000000000000000000000028152600401602060405180830381600087803b151561141d57600080fd5b6102c65a03f1151561142e57600080fd5b5050506040518051905073ffffffffffffffffffffffffffffffffffffffff16600260009054906101000a900473ffffffffffffffffffffffffffffffffffffffff1673ffffffffffffffffffffffffffffffffffffffff1614151561157857600160009054906101000a900473ffffffffffffffffffffffffffffffffffffffff1673ffffffffffffffffffffffffffffffffffffffff166338cc48316000604051602001526040518163ffffffff167c0100000000000000000000000000000000000000000000000000000000028152600401602060405180830381600087803b151561151c57600080fd5b6102c65a03f1151561152d57600080fd5b50505060405180519050600260006101000a81548173ffffffffffffffffffffffffffffffffffffffff021916908373ffffffffffffffffffffffffffffffffffffffff1602179055505b600260009054906101000a900473ffffffffffffffffffffffffffffffffffffffff1673ffffffffffffffffffffffffffffffffffffffff1663524f3889856000604051602001526040518263ffffffff167c01000000000000000000000000000000000000000000000000000000000281526004018080602001828103825283818151815260200191508051906020019080838360005b8381101561162b578082015181840152602081019050611610565b50505050905090810190601f1680156116585780820380516001836020036101000a031916815260200191505b5092505050602060405180830381600087803b151561167657600080fd5b6102c65a03f1151561168757600080fd5b50505060405180519050905062030d403a02670de0b6b3a7640000018111156116b65760006001029150611848565b600260009054906101000a900473ffffffffffffffffffffffffffffffffffffffff1673ffffffffffffffffffffffffffffffffffffffff1663adf59f99828787876000604051602001526040518563ffffffff167c0100000000000000000000000000000000000000000000000000000000028152600401808481526020018060200180602001838103835285818151815260200191508051906020019080838360005b8381101561177657808201518184015260208101905061175b565b50505050905090810190601f1680156117a35780820380516001836020036101000a031916815260200191505b50838103825284818151815260200191508051906020019080838360005b838110156117dc5780820151818401526020810190506117c1565b50505050905090810190601f1680156118095780820380516001836020036101000a031916815260200191505b50955050505050506020604051808303818588803b151561182957600080fd5b6125ee5a03f1151561183a57600080fd5b505050506040518051905091505b509392505050565b6000813b9050919050565b60008061187b731d3b2638a7cc9f2cb3d298a3da7a90b67e5506ed611850565b111561191d57731d3b2638a7cc9f2cb3d298a3da7a90b67e5506ed600160006101000a81548173ffffffffffffffffffffffffffffffffffffffff021916908373ffffffffffffffffffffffffffffffffffffffff1602179055506119146040805190810160405280600b81526020017f6574685f6d61696e6e6574000000000000000000000000000000000000000000815250611cf3565b60019050611cee565b600061193c73c03a2615d5efaf5f49f60b7bb6583eaec212fdf1611850565b11156119de5773c03a2615d5efaf5f49f60b7bb6583eaec212fdf1600160006101000a81548173ffffffffffffffffffffffffffffffffffffffff021916908373ffffffffffffffffffffffffffffffffffffffff1602179055506119d56040805190810160405280600c81526020017f6574685f726f707374656e330000000000000000000000000000000000000000815250611cf3565b60019050611cee565b60006119fd73b7a07bcf2ba2f2703b24c0691b5278999c59ac7e611850565b1115611a9f5773b7a07bcf2ba2f2703b24c0691b5278999c59ac7e600160006101000a81548173ffffffffffffffffffffffffffffffffffffffff021916908373ffffffffffffffffffffffffffffffffffffffff160217905550611a966040805190810160405280600981526020017f6574685f6b6f76616e0000000000000000000000000000000000000000000000815250611cf3565b60019050611cee565b6000611abe73146500cfd35b22e4a392fe0adc06de1a1368ed48611850565b1115611b605773146500cfd35b22e4a392fe0adc06de1a1368ed48600160006101000a81548173ffffffffffffffffffffffffffffffffffffffff021916908373ffffffffffffffffffffffffffffffffffffffff160217905550611b576040805190810160405280600b81526020017f6574685f72696e6b656279000000000000000000000000000000000000000000815250611cf3565b60019050611cee565b6000611b7f736f485c8bf6fc43ea212e93bbf8ce046c7f1cb475611850565b1115611be357736f485c8bf6fc43ea212e93bbf8ce046c7f1cb475600160006101000a81548173ffffffffffffffffffffffffffffffffffffffff021916908373ffffffffffffffffffffffffffffffffffffffff16021790555060019050611cee565b6000611c027320e12a1f859b3feae5fb2a0a32c18f5a65555bbf611850565b1115611c66577320e12a1f859b3feae5fb2a0a32c18f5a65555bbf600160006101000a81548173ffffffffffffffffffffffffffffffffffffffff021916908373ffffffffffffffffffffffffffffffffffffffff16021790555060019050611cee565b6000611c857351efaf4c8b3c9afbd5ab9f4bbc82784ab6ef8faa611850565b1115611ce9577351efaf4c8b3c9afbd5ab9f4bbc82784ab6ef8faa600160006101000a81548173ffffffffffffffffffffffffffffffffffffffff021916908373ffffffffffffffffffffffffffffffffffffffff16021790555060019050611cee565b600090505b919050565b8060039080519060200190611d09929190611d0d565b5050565b828054600181600116156101000203166002900490600052602060002090601f016020900481019282601f10611d4e57805160ff1916838001178555611d7c565b82800160010185558215611d7c579182015b82811115611d7b578251825591602001919060010190611d60565b5b509050611d899190611dcd565b5090565b815481835581811511611db457818360005260206000209182019101611db39190611df2565b5b505050565b602060405190810160405280600081525090565b611def91905b80821115611deb576000816000905550600101611dd3565b5090565b90565b611e1b91905b80821115611e175760008181611e0e9190611e1e565b50600101611df8565b5090565b90565b50805460018160011615610100020316600290046000825580601f10611e445750611e63565b601f016020900490600052602060002090810190611e629190611dcd565b5b50565b6000600160009054906101000a900473ffffffffffffffffffffffffffffffffffffffff1673ffffffffffffffffffffffffffffffffffffffff161480611ed757506000611ed5600160009054906101000a900473ffffffffffffffffffffffffffffffffffffffff16611850565b145b15611ee857611ee6600061185b565b505b600160009054906101000a900473ffffffffffffffffffffffffffffffffffffffff1673ffffffffffffffffffffffffffffffffffffffff166338cc48316000604051602001526040518163ffffffff167c0100000000000000000000000000000000000000000000000000000000028152600401602060405180830381600087803b1515611f7657600080fd5b6102c65a03f11515611f8757600080fd5b5050506040518051905073ffffffffffffffffffffffffffffffffffffffff16600260009054906101000a900473ffffffffffffffffffffffffffffffffffffffff1673ffffffffffffffffffffffffffffffffffffffff161415156120d157600160009054906101000a900473ffffffffffffffffffffffffffffffffffffffff1673ffffffffffffffffffffffffffffffffffffffff166338cc48316000604051602001526040518163ffffffff167c0100000000000000000000000000000000000000000000000000000000028152600401602060405180830381600087803b151561207557600080fd5b6102c65a03f1151561208657600080fd5b50505060405180519050600260006101000a81548173ffffffffffffffffffffffffffffffffffffffff021916908373ffffffffffffffffffffffffffffffffffffffff1602179055505b600260009054906101000a900473ffffffffffffffffffffffffffffffffffffffff1673ffffffffffffffffffffffffffffffffffffffff1663688dcfd7826040518263ffffffff167c010000000000000000000000000000000000000000000000000000000002815260040180827effffffffffffffffffffffffffffffffffffffffffffffffffffffffffffff19167effffffffffffffffffffffffffffffffffffffffffffffffffffffffffffff19168152602001915050600060405180830381600087803b15156121a557600080fd5b6102c65a03f115156121b657600080fd5b505050505600a165627a7a7230582074883f29142ec20a38948a23d8d755df420ab7ba231e24362249b42b8716efd20029",
  "source": "pragma solidity ^0.4.18;\r\n\r\nimport \"./Owner.sol\";\r\nimport \"./usingOraclize.sol\";\r\n\r\ncontract BitcoinRate is Owner, usingOraclize {\r\n\r\n    string[] subscribers;\r\n\r\n    string currentPriceBitcoin = \"0\";\r\n\r\n    ufixed test;\r\n\r\n    mapping(bytes32 => bool) validIds;\r\n    //Fallback Function\r\n    //A contract can have exactly one unnamed function.\r\n    //This function cannot have arguments and cannot return anything.\r\n    //It is executed on a call to the contract if none of the other functions match the given function identifier (or if no data was supplied at all).\r\n\r\n    function() payable {\r\n        newOraclizeQuery(\"new balance\");\r\n    }\r\n\r\n    event newBitcoinPrice(string price);\r\n\r\n    event newOraclizeQuery(string msg);\r\n\r\n    event newBTCPrice(string msg, string email);\r\n\r\n\r\n    function BitcoinRate() {\r\n        //oraclize_setProof(proofType_Ledger);\r\n        oraclize_setProof(proofType_TLSNotary | proofStorage_IPFS);\r\n        //updatePrice();\r\n    }\r\n\r\n    function registerNewSubscriber(string email) public payable{\r\n        subscribers.push(email);\r\n    }\r\n\r\n    function getBalance() public view returns (uint){\r\n        return this.balance;\r\n    }\r\n\r\n    function getBTC() public view returns (string){\r\n        return currentPriceBitcoin;\r\n    }\r\n\r\n    function getAllSubscribers() public {\r\n        //newBTCPrice(\"test1\", \"test2\");\r\n        for (uint i = 0; i <= subscribers.length; i++) {\r\n            newOraclizeQuery(subscribers[i]);\r\n            //newBTCPrice(subscribers[i], currentPriceBitcoin);\r\n\r\n        }\r\n    }\r\n\r\n    function updatePrice() public payable {\r\n        if (oraclize_getPrice(\"URL\") > this.balance) {\r\n            newOraclizeQuery(\"Oraclize query was NOT sent, please add some ETH to cover for the query fee\");\r\n        } else {\r\n            newOraclizeQuery(\"Oraclize query was sent, standing by for the answer..\");\r\n            //60\r\n            bytes32 queryId = oraclize_query(60, \"URL\", \"json(https://api.coindesk.com/v1/bpi/currentprice.json).bpi.USD.rate\");\r\n            validIds[queryId] = true;\r\n        }\r\n    }\r\n\r\n    function __callback(bytes32 myid, string result, bytes proof) public {\r\n        require(validIds[myid]);\r\n        require(msg.sender == oraclize_cbAddress());\r\n        if (biggest(result, currentPriceBitcoin)) {\r\n            currentPriceBitcoin = result;\r\n            newBitcoinPrice(result);\r\n        }\r\n        delete validIds[myid];\r\n        //updatePrice();\r\n    }\r\n\r\n    function biggest(string result1, string result2) public returns (bool biggest) {\r\n        return true;\r\n    }\r\n\r\n\r\n    function close() public onlyOwner {\r\n        selfdestruct(owner);\r\n    }\r\n}\r\n\r\n",
  "sourcePath": "C:\\BlockChain\\bitcoin_rate_in_a_week\\contracts\\BitcoinRate.sol",
  "compiler": {
    "name": "solc",
    "version": "0.4.18+commit.9cf6e910.Emscripten.clang"
  },
  "schemaVersion": "1.0.1",
  "updatedAt": "2017-12-10T21:05:44.197Z"
}