{
  "contractName": "SimpleStorage",
  "abi": [
    {
      "constant": false,
      "inputs": [
        {
          "name": "x",
          "type": "uint256"
        }
      ],
      "name": "set",
      "outputs": [],
      "payable": false,
      "stateMutability": "nonpayable",
      "type": "function"
    },
    {
      "constant": true,
      "inputs": [],
      "name": "get",
      "outputs": [
        {
          "name": "",
          "type": "uint256"
        }
      ],
      "payable": false,
      "stateMutability": "view",
      "type": "function"
    },
    {
      "constant": false,
      "inputs": [
        {
          "name": "newOwner",
          "type": "address"
        }
      ],
      "name": "transferOwnership",
      "outputs": [],
      "payable": false,
      "stateMutability": "nonpayable",
      "type": "function"
    }
  ],
  "bytecode": "0x6060604052336000806101000a81548173ffffffffffffffffffffffffffffffffffffffff021916908373ffffffffffffffffffffffffffffffffffffffff1602179055506101bf806100536000396000f300606060405260043610610057576000357c0100000000000000000000000000000000000000000000000000000000900463ffffffff16806360fe47b11461005c5780636d4ce63c1461007f578063f2fde38b146100a8575b600080fd5b341561006757600080fd5b61007d60048080359060200190919050506100e1565b005b341561008a57600080fd5b6100926100eb565b6040518082815260200191505060405180910390f35b34156100b357600080fd5b6100df600480803573ffffffffffffffffffffffffffffffffffffffff169060200190919050506100f5565b005b8060018190555050565b6000600154905090565b6000809054906101000a900473ffffffffffffffffffffffffffffffffffffffff1673ffffffffffffffffffffffffffffffffffffffff163373ffffffffffffffffffffffffffffffffffffffff1614151561015057600080fd5b806000806101000a81548173ffffffffffffffffffffffffffffffffffffffff021916908373ffffffffffffffffffffffffffffffffffffffff160217905550505600a165627a7a723058206d061203e575fc48bd961d63b881a7d4b96d0555e28200db89106f0e39ccefff0029",
  "source": "pragma solidity ^0.4.18;\r\n\r\nimport \"./Owner.sol\";\r\n\r\ncontract SimpleStorage is Owner {\r\n    uint storedData;\r\n\r\n    function set(uint x) public {\r\n        storedData = x;\r\n    }\r\n\r\n    function get() public view returns (uint) {\r\n        return storedData;\r\n    }\r\n}\r\n",
  "sourcePath": "C:\\BlockChain\\bitcoin_rate_in_a_week\\contracts\\SimpleStorage.sol",
  "compiler": {
    "name": "solc",
    "version": "0.4.18+commit.9cf6e910.Emscripten.clang"
  },
  "schemaVersion": "1.0.1",
  "updatedAt": "2017-12-10T16:06:22.282Z"
}